{
  "_format": "hh-sol-artifact-1",
  "contractName": "JulzPay",
  "sourceName": "src/contracts/JulzPay.sol",
  "abi": [
    {
      "inputs": [
        {
          "internalType": "address payable",
          "name": "_owner",
          "type": "address"
        },
        {
          "internalType": "bool",
          "name": "_monthly",
          "type": "bool"
        },
        {
          "internalType": "bool",
          "name": "_covergas",
          "type": "bool"
        },
        {
          "internalType": "address",
          "name": "_treasury",
          "type": "address"
        },
        {
          "internalType": "address",
          "name": "_withdrawToken",
          "type": "address"
        },
        {
          "internalType": "address",
          "name": "_WETH_ADD",
          "type": "address"
        }
      ],
      "stateMutability": "payable",
      "type": "constructor"
    },
    {
      "anonymous": false,
      "inputs": [
        {
          "indexed": false,
          "internalType": "address",
          "name": "sender",
          "type": "address"
        },
        {
          "indexed": false,
          "internalType": "uint256",
          "name": "amountReceived",
          "type": "uint256"
        },
        {
          "indexed": false,
          "internalType": "uint256",
          "name": "amountDeposited",
          "type": "uint256"
        },
        {
          "indexed": false,
          "internalType": "address",
          "name": "token",
          "type": "address"
        }
      ],
      "name": "Paid",
      "type": "event"
    },
    {
      "inputs": [],
      "name": "covergas",
      "outputs": [
        {
          "internalType": "bool",
          "name": "",
          "type": "bool"
        }
      ],
      "stateMutability": "view",
      "type": "function"
    },
    {
      "inputs": [
        {
          "internalType": "uint256",
          "name": "_amount",
          "type": "uint256"
        },
        {
          "internalType": "address",
          "name": "_token",
          "type": "address"
        }
      ],
      "name": "deposit",
      "outputs": [],
      "stateMutability": "payable",
      "type": "function"
    },
    {
      "inputs": [],
      "name": "destruct",
      "outputs": [],
      "stateMutability": "nonpayable",
      "type": "function"
    },
    {
      "inputs": [],
      "name": "lastWithdrawDate",
      "outputs": [
        {
          "internalType": "uint256",
          "name": "",
          "type": "uint256"
        }
      ],
      "stateMutability": "view",
      "type": "function"
    },
    {
      "inputs": [],
      "name": "monthly",
      "outputs": [
        {
          "internalType": "bool",
          "name": "",
          "type": "bool"
        }
      ],
      "stateMutability": "view",
      "type": "function"
    },
    {
      "inputs": [
        {
          "internalType": "address",
          "name": "_token",
          "type": "address"
        },
        {
          "internalType": "bytes",
          "name": "path",
          "type": "bytes"
        }
      ],
      "name": "swap",
      "outputs": [
        {
          "internalType": "uint256",
          "name": "result",
          "type": "uint256"
        }
      ],
      "stateMutability": "nonpayable",
      "type": "function"
    },
    {
      "inputs": [],
      "name": "treasury",
      "outputs": [
        {
          "internalType": "address",
          "name": "",
          "type": "address"
        }
      ],
      "stateMutability": "view",
      "type": "function"
    },
    {
      "inputs": [],
      "name": "withdraw",
      "outputs": [],
      "stateMutability": "nonpayable",
      "type": "function"
    },
    {
      "inputs": [],
      "name": "withdrawToken",
      "outputs": [
        {
          "internalType": "address",
          "name": "",
          "type": "address"
        }
      ],
      "stateMutability": "view",
      "type": "function"
    }
  ],
  "bytecode": "0x608060405273e592427a0aece92de3edee1f18e0157c05861564600560006101000a81548173ffffffffffffffffffffffffffffffffffffffff021916908373ffffffffffffffffffffffffffffffffffffffff1602179055506040516200152b3803806200152b83398181016040528101906200007e91906200020d565b85600160006101000a81548173ffffffffffffffffffffffffffffffffffffffff021916908373ffffffffffffffffffffffffffffffffffffffff16021790555084600260146101000a81548160ff02191690831515021790555083600260156101000a81548160ff02191690831515021790555081600260006101000a81548173ffffffffffffffffffffffffffffffffffffffff021916908373ffffffffffffffffffffffffffffffffffffffff1602179055504260038190555082600460006101000a81548173ffffffffffffffffffffffffffffffffffffffff021916908373ffffffffffffffffffffffffffffffffffffffff160217905550806000806101000a81548173ffffffffffffffffffffffffffffffffffffffff021916908373ffffffffffffffffffffffffffffffffffffffff16021790555050505050505062000345565b600081519050620001d981620002f7565b92915050565b600081519050620001f08162000311565b92915050565b60008151905062000207816200032b565b92915050565b60008060008060008060c087890312156200022757600080fd5b60006200023789828a01620001df565b96505060206200024a89828a01620001f6565b95505060406200025d89828a01620001f6565b94505060606200027089828a01620001c8565b93505060806200028389828a01620001c8565b92505060a06200029689828a01620001c8565b9150509295509295509295565b6000620002b082620002d7565b9050919050565b6000620002c482620002d7565b9050919050565b60008115159050919050565b600073ffffffffffffffffffffffffffffffffffffffff82169050919050565b6200030281620002a3565b81146200030e57600080fd5b50565b6200031c81620002b7565b81146200032857600080fd5b50565b6200033681620002cb565b81146200034257600080fd5b50565b6111d680620003556000396000f3fe6080604052600436106100865760003560e01c80636e553f65116100595780636e553f651461010f578063ac7d322e1461012b578063ca628c7814610156578063e354733514610181578063fcd7e3c8146101be57610086565b80632b68b9c61461008b5780633ccfd60b146100a25780634093a52d146100b957806361d027b3146100e4575b600080fd5b34801561009757600080fd5b506100a06101e9565b005b3480156100ae57600080fd5b506100b76102b4565b005b3480156100c557600080fd5b506100ce6103c6565b6040516100db9190610fdf565b60405180910390f35b3480156100f057600080fd5b506100f96103cc565b6040516101069190610ea2565b60405180910390f35b61012960048036038101906101249190610cdd565b6103f2565b005b34801561013757600080fd5b50610140610526565b60405161014d9190610f62565b60405180910390f35b34801561016257600080fd5b5061016b610539565b6040516101789190610ea2565b60405180910390f35b34801561018d57600080fd5b506101a860048036038101906101a39190610c37565b61055f565b6040516101b59190610fdf565b60405180910390f35b3480156101ca57600080fd5b506101d3610909565b6040516101e09190610f62565b60405180910390f35b600160009054906101000a900473ffffffffffffffffffffffffffffffffffffffff1673ffffffffffffffffffffffffffffffffffffffff163373ffffffffffffffffffffffffffffffffffffffff1614610279576040517f08c379a000000000000000000000000000000000000000000000000000000000815260040161027090610f7d565b60405180910390fd5b600160009054906101000a900473ffffffffffffffffffffffffffffffffffffffff1673ffffffffffffffffffffffffffffffffffffffff16ff5b4262278d006003540111156102fe576040517f08c379a00000000000000000000000000000000000000000000000000000000081526004016102f590610f9d565b60405180910390fd5b60001515600460149054906101000a900460ff1615151461031e57600080fd5b6001600460146101000a81548160ff021916908315150217905550600460009054906101000a900473ffffffffffffffffffffffffffffffffffffffff1673ffffffffffffffffffffffffffffffffffffffff166108fc479081150290604051600060405180830381858888f193505050501580156103a1573d6000803e3d6000fd5b50426003819055506000600460146101000a81548160ff021916908315150217905550565b60035481565b600460009054906101000a900473ffffffffffffffffffffffffffffffffffffffff1681565b60008054906101000a900473ffffffffffffffffffffffffffffffffffffffff1673ffffffffffffffffffffffffffffffffffffffff168173ffffffffffffffffffffffffffffffffffffffff16141561044e573491506104e5565b60008190508073ffffffffffffffffffffffffffffffffffffffff166323b872dd3330866040518463ffffffff1660e01b815260040161049093929190610ebd565b602060405180830381600087803b1580156104aa57600080fd5b505af11580156104be573d6000803e3d6000fd5b505050506040513d601f19601f820116820180604052508101906104e29190610c8b565b50505b7fb4e90aede11d33584a87d3caf846b0dd4819cd78ff1a28d7c7ab93d01c9d03843383848460405161051a9493929190610ef4565b60405180910390a15050565b600260159054906101000a900460ff1681565b600260009054906101000a900473ffffffffffffffffffffffffffffffffffffffff1681565b6000806000905060008054906101000a900473ffffffffffffffffffffffffffffffffffffffff1673ffffffffffffffffffffffffffffffffffffffff168473ffffffffffffffffffffffffffffffffffffffff1614156105c2574790506107cb565b600084905061068e6040518060400160405280601081526020017f62616c616e6365206f6e207468696e67000000000000000000000000000000008152508273ffffffffffffffffffffffffffffffffffffffff166370a08231306040518263ffffffff1660e01b81526004016106399190610ea2565b60206040518083038186803b15801561065157600080fd5b505afa158015610665573d6000803e3d6000fd5b505050506040513d601f19601f820116820180604052508101906106899190610cb4565b61091c565b8073ffffffffffffffffffffffffffffffffffffffff166370a08231306040518263ffffffff1660e01b81526004016106c79190610ea2565b60206040518083038186803b1580156106df57600080fd5b505afa1580156106f3573d6000803e3d6000fd5b505050506040513d601f19601f820116820180604052508101906107179190610cb4565b91508073ffffffffffffffffffffffffffffffffffffffff1663095ea7b3600560009054906101000a900473ffffffffffffffffffffffffffffffffffffffff16846040518363ffffffff1660e01b8152600401610776929190610f39565b602060405180830381600087803b15801561079057600080fd5b505af11580156107a4573d6000803e3d6000fd5b505050506040513d601f19601f820116820180604052508101906107c89190610c8b565b50505b6107d3610b4a565b6040518060a001604052808581526020013073ffffffffffffffffffffffffffffffffffffffff168152602001428152602001838152602001600081525090506108516040518060400160405280600f81526020017f736f6d657468696e672069732075700000000000000000000000000000000000815250610a23565b600560009054906101000a900473ffffffffffffffffffffffffffffffffffffffff1673ffffffffffffffffffffffffffffffffffffffff1663c04b8d5983836040518363ffffffff1660e01b81526004016108ad9190610fbd565b6020604051808303818588803b1580156108c657600080fd5b505af11580156108da573d6000803e3d6000fd5b50505050506040513d601f19601f820116820180604052508101906108ff9190610cb4565b9250505092915050565b600260149054906101000a900460ff1681565b610a1f82826040516024018080602001838152602001828103825284818151815260200191508051906020019080838360005b8381101561096a57808201518184015260208101905061094f565b50505050905090810190601f1680156109975780820380516001836020036101000a031916815260200191505b5093505050506040516020818303038152906040527f9710a9d0000000000000000000000000000000000000000000000000000000007bffffffffffffffffffffffffffffffffffffffffffffffffffffffff19166020820180517bffffffffffffffffffffffffffffffffffffffffffffffffffffffff8381831617835250505050610b21565b5050565b610b1e816040516024018080602001828103825283818151815260200191508051906020019080838360005b83811015610a6a578082015181840152602081019050610a4f565b50505050905090810190601f168015610a975780820380516001836020036101000a031916815260200191505b50925050506040516020818303038152906040527f41304fac000000000000000000000000000000000000000000000000000000007bffffffffffffffffffffffffffffffffffffffffffffffffffffffff19166020820180517bffffffffffffffffffffffffffffffffffffffffffffffffffffffff8381831617835250505050610b21565b50565b60008151905060006a636f6e736f6c652e6c6f679050602083016000808483855afa5050505050565b6040518060a0016040528060608152602001600073ffffffffffffffffffffffffffffffffffffffff1681526020016000815260200160008152602001600081525090565b600081359050610b9e8161115b565b92915050565b600081519050610bb381611172565b92915050565b600082601f830112610bca57600080fd5b8135610bdd610bd88261102b565b610ffa565b91508082526020830160208301858383011115610bf957600080fd5b610c04838284611106565b50505092915050565b600081359050610c1c81611189565b92915050565b600081519050610c3181611189565b92915050565b60008060408385031215610c4a57600080fd5b6000610c5885828601610b8f565b925050602083013567ffffffffffffffff811115610c7557600080fd5b610c8185828601610bb9565b9150509250929050565b600060208284031215610c9d57600080fd5b6000610cab84828501610ba4565b91505092915050565b600060208284031215610cc657600080fd5b6000610cd484828501610c22565b91505092915050565b60008060408385031215610cf057600080fd5b6000610cfe85828601610c0d565b9250506020610d0f85828601610b8f565b9150509250929050565b610d22816110d0565b82525050565b610d3181611088565b82525050565b610d4081611088565b82525050565b610d4f8161109a565b82525050565b6000610d608261105b565b610d6a8185611066565b9350610d7a818560208601611115565b610d838161114a565b840191505092915050565b6000610d9b600d83611077565b91507f4e6f7420746865206f776e6572000000000000000000000000000000000000006000830152602082019050919050565b6000610ddb601583611077565b91507f4e6f7420726561647920746f20776974686472617700000000000000000000006000830152602082019050919050565b600060a0830160008301518482036000860152610e2b8282610d55565b9150506020830151610e406020860182610d28565b506040830151610e536040860182610e84565b506060830151610e666060860182610e84565b506080830151610e796080860182610e84565b508091505092915050565b610e8d816110c6565b82525050565b610e9c816110c6565b82525050565b6000602082019050610eb76000830184610d37565b92915050565b6000606082019050610ed26000830186610d19565b610edf6020830185610d37565b610eec6040830184610e93565b949350505050565b6000608082019050610f096000830187610d19565b610f166020830186610e93565b610f236040830185610e93565b610f306060830184610d37565b95945050505050565b6000604082019050610f4e6000830185610d37565b610f5b6020830184610e93565b9392505050565b6000602082019050610f776000830184610d46565b92915050565b60006020820190508181036000830152610f9681610d8e565b9050919050565b60006020820190508181036000830152610fb681610dce565b9050919050565b60006020820190508181036000830152610fd78184610e0e565b905092915050565b6000602082019050610ff46000830184610e93565b92915050565b6000604051905081810181811067ffffffffffffffff8211171561102157611020611148565b5b8060405250919050565b600067ffffffffffffffff82111561104657611045611148565b5b601f19601f8301169050602081019050919050565b600081519050919050565b600082825260208201905092915050565b600082825260208201905092915050565b6000611093826110a6565b9050919050565b60008115159050919050565b600073ffffffffffffffffffffffffffffffffffffffff82169050919050565b6000819050919050565b60006110db826110e2565b9050919050565b60006110ed826110f4565b9050919050565b60006110ff826110a6565b9050919050565b82818337600083830152505050565b60005b83811015611133578082015181840152602081019050611118565b83811115611142576000848401525b50505050565bfe5b6000601f19601f8301169050919050565b61116481611088565b811461116f57600080fd5b50565b61117b8161109a565b811461118657600080fd5b50565b611192816110c6565b811461119d57600080fd5b5056fea264697066735822122009c56067018c05e72c92b662506533abebbcc593df4480a42636706e6b82acf564736f6c63430007050033",
  "linkReferences": {},
  "deployedLinkReferences": {}
}