{
  "_format": "hh-sol-artifact-1",
  "contractName": "JulzPay",
  "sourceName": "src/contracts/JulzPay.sol",
  "abi": [
    {
      "inputs": [
        {
          "internalType": "address payable",
          "name": "_owner",
          "type": "address"
        },
        {
          "internalType": "bool",
          "name": "_monthly",
          "type": "bool"
        },
        {
          "internalType": "bool",
          "name": "_covergas",
          "type": "bool"
        },
        {
          "internalType": "address",
          "name": "_treasury",
          "type": "address"
        },
        {
          "internalType": "address",
          "name": "_withdrawToken",
          "type": "address"
        },
        {
          "internalType": "address",
          "name": "_WETH_ADD",
          "type": "address"
        }
      ],
      "stateMutability": "payable",
      "type": "constructor"
    },
    {
      "anonymous": false,
      "inputs": [
        {
          "indexed": false,
          "internalType": "address",
          "name": "sender",
          "type": "address"
        },
        {
          "indexed": false,
          "internalType": "uint256",
          "name": "amountReceived",
          "type": "uint256"
        },
        {
          "indexed": false,
          "internalType": "uint256",
          "name": "amountDeposited",
          "type": "uint256"
        },
        {
          "indexed": false,
          "internalType": "address",
          "name": "token",
          "type": "address"
        }
      ],
      "name": "Paid",
      "type": "event"
    },
    {
      "anonymous": false,
      "inputs": [
        {
          "indexed": false,
          "internalType": "uint256",
          "name": "",
          "type": "uint256"
        }
      ],
      "name": "Withdraw",
      "type": "event"
    },
    {
      "inputs": [],
      "name": "covergas",
      "outputs": [
        {
          "internalType": "bool",
          "name": "",
          "type": "bool"
        }
      ],
      "stateMutability": "view",
      "type": "function"
    },
    {
      "inputs": [
        {
          "internalType": "uint256",
          "name": "_amount",
          "type": "uint256"
        },
        {
          "internalType": "address",
          "name": "_token",
          "type": "address"
        },
        {
          "internalType": "bytes",
          "name": "path",
          "type": "bytes"
        }
      ],
      "name": "deposit",
      "outputs": [],
      "stateMutability": "payable",
      "type": "function"
    },
    {
      "inputs": [],
      "name": "destruct",
      "outputs": [],
      "stateMutability": "nonpayable",
      "type": "function"
    },
    {
      "inputs": [],
      "name": "lastWithdrawDate",
      "outputs": [
        {
          "internalType": "uint256",
          "name": "",
          "type": "uint256"
        }
      ],
      "stateMutability": "view",
      "type": "function"
    },
    {
      "inputs": [],
      "name": "monthly",
      "outputs": [
        {
          "internalType": "bool",
          "name": "",
          "type": "bool"
        }
      ],
      "stateMutability": "view",
      "type": "function"
    },
    {
      "inputs": [
        {
          "internalType": "address",
          "name": "_token",
          "type": "address"
        },
        {
          "internalType": "bytes",
          "name": "path",
          "type": "bytes"
        },
        {
          "internalType": "uint256",
          "name": "amount",
          "type": "uint256"
        }
      ],
      "name": "swap",
      "outputs": [
        {
          "internalType": "uint256",
          "name": "result",
          "type": "uint256"
        }
      ],
      "stateMutability": "nonpayable",
      "type": "function"
    },
    {
      "inputs": [],
      "name": "treasury",
      "outputs": [
        {
          "internalType": "address",
          "name": "",
          "type": "address"
        }
      ],
      "stateMutability": "view",
      "type": "function"
    },
    {
      "inputs": [],
      "name": "withdraw",
      "outputs": [],
      "stateMutability": "nonpayable",
      "type": "function"
    },
    {
      "inputs": [],
      "name": "withdrawToken",
      "outputs": [
        {
          "internalType": "address",
          "name": "",
          "type": "address"
        }
      ],
      "stateMutability": "view",
      "type": "function"
    },
    {
      "stateMutability": "payable",
      "type": "receive"
    }
  ],
  "bytecode": "0x608060405273e592427a0aece92de3edee1f18e0157c05861564600660006101000a81548173ffffffffffffffffffffffffffffffffffffffff021916908373ffffffffffffffffffffffffffffffffffffffff160217905550737d2768de32b0b80b7a3454c06bdac94a69ddc7a9600760006101000a81548173ffffffffffffffffffffffffffffffffffffffff021916908373ffffffffffffffffffffffffffffffffffffffff16021790555073cc9a0b7c43dc2a5f023bb9b738e45b0ef6b06e04600860006101000a81548173ffffffffffffffffffffffffffffffffffffffff021916908373ffffffffffffffffffffffffffffffffffffffff16021790555073028171bca77440897b824ca71d1c56cac55b68a3600960006101000a81548173ffffffffffffffffffffffffffffffffffffffff021916908373ffffffffffffffffffffffffffffffffffffffff16021790555073a0b86991c6218b36c1d19d4a2e9eb0ce3606eb48600a60006101000a81548173ffffffffffffffffffffffffffffffffffffffff021916908373ffffffffffffffffffffffffffffffffffffffff16021790555073dac17f958d2ee523a2206206994597c13d831ec7600b60006101000a81548173ffffffffffffffffffffffffffffffffffffffff021916908373ffffffffffffffffffffffffffffffffffffffff160217905550732260fac5e5542a773aa44fbcfedf7c193bc2c599600c60006101000a81548173ffffffffffffffffffffffffffffffffffffffff021916908373ffffffffffffffffffffffffffffffffffffffff16021790555073030ba81f1c18d280636f32af80b9aad02cf0854e600d60006101000a81548173ffffffffffffffffffffffffffffffffffffffff021916908373ffffffffffffffffffffffffffffffffffffffff1602179055506040516200228b3803806200228b8339818101604052810190620002d191906200052f565b8480620002e9575084158015620002e85750600034115b5b6200032b576040517f08c379a0000000000000000000000000000000000000000000000000000000008152600401620003229062000607565b60405180910390fd5b85600160006101000a81548173ffffffffffffffffffffffffffffffffffffffff021916908373ffffffffffffffffffffffffffffffffffffffff16021790555084600260146101000a81548160ff02191690831515021790555083600260156101000a81548160ff02191690831515021790555081600260006101000a81548173ffffffffffffffffffffffffffffffffffffffff021916908373ffffffffffffffffffffffffffffffffffffffff1602179055504260038190555082600460006101000a81548173ffffffffffffffffffffffffffffffffffffffff021916908373ffffffffffffffffffffffffffffffffffffffff160217905550806000806101000a81548173ffffffffffffffffffffffffffffffffffffffff021916908373ffffffffffffffffffffffffffffffffffffffff1602179055506000341115620004de57600160009054906101000a900473ffffffffffffffffffffffffffffffffffffffff1673ffffffffffffffffffffffffffffffffffffffff166108fc479081150290604051600060405180830381858888f19350505050158015620004dc573d6000803e3d6000fd5b505b505050505050620006dc565b600081519050620004fb816200068e565b92915050565b6000815190506200051281620006a8565b92915050565b6000815190506200052981620006c2565b92915050565b60008060008060008060c087890312156200054957600080fd5b60006200055989828a0162000501565b96505060206200056c89828a0162000518565b95505060406200057f89828a0162000518565b94505060606200059289828a01620004ea565b9350506080620005a589828a01620004ea565b92505060a0620005b889828a01620004ea565b9150509295509295509295565b6000620005d460148362000629565b91507f4e6f742066756e64656420636f72726563746c790000000000000000000000006000830152602082019050919050565b600060208201905081810360008301526200062281620005c5565b9050919050565b600082825260208201905092915050565b600062000647826200066e565b9050919050565b60006200065b826200066e565b9050919050565b60008115159050919050565b600073ffffffffffffffffffffffffffffffffffffffff82169050919050565b62000699816200063a565b8114620006a557600080fd5b50565b620006b3816200064e565b8114620006bf57600080fd5b50565b620006cd8162000662565b8114620006d957600080fd5b50565b611b9f80620006ec6000396000f3fe60806040526004361061008a5760003560e01c8063ac7d322e11610059578063ac7d322e1461011a578063b7d0428914610145578063ca628c7814610182578063faa9bce9146101ad578063fcd7e3c8146101c957610091565b80632b68b9c6146100965780633ccfd60b146100ad5780634093a52d146100c457806361d027b3146100ef57610091565b3661009157005b600080fd5b3480156100a257600080fd5b506100ab6101f4565b005b3480156100b957600080fd5b506100c26102bf565b005b3480156100d057600080fd5b506100d9610a2d565b6040516100e69190611988565b60405180910390f35b3480156100fb57600080fd5b50610104610a33565b6040516101119190611746565b60405180910390f35b34801561012657600080fd5b5061012f610a59565b60405161013c919061190b565b60405180910390f35b34801561015157600080fd5b5061016c6004803603810190610167919061148e565b610a6c565b6040516101799190611988565b60405180910390f35b34801561018e57600080fd5b50610197610c77565b6040516101a49190611746565b60405180910390f35b6101c760048036038101906101c29190611547565b610c9d565b005b3480156101d557600080fd5b506101de611138565b6040516101eb919061190b565b60405180910390f35b600160009054906101000a900473ffffffffffffffffffffffffffffffffffffffff1673ffffffffffffffffffffffffffffffffffffffff163373ffffffffffffffffffffffffffffffffffffffff1614610284576040517f08c379a000000000000000000000000000000000000000000000000000000000815260040161027b90611926565b60405180910390fd5b600160009054906101000a900473ffffffffffffffffffffffffffffffffffffffff1673ffffffffffffffffffffffffffffffffffffffff16ff5b4262278d00600354011115610309576040517f08c379a000000000000000000000000000000000000000000000000000000000815260040161030090611946565b60405180910390fd5b60001515600460149054906101000a900460ff1615151461032957600080fd5b6001600460146101000a81548160ff02191690831515021790555060008060009054906101000a900473ffffffffffffffffffffffffffffffffffffffff1673ffffffffffffffffffffffffffffffffffffffff16600260009054906101000a900473ffffffffffffffffffffffffffffffffffffffff1673ffffffffffffffffffffffffffffffffffffffff1614156107095760006007600a600554600d60009054906101000a900473ffffffffffffffffffffffffffffffffffffffff1673ffffffffffffffffffffffffffffffffffffffff166370a08231306040518263ffffffff1660e01b81526004016104219190611761565b60206040518083038186803b15801561043957600080fd5b505afa15801561044d573d6000803e3d6000fd5b505050506040513d601f19601f82011682018060405250810190610471919061151e565b038161047957fe5b0402600554019050600d60009054906101000a900473ffffffffffffffffffffffffffffffffffffffff1673ffffffffffffffffffffffffffffffffffffffff1663095ea7b3600860009054906101000a900473ffffffffffffffffffffffffffffffffffffffff16836040518363ffffffff1660e01b815260040161050092919061182f565b602060405180830381600087803b15801561051a57600080fd5b505af115801561052e573d6000803e3d6000fd5b505050506040513d601f19601f8201168201806040525081019061055291906114f5565b50600860009054906101000a900473ffffffffffffffffffffffffffffffffffffffff1673ffffffffffffffffffffffffffffffffffffffff166380500d20600760009054906101000a900473ffffffffffffffffffffffffffffffffffffffff1683306040518463ffffffff1660e01b81526004016105d49392919061188f565b600060405180830381600087803b1580156105ee57600080fd5b505af1158015610602573d6000803e3d6000fd5b50505050600460009054906101000a900473ffffffffffffffffffffffffffffffffffffffff1673ffffffffffffffffffffffffffffffffffffffff166108fc829081150290604051600060405180830381858888f1935050505015801561066e573d6000803e3d6000fd5b50600160009054906101000a900473ffffffffffffffffffffffffffffffffffffffff1673ffffffffffffffffffffffffffffffffffffffff166108fc7fffffffffffffffffffffffffffffffffffffffffffffffffffffffffffffffff9081150290604051600060405180830381858888f193505050501580156106f7573d6000803e3d6000fd5b508091506000600581905550506109d1565b600061071361114b565b905060006007600a6005548473ffffffffffffffffffffffffffffffffffffffff166370a08231306040518263ffffffff1660e01b81526004016107579190611761565b60206040518083038186803b15801561076f57600080fd5b505afa158015610783573d6000803e3d6000fd5b505050506040513d601f19601f820116820180604052508101906107a7919061151e565b03816107af57fe5b0402600554019050809250600760009054906101000a900473ffffffffffffffffffffffffffffffffffffffff1673ffffffffffffffffffffffffffffffffffffffff166369328dec600260009054906101000a900473ffffffffffffffffffffffffffffffffffffffff1683600460009054906101000a900473ffffffffffffffffffffffffffffffffffffffff166040518463ffffffff1660e01b815260040161085d93929190611858565b602060405180830381600087803b15801561087757600080fd5b505af115801561088b573d6000803e3d6000fd5b505050506040513d601f19601f820116820180604052508101906108af919061151e565b50600760009054906101000a900473ffffffffffffffffffffffffffffffffffffffff1673ffffffffffffffffffffffffffffffffffffffff166369328dec600260009054906101000a900473ffffffffffffffffffffffffffffffffffffffff167fffffffffffffffffffffffffffffffffffffffffffffffffffffffffffffffff600160009054906101000a900473ffffffffffffffffffffffffffffffffffffffff166040518463ffffffff1660e01b81526004016109739392919061188f565b602060405180830381600087803b15801561098d57600080fd5b505af11580156109a1573d6000803e3d6000fd5b505050506040513d601f19601f820116820180604052508101906109c5919061151e565b50600060058190555050505b426003819055506000600460146101000a81548160ff0219169083151502179055507f5b6b431d4476a211bb7d41c20d1aab9ae2321deee0d20be3d9fc9b1093fa6e3d81604051610a229190611988565b60405180910390a150565b60035481565b600460009054906101000a900473ffffffffffffffffffffffffffffffffffffffff1681565b600260159054906101000a900460ff1681565b60008084905060008054906101000a900473ffffffffffffffffffffffffffffffffffffffff1673ffffffffffffffffffffffffffffffffffffffff168573ffffffffffffffffffffffffffffffffffffffff1614610b76578073ffffffffffffffffffffffffffffffffffffffff1663095ea7b3600660009054906101000a900473ffffffffffffffffffffffffffffffffffffffff16856040518363ffffffff1660e01b8152600401610b2292919061182f565b602060405180830381600087803b158015610b3c57600080fd5b505af1158015610b50573d6000803e3d6000fd5b505050506040513d601f19601f82011682018060405250810190610b7491906114f5565b505b610b7e6113a1565b6040518060a001604052808681526020013073ffffffffffffffffffffffffffffffffffffffff16815260200142815260200185815260200160008152509050600660009054906101000a900473ffffffffffffffffffffffffffffffffffffffff1673ffffffffffffffffffffffffffffffffffffffff1663c04b8d5985836040518363ffffffff1660e01b8152600401610c1a9190611966565b6020604051808303818588803b158015610c3357600080fd5b505af1158015610c47573d6000803e3d6000fd5b50505050506040513d601f19601f82011682018060405250810190610c6c919061151e565b925050509392505050565b600260009054906101000a900473ffffffffffffffffffffffffffffffffffffffff1681565b60008273ffffffffffffffffffffffffffffffffffffffff1660008054906101000a900473ffffffffffffffffffffffffffffffffffffffff1673ffffffffffffffffffffffffffffffffffffffff1614610d895760008390508073ffffffffffffffffffffffffffffffffffffffff166323b872dd3330886040518463ffffffff1660e01b8152600401610d349392919061177c565b602060405180830381600087803b158015610d4e57600080fd5b505af1158015610d62573d6000803e3d6000fd5b505050506040513d601f19601f82011682018060405250810190610d8691906114f5565b50505b8273ffffffffffffffffffffffffffffffffffffffff16600260009054906101000a900473ffffffffffffffffffffffffffffffffffffffff1673ffffffffffffffffffffffffffffffffffffffff1614610e2257610e0b600260009054906101000a900473ffffffffffffffffffffffffffffffffffffffff168386610a6c565b905080600560008282540192505081905550610e33565b836005600082825401925050819055505b60008054906101000a900473ffffffffffffffffffffffffffffffffffffffff1673ffffffffffffffffffffffffffffffffffffffff16600260009054906101000a900473ffffffffffffffffffffffffffffffffffffffff1673ffffffffffffffffffffffffffffffffffffffff161415610f6657349350600860009054906101000a900473ffffffffffffffffffffffffffffffffffffffff1673ffffffffffffffffffffffffffffffffffffffff1663474cf53d47600760009054906101000a900473ffffffffffffffffffffffffffffffffffffffff163060006040518563ffffffff1660e01b8152600401610f2f939291906117f8565b6000604051808303818588803b158015610f4857600080fd5b505af1158015610f5c573d6000803e3d6000fd5b50505050506110f5565b6000600260009054906101000a900473ffffffffffffffffffffffffffffffffffffffff1690508073ffffffffffffffffffffffffffffffffffffffff1663095ea7b3600760009054906101000a900473ffffffffffffffffffffffffffffffffffffffff16876040518363ffffffff1660e01b8152600401610fea92919061182f565b602060405180830381600087803b15801561100457600080fd5b505af1158015611018573d6000803e3d6000fd5b505050506040513d601f19601f8201168201806040525081019061103c91906114f5565b50600760009054906101000a900473ffffffffffffffffffffffffffffffffffffffff1673ffffffffffffffffffffffffffffffffffffffff1663e8eda9df600260009054906101000a900473ffffffffffffffffffffffffffffffffffffffff16873060006040518563ffffffff1660e01b81526004016110c194939291906118c6565b600060405180830381600087803b1580156110db57600080fd5b505af11580156110ef573d6000803e3d6000fd5b50505050505b7fb4e90aede11d33584a87d3caf846b0dd4819cd78ff1a28d7c7ab93d01c9d03843385838660405161112a94939291906117b3565b60405180910390a150505050565b600260149054906101000a900460ff1681565b6000736b175474e89094c44da98b954eedeac495271d0f73ffffffffffffffffffffffffffffffffffffffff16600260009054906101000a900473ffffffffffffffffffffffffffffffffffffffff1673ffffffffffffffffffffffffffffffffffffffff1614156111e157600960009054906101000a900473ffffffffffffffffffffffffffffffffffffffff16905061139e565b73dac17f958d2ee523a2206206994597c13d831ec773ffffffffffffffffffffffffffffffffffffffff16600260009054906101000a900473ffffffffffffffffffffffffffffffffffffffff1673ffffffffffffffffffffffffffffffffffffffff16141561127557600b60009054906101000a900473ffffffffffffffffffffffffffffffffffffffff16905061139e565b73a0b86991c6218b36c1d19d4a2e9eb0ce3606eb4873ffffffffffffffffffffffffffffffffffffffff16600260009054906101000a900473ffffffffffffffffffffffffffffffffffffffff1673ffffffffffffffffffffffffffffffffffffffff16141561130957600a60009054906101000a900473ffffffffffffffffffffffffffffffffffffffff16905061139e565b732260fac5e5542a773aa44fbcfedf7c193bc2c59973ffffffffffffffffffffffffffffffffffffffff16600260009054906101000a900473ffffffffffffffffffffffffffffffffffffffff1673ffffffffffffffffffffffffffffffffffffffff16141561139d57600c60009054906101000a900473ffffffffffffffffffffffffffffffffffffffff16905061139e565b5b90565b6040518060a0016040528060608152602001600073ffffffffffffffffffffffffffffffffffffffff1681526020016000815260200160008152602001600081525090565b6000813590506113f581611b24565b92915050565b60008151905061140a81611b3b565b92915050565b600082601f83011261142157600080fd5b813561143461142f826119d4565b6119a3565b9150808252602083016020830185838301111561145057600080fd5b61145b838284611acf565b50505092915050565b60008135905061147381611b52565b92915050565b60008151905061148881611b52565b92915050565b6000806000606084860312156114a357600080fd5b60006114b1868287016113e6565b935050602084013567ffffffffffffffff8111156114ce57600080fd5b6114da86828701611410565b92505060406114eb86828701611464565b9150509250925092565b60006020828403121561150757600080fd5b6000611515848285016113fb565b91505092915050565b60006020828403121561153057600080fd5b600061153e84828501611479565b91505092915050565b60008060006060848603121561155c57600080fd5b600061156a86828701611464565b935050602061157b868287016113e6565b925050604084013567ffffffffffffffff81111561159857600080fd5b6115a486828701611410565b9150509250925092565b6115b781611a87565b82525050565b6115c681611a31565b82525050565b6115d581611a31565b82525050565b6115e481611a43565b82525050565b60006115f582611a04565b6115ff8185611a0f565b935061160f818560208601611ade565b61161881611b13565b840191505092915050565b61162c81611a99565b82525050565b600061163f600d83611a20565b91507f4e6f7420746865206f776e6572000000000000000000000000000000000000006000830152602082019050919050565b600061167f601583611a20565b91507f4e6f7420726561647920746f20776974686472617700000000000000000000006000830152602082019050919050565b600060a08301600083015184820360008601526116cf82826115ea565b91505060208301516116e460208601826115bd565b5060408301516116f76040860182611728565b50606083015161170a6060860182611728565b50608083015161171d6080860182611728565b508091505092915050565b61173181611a7d565b82525050565b61174081611a7d565b82525050565b600060208201905061175b60008301846115cc565b92915050565b600060208201905061177660008301846115ae565b92915050565b600060608201905061179160008301866115ae565b61179e60208301856115ae565b6117ab6040830184611737565b949350505050565b60006080820190506117c860008301876115ae565b6117d56020830186611737565b6117e26040830185611737565b6117ef60608301846115cc565b95945050505050565b600060608201905061180d60008301866115cc565b61181a60208301856115ae565b6118276040830184611623565b949350505050565b600060408201905061184460008301856115cc565b6118516020830184611737565b9392505050565b600060608201905061186d60008301866115cc565b61187a6020830185611737565b61188760408301846115cc565b949350505050565b60006060820190506118a460008301866115cc565b6118b16020830185611737565b6118be60408301846115ae565b949350505050565b60006080820190506118db60008301876115cc565b6118e86020830186611737565b6118f560408301856115ae565b6119026060830184611623565b95945050505050565b600060208201905061192060008301846115db565b92915050565b6000602082019050818103600083015261193f81611632565b9050919050565b6000602082019050818103600083015261195f81611672565b9050919050565b6000602082019050818103600083015261198081846116b2565b905092915050565b600060208201905061199d6000830184611737565b92915050565b6000604051905081810181811067ffffffffffffffff821117156119ca576119c9611b11565b5b8060405250919050565b600067ffffffffffffffff8211156119ef576119ee611b11565b5b601f19601f8301169050602081019050919050565b600081519050919050565b600082825260208201905092915050565b600082825260208201905092915050565b6000611a3c82611a5d565b9050919050565b60008115159050919050565b600061ffff82169050919050565b600073ffffffffffffffffffffffffffffffffffffffff82169050919050565b6000819050919050565b6000611a9282611aab565b9050919050565b6000611aa482611a4f565b9050919050565b6000611ab682611abd565b9050919050565b6000611ac882611a5d565b9050919050565b82818337600083830152505050565b60005b83811015611afc578082015181840152602081019050611ae1565b83811115611b0b576000848401525b50505050565bfe5b6000601f19601f8301169050919050565b611b2d81611a31565b8114611b3857600080fd5b50565b611b4481611a43565b8114611b4f57600080fd5b50565b611b5b81611a7d565b8114611b6657600080fd5b5056fea26469706673582212209c35275569dc351480a9129ee58d2464c85e28862f9c4715a6903c493e215a7864736f6c63430007050033",
  "linkReferences": {},
  "deployedLinkReferences": {}
}