{
  "_format": "hh-sol-artifact-1",
  "contractName": "JulzPay",
  "sourceName": "src/contracts/JulzPay.sol",
  "abi": [
    {
      "inputs": [
        {
          "internalType": "address payable",
          "name": "_owner",
          "type": "address"
        },
        {
          "internalType": "bool",
          "name": "_monthly",
          "type": "bool"
        },
        {
          "internalType": "bool",
          "name": "_covergas",
          "type": "bool"
        },
        {
          "internalType": "address",
          "name": "_treasury",
          "type": "address"
        },
        {
          "internalType": "address",
          "name": "_withdrawToken",
          "type": "address"
        },
        {
          "internalType": "address",
          "name": "_WETH_ADD",
          "type": "address"
        }
      ],
      "stateMutability": "payable",
      "type": "constructor"
    },
    {
      "anonymous": false,
      "inputs": [
        {
          "indexed": false,
          "internalType": "address",
          "name": "sender",
          "type": "address"
        },
        {
          "indexed": false,
          "internalType": "uint256",
          "name": "amountReceived",
          "type": "uint256"
        },
        {
          "indexed": false,
          "internalType": "uint256",
          "name": "amountDeposited",
          "type": "uint256"
        },
        {
          "indexed": false,
          "internalType": "address",
          "name": "token",
          "type": "address"
        }
      ],
      "name": "Paid",
      "type": "event"
    },
    {
      "inputs": [],
      "name": "covergas",
      "outputs": [
        {
          "internalType": "bool",
          "name": "",
          "type": "bool"
        }
      ],
      "stateMutability": "view",
      "type": "function"
    },
    {
      "inputs": [
        {
          "internalType": "uint256",
          "name": "_amount",
          "type": "uint256"
        },
        {
          "internalType": "address",
          "name": "_token",
          "type": "address"
        }
      ],
      "name": "deposit",
      "outputs": [],
      "stateMutability": "nonpayable",
      "type": "function"
    },
    {
      "inputs": [],
      "name": "destruct",
      "outputs": [],
      "stateMutability": "nonpayable",
      "type": "function"
    },
    {
      "inputs": [],
      "name": "lastWithdrawDate",
      "outputs": [
        {
          "internalType": "uint256",
          "name": "",
          "type": "uint256"
        }
      ],
      "stateMutability": "view",
      "type": "function"
    },
    {
      "inputs": [],
      "name": "monthly",
      "outputs": [
        {
          "internalType": "bool",
          "name": "",
          "type": "bool"
        }
      ],
      "stateMutability": "view",
      "type": "function"
    },
    {
      "inputs": [],
      "name": "treasury",
      "outputs": [
        {
          "internalType": "address",
          "name": "",
          "type": "address"
        }
      ],
      "stateMutability": "view",
      "type": "function"
    },
    {
      "inputs": [],
      "name": "withdraw",
      "outputs": [],
      "stateMutability": "nonpayable",
      "type": "function"
    },
    {
      "inputs": [],
      "name": "withdrawToken",
      "outputs": [
        {
          "internalType": "address",
          "name": "",
          "type": "address"
        }
      ],
      "stateMutability": "view",
      "type": "function"
    },
    {
      "stateMutability": "payable",
      "type": "receive"
    }
  ],
  "bytecode": "0x608060405273e592427a0aece92de3edee1f18e0157c05861564600560006101000a81548173ffffffffffffffffffffffffffffffffffffffff021916908373ffffffffffffffffffffffffffffffffffffffff1602179055506040516200128e3803806200128e83398181016040528101906200007e91906200020d565b85600160006101000a81548173ffffffffffffffffffffffffffffffffffffffff021916908373ffffffffffffffffffffffffffffffffffffffff16021790555084600260146101000a81548160ff02191690831515021790555083600260156101000a81548160ff02191690831515021790555081600260006101000a81548173ffffffffffffffffffffffffffffffffffffffff021916908373ffffffffffffffffffffffffffffffffffffffff1602179055504260038190555082600460006101000a81548173ffffffffffffffffffffffffffffffffffffffff021916908373ffffffffffffffffffffffffffffffffffffffff160217905550806000806101000a81548173ffffffffffffffffffffffffffffffffffffffff021916908373ffffffffffffffffffffffffffffffffffffffff16021790555050505050505062000345565b600081519050620001d981620002f7565b92915050565b600081519050620001f08162000311565b92915050565b60008151905062000207816200032b565b92915050565b60008060008060008060c087890312156200022757600080fd5b60006200023789828a01620001df565b96505060206200024a89828a01620001f6565b95505060406200025d89828a01620001f6565b94505060606200027089828a01620001c8565b93505060806200028389828a01620001c8565b92505060a06200029689828a01620001c8565b9150509295509295509295565b6000620002b082620002d7565b9050919050565b6000620002c482620002d7565b9050919050565b60008115159050919050565b600073ffffffffffffffffffffffffffffffffffffffff82169050919050565b6200030281620002a3565b81146200030e57600080fd5b50565b6200031c81620002b7565b81146200032857600080fd5b50565b6200033681620002cb565b81146200034257600080fd5b50565b610f3980620003556000396000f3fe60806040526004361061007f5760003560e01c80636e553f651161004e5780636e553f6514610219578063ac7d322e14610242578063ca628c781461026d578063fcd7e3c81461029857610190565b80632b68b9c6146101955780633ccfd60b146101ac5780634093a52d146101c357806361d027b3146101ee57610190565b366101905760008060009054906101000a900473ffffffffffffffffffffffffffffffffffffffff1690506000600260009054906101000a900473ffffffffffffffffffffffffffffffffffffffff1673ffffffffffffffffffffffffffffffffffffffff1660008054906101000a900473ffffffffffffffffffffffffffffffffffffffff1673ffffffffffffffffffffffffffffffffffffffff161461014f5761014c8260008054906101000a900473ffffffffffffffffffffffffffffffffffffffff16346102c3565b90505b7fb4e90aede11d33584a87d3caf846b0dd4819cd78ff1a28d7c7ab93d01c9d0384333483306040516101849493929190610c9c565b60405180910390a15050005b600080fd5b3480156101a157600080fd5b506101aa610527565b005b3480156101b857600080fd5b506101c16105f2565b005b3480156101cf57600080fd5b506101d8610704565b6040516101e59190610d87565b60405180910390f35b3480156101fa57600080fd5b5061020361070a565b6040516102109190610c05565b60405180910390f35b34801561022557600080fd5b50610240600480360381019061023b91906109a7565b610730565b005b34801561024e57600080fd5b50610257610870565b6040516102649190610d0a565b60405180910390f35b34801561027957600080fd5b50610282610883565b60405161028f9190610c05565b60405180910390f35b3480156102a457600080fd5b506102ad6108a9565b6040516102ba9190610d0a565b60405180910390f35b60008373ffffffffffffffffffffffffffffffffffffffff1663095ea7b3600560009054906101000a900473ffffffffffffffffffffffffffffffffffffffff16846040518363ffffffff1660e01b8152600401610322929190610ce1565b602060405180830381600087803b15801561033c57600080fd5b505af1158015610350573d6000803e3d6000fd5b505050506040513d601f19601f820116820180604052508101906103749190610955565b50606060405180604001604052808573ffffffffffffffffffffffffffffffffffffffff1673ffffffffffffffffffffffffffffffffffffffff168152602001600260009054906101000a900473ffffffffffffffffffffffffffffffffffffffff1673ffffffffffffffffffffffffffffffffffffffff1673ffffffffffffffffffffffffffffffffffffffff168152506040516020016104169190610bea565b604051602081830303815290604052905061042f6108bc565b6040518060a001604052808381526020013073ffffffffffffffffffffffffffffffffffffffff16815260200142815260200185815260200160008152509050600560009054906101000a900473ffffffffffffffffffffffffffffffffffffffff1673ffffffffffffffffffffffffffffffffffffffff1663c04b8d59826040518263ffffffff1660e01b81526004016104ca9190610d65565b602060405180830381600087803b1580156104e457600080fd5b505af11580156104f8573d6000803e3d6000fd5b505050506040513d601f19601f8201168201806040525081019061051c919061097e565b925050509392505050565b600160009054906101000a900473ffffffffffffffffffffffffffffffffffffffff1673ffffffffffffffffffffffffffffffffffffffff163373ffffffffffffffffffffffffffffffffffffffff16146105b7576040517f08c379a00000000000000000000000000000000000000000000000000000000081526004016105ae90610d25565b60405180910390fd5b600160009054906101000a900473ffffffffffffffffffffffffffffffffffffffff1673ffffffffffffffffffffffffffffffffffffffff16ff5b4262278d0060035401111561063c576040517f08c379a000000000000000000000000000000000000000000000000000000000815260040161063390610d45565b60405180910390fd5b60001515600460149054906101000a900460ff1615151461065c57600080fd5b6001600460146101000a81548160ff021916908315150217905550600460009054906101000a900473ffffffffffffffffffffffffffffffffffffffff1673ffffffffffffffffffffffffffffffffffffffff166108fc479081150290604051600060405180830381858888f193505050501580156106df573d6000803e3d6000fd5b50426003819055506000600460146101000a81548160ff021916908315150217905550565b60035481565b600460009054906101000a900473ffffffffffffffffffffffffffffffffffffffff1681565b60008190508073ffffffffffffffffffffffffffffffffffffffff166323b872dd3330866040518463ffffffff1660e01b815260040161077293929190610c20565b602060405180830381600087803b15801561078c57600080fd5b505af11580156107a0573d6000803e3d6000fd5b505050506040513d601f19601f820116820180604052508101906107c49190610955565b506000839050600260009054906101000a900473ffffffffffffffffffffffffffffffffffffffff1673ffffffffffffffffffffffffffffffffffffffff168373ffffffffffffffffffffffffffffffffffffffff161461082d5761082a8284866102c3565b90505b7fb4e90aede11d33584a87d3caf846b0dd4819cd78ff1a28d7c7ab93d01c9d0384338583866040516108629493929190610c57565b60405180910390a150505050565b600260159054906101000a900460ff1681565b600260009054906101000a900473ffffffffffffffffffffffffffffffffffffffff1681565b600260149054906101000a900460ff1681565b6040518060a0016040528060608152602001600073ffffffffffffffffffffffffffffffffffffffff1681526020016000815260200160008152602001600081525090565b60008135905061091081610ebe565b92915050565b60008151905061092581610ed5565b92915050565b60008135905061093a81610eec565b92915050565b60008151905061094f81610eec565b92915050565b60006020828403121561096757600080fd5b600061097584828501610916565b91505092915050565b60006020828403121561099057600080fd5b600061099e84828501610940565b91505092915050565b600080604083850312156109ba57600080fd5b60006109c88582860161092b565b92505060206109d985828601610901565b9150509250929050565b60006109ef8383610a28565b60208301905092915050565b610a0481610e44565b82525050565b610a1381610dfc565b82525050565b610a2281610dfc565b82525050565b610a3181610dfc565b82525050565b610a4081610dac565b610a4a8184610dcf565b9250610a5582610da2565b8060005b83811015610a86578151610a6d87826109e3565b9650610a7883610dc2565b925050600181019050610a59565b505050505050565b610a9781610e0e565b82525050565b6000610aa882610db7565b610ab28185610dda565b9350610ac2818560208601610e7a565b610acb81610ead565b840191505092915050565b6000610ae3600d83610deb565b91507f4e6f7420746865206f776e6572000000000000000000000000000000000000006000830152602082019050919050565b6000610b23601583610deb565b91507f4e6f7420726561647920746f20776974686472617700000000000000000000006000830152602082019050919050565b600060a0830160008301518482036000860152610b738282610a9d565b9150506020830151610b886020860182610a0a565b506040830151610b9b6040860182610bcc565b506060830151610bae6060860182610bcc565b506080830151610bc16080860182610bcc565b508091505092915050565b610bd581610e3a565b82525050565b610be481610e3a565b82525050565b6000610bf68284610a37565b60408201915081905092915050565b6000602082019050610c1a6000830184610a19565b92915050565b6000606082019050610c3560008301866109fb565b610c4260208301856109fb565b610c4f6040830184610bdb565b949350505050565b6000608082019050610c6c60008301876109fb565b610c796020830186610bdb565b610c866040830185610bdb565b610c936060830184610a19565b95945050505050565b6000608082019050610cb160008301876109fb565b610cbe6020830186610bdb565b610ccb6040830185610bdb565b610cd860608301846109fb565b95945050505050565b6000604082019050610cf66000830185610a19565b610d036020830184610bdb565b9392505050565b6000602082019050610d1f6000830184610a8e565b92915050565b60006020820190508181036000830152610d3e81610ad6565b9050919050565b60006020820190508181036000830152610d5e81610b16565b9050919050565b60006020820190508181036000830152610d7f8184610b56565b905092915050565b6000602082019050610d9c6000830184610bdb565b92915050565b6000819050919050565b600060029050919050565b600081519050919050565b6000602082019050919050565b600081905092915050565b600082825260208201905092915050565b600082825260208201905092915050565b6000610e0782610e1a565b9050919050565b60008115159050919050565b600073ffffffffffffffffffffffffffffffffffffffff82169050919050565b6000819050919050565b6000610e4f82610e56565b9050919050565b6000610e6182610e68565b9050919050565b6000610e7382610e1a565b9050919050565b60005b83811015610e98578082015181840152602081019050610e7d565b83811115610ea7576000848401525b50505050565b6000601f19601f8301169050919050565b610ec781610dfc565b8114610ed257600080fd5b50565b610ede81610e0e565b8114610ee957600080fd5b50565b610ef581610e3a565b8114610f0057600080fd5b5056fea2646970667358221220cbef81e354a06774e0ec636bd266243bf1a5af0dd2919b277d9f914169269c0064736f6c63430007050033",
  "linkReferences": {},
  "deployedLinkReferences": {}
}