{
  "_format": "hh-sol-artifact-1",
  "contractName": "JulzPay",
  "sourceName": "src/contracts/JulzPay.sol",
  "abi": [
    {
      "inputs": [
        {
          "internalType": "address payable",
          "name": "_owner",
          "type": "address"
        },
        {
          "internalType": "bool",
          "name": "_monthly",
          "type": "bool"
        },
        {
          "internalType": "bool",
          "name": "_covergas",
          "type": "bool"
        },
        {
          "internalType": "address",
          "name": "_treasury",
          "type": "address"
        }
      ],
      "stateMutability": "payable",
      "type": "constructor"
    },
    {
      "anonymous": false,
      "inputs": [
        {
          "indexed": false,
          "internalType": "address",
          "name": "",
          "type": "address"
        },
        {
          "indexed": false,
          "internalType": "uint256",
          "name": "",
          "type": "uint256"
        }
      ],
      "name": "Paid",
      "type": "event"
    },
    {
      "inputs": [
        {
          "internalType": "string",
          "name": "",
          "type": "string"
        }
      ],
      "name": "accepted",
      "outputs": [
        {
          "internalType": "bool",
          "name": "",
          "type": "bool"
        }
      ],
      "stateMutability": "view",
      "type": "function"
    },
    {
      "inputs": [],
      "name": "covergas",
      "outputs": [
        {
          "internalType": "bool",
          "name": "",
          "type": "bool"
        }
      ],
      "stateMutability": "view",
      "type": "function"
    },
    {
      "inputs": [],
      "name": "destruct",
      "outputs": [],
      "stateMutability": "nonpayable",
      "type": "function"
    },
    {
      "inputs": [],
      "name": "lastWithdrawDate",
      "outputs": [
        {
          "internalType": "uint256",
          "name": "",
          "type": "uint256"
        }
      ],
      "stateMutability": "view",
      "type": "function"
    },
    {
      "inputs": [],
      "name": "monthly",
      "outputs": [
        {
          "internalType": "bool",
          "name": "",
          "type": "bool"
        }
      ],
      "stateMutability": "view",
      "type": "function"
    },
    {
      "inputs": [
        {
          "internalType": "string",
          "name": "key",
          "type": "string"
        },
        {
          "internalType": "bool",
          "name": "_value",
          "type": "bool"
        }
      ],
      "name": "setAccepted",
      "outputs": [],
      "stateMutability": "nonpayable",
      "type": "function"
    },
    {
      "inputs": [],
      "name": "treasury",
      "outputs": [
        {
          "internalType": "address",
          "name": "",
          "type": "address"
        }
      ],
      "stateMutability": "view",
      "type": "function"
    },
    {
      "inputs": [],
      "name": "withdraw",
      "outputs": [],
      "stateMutability": "nonpayable",
      "type": "function"
    },
    {
      "stateMutability": "payable",
      "type": "receive"
    }
  ],
  "bytecode": "0x608060405260405162000c5438038062000c54833981810160405281019062000029919062000134565b836000806101000a81548173ffffffffffffffffffffffffffffffffffffffff021916908373ffffffffffffffffffffffffffffffffffffffff16021790555082600260006101000a81548160ff02191690831515021790555081600260016101000a81548160ff0219169083151502179055504260038190555080600460006101000a81548173ffffffffffffffffffffffffffffffffffffffff021916908373ffffffffffffffffffffffffffffffffffffffff160217905550505050506200024d565b6000815190506200010081620001ff565b92915050565b600081519050620001178162000219565b92915050565b6000815190506200012e8162000233565b92915050565b60008060008060808587031215620001515762000150620001fa565b5b6000620001618782880162000106565b945050602062000174878288016200011d565b935050604062000187878288016200011d565b92505060606200019a87828801620000ef565b91505092959194509250565b6000620001b382620001da565b9050919050565b6000620001c782620001da565b9050919050565b60008115159050919050565b600073ffffffffffffffffffffffffffffffffffffffff82169050919050565b600080fd5b6200020a81620001a6565b81146200021657600080fd5b50565b6200022481620001ba565b81146200023057600080fd5b50565b6200023e81620001ce565b81146200024a57600080fd5b50565b6109f7806200025d6000396000f3fe60806040526004361061007f5760003560e01c80636f68c2fc1161004e5780636f68c2fc14610148578063ac7d322e14610185578063b6afafe5146101b0578063fcd7e3c8146101d9576100bf565b80632b68b9c6146100c45780633ccfd60b146100db5780634093a52d146100f257806361d027b31461011d576100bf565b366100bf577f737c69225d647e5994eab1a6c301bf6d9232beb2759ae1e27a8966b4732bc48933346040516100b59291906106a8565b60405180910390a1005b600080fd5b3480156100d057600080fd5b506100d9610204565b005b3480156100e757600080fd5b506100f06102cb565b005b3480156100fe57600080fd5b506101076103e6565b604051610114919061072c565b60405180910390f35b34801561012957600080fd5b506101326103ec565b60405161013f919061068d565b60405180910390f35b34801561015457600080fd5b5061016f600480360381019061016a919061052d565b610412565b60405161017c91906106d1565b60405180910390f35b34801561019157600080fd5b5061019a610448565b6040516101a791906106d1565b60405180910390f35b3480156101bc57600080fd5b506101d760048036038101906101d29190610576565b61045b565b005b3480156101e557600080fd5b506101ee610495565b6040516101fb91906106d1565b60405180910390f35b60008054906101000a900473ffffffffffffffffffffffffffffffffffffffff1673ffffffffffffffffffffffffffffffffffffffff163373ffffffffffffffffffffffffffffffffffffffff1614610292576040517f08c379a0000000000000000000000000000000000000000000000000000000008152600401610289906106ec565b60405180910390fd5b60008054906101000a900473ffffffffffffffffffffffffffffffffffffffff1673ffffffffffffffffffffffffffffffffffffffff16ff5b4262278d006003546102dd91906107c4565b111561031e576040517f08c379a00000000000000000000000000000000000000000000000000000000081526004016103159061070c565b60405180910390fd5b60001515600460149054906101000a900460ff1615151461033e57600080fd5b6001600460146101000a81548160ff021916908315150217905550600460009054906101000a900473ffffffffffffffffffffffffffffffffffffffff1673ffffffffffffffffffffffffffffffffffffffff166108fc479081150290604051600060405180830381858888f193505050501580156103c1573d6000803e3d6000fd5b50426003819055506000600460146101000a81548160ff021916908315150217905550565b60035481565b600460009054906101000a900473ffffffffffffffffffffffffffffffffffffffff1681565b6001818051602081018201805184825260208301602085012081835280955050505050506000915054906101000a900460ff1681565b600260019054906101000a900460ff1681565b8060018360405161046c9190610676565b908152602001604051809103902060006101000a81548160ff0219169083151502179055505050565b600260009054906101000a900460ff1681565b60006104bb6104b68461076c565b610747565b9050828152602081018484840111156104d7576104d6610938565b5b6104e2848285610862565b509392505050565b6000813590506104f9816109aa565b92915050565b600082601f83011261051457610513610933565b5b81356105248482602086016104a8565b91505092915050565b60006020828403121561054357610542610942565b5b600082013567ffffffffffffffff8111156105615761056061093d565b5b61056d848285016104ff565b91505092915050565b6000806040838503121561058d5761058c610942565b5b600083013567ffffffffffffffff8111156105ab576105aa61093d565b5b6105b7858286016104ff565b92505060206105c8858286016104ea565b9150509250929050565b6105db8161081a565b82525050565b6105ea8161082c565b82525050565b60006105fb8261079d565b61060581856107b9565b9350610615818560208601610871565b80840191505092915050565b600061062e600d836107a8565b915061063982610958565b602082019050919050565b60006106516015836107a8565b915061065c82610981565b602082019050919050565b61067081610858565b82525050565b600061068282846105f0565b915081905092915050565b60006020820190506106a260008301846105d2565b92915050565b60006040820190506106bd60008301856105d2565b6106ca6020830184610667565b9392505050565b60006020820190506106e660008301846105e1565b92915050565b6000602082019050818103600083015261070581610621565b9050919050565b6000602082019050818103600083015261072581610644565b9050919050565b60006020820190506107416000830184610667565b92915050565b6000610751610762565b905061075d82826108a4565b919050565b6000604051905090565b600067ffffffffffffffff82111561078757610786610904565b5b61079082610947565b9050602081019050919050565b600081519050919050565b600082825260208201905092915050565b600081905092915050565b60006107cf82610858565b91506107da83610858565b9250827fffffffffffffffffffffffffffffffffffffffffffffffffffffffffffffffff0382111561080f5761080e6108d5565b5b828201905092915050565b600061082582610838565b9050919050565b60008115159050919050565b600073ffffffffffffffffffffffffffffffffffffffff82169050919050565b6000819050919050565b82818337600083830152505050565b60005b8381101561088f578082015181840152602081019050610874565b8381111561089e576000848401525b50505050565b6108ad82610947565b810181811067ffffffffffffffff821117156108cc576108cb610904565b5b80604052505050565b7f4e487b7100000000000000000000000000000000000000000000000000000000600052601160045260246000fd5b7f4e487b7100000000000000000000000000000000000000000000000000000000600052604160045260246000fd5b600080fd5b600080fd5b600080fd5b600080fd5b6000601f19601f8301169050919050565b7f4e6f7420746865206f776e657200000000000000000000000000000000000000600082015250565b7f4e6f7420726561647920746f2077697468647261770000000000000000000000600082015250565b6109b38161082c565b81146109be57600080fd5b5056fea2646970667358221220313f780112b5eaad46244cb155c7a189097d722f00d8849b42cfd3cff616c37764736f6c63430008070033",
  "linkReferences": {},
  "deployedLinkReferences": {}
}