{
  "_format": "hh-sol-artifact-1",
  "contractName": "JulzPay",
  "sourceName": "src/contracts/JulzPay.sol",
  "abi": [
    {
      "inputs": [
        {
          "internalType": "address payable",
          "name": "_owner",
          "type": "address"
        },
        {
          "internalType": "bool",
          "name": "_monthly",
          "type": "bool"
        },
        {
          "internalType": "bool",
          "name": "_covergas",
          "type": "bool"
        },
        {
          "internalType": "address",
          "name": "_treasury",
          "type": "address"
        },
        {
          "internalType": "address",
          "name": "_withdrawToken",
          "type": "address"
        },
        {
          "internalType": "address",
          "name": "_WETH_ADD",
          "type": "address"
        }
      ],
      "stateMutability": "payable",
      "type": "constructor"
    },
    {
      "anonymous": false,
      "inputs": [
        {
          "indexed": false,
          "internalType": "address",
          "name": "sender",
          "type": "address"
        },
        {
          "indexed": false,
          "internalType": "uint256",
          "name": "amountReceived",
          "type": "uint256"
        },
        {
          "indexed": false,
          "internalType": "uint256",
          "name": "amountDeposited",
          "type": "uint256"
        },
        {
          "indexed": false,
          "internalType": "address",
          "name": "token",
          "type": "address"
        }
      ],
      "name": "Paid",
      "type": "event"
    },
    {
      "inputs": [],
      "name": "covergas",
      "outputs": [
        {
          "internalType": "bool",
          "name": "",
          "type": "bool"
        }
      ],
      "stateMutability": "view",
      "type": "function"
    },
    {
      "inputs": [
        {
          "internalType": "uint256",
          "name": "_amount",
          "type": "uint256"
        },
        {
          "internalType": "address",
          "name": "_token",
          "type": "address"
        }
      ],
      "name": "deposit",
      "outputs": [],
      "stateMutability": "payable",
      "type": "function"
    },
    {
      "inputs": [],
      "name": "destruct",
      "outputs": [],
      "stateMutability": "nonpayable",
      "type": "function"
    },
    {
      "inputs": [],
      "name": "lastWithdrawDate",
      "outputs": [
        {
          "internalType": "uint256",
          "name": "",
          "type": "uint256"
        }
      ],
      "stateMutability": "view",
      "type": "function"
    },
    {
      "inputs": [],
      "name": "monthly",
      "outputs": [
        {
          "internalType": "bool",
          "name": "",
          "type": "bool"
        }
      ],
      "stateMutability": "view",
      "type": "function"
    },
    {
      "inputs": [
        {
          "internalType": "address",
          "name": "_token",
          "type": "address"
        },
        {
          "internalType": "bytes",
          "name": "path",
          "type": "bytes"
        }
      ],
      "name": "swap",
      "outputs": [
        {
          "internalType": "uint256",
          "name": "result",
          "type": "uint256"
        }
      ],
      "stateMutability": "nonpayable",
      "type": "function"
    },
    {
      "inputs": [],
      "name": "treasury",
      "outputs": [
        {
          "internalType": "address",
          "name": "",
          "type": "address"
        }
      ],
      "stateMutability": "view",
      "type": "function"
    },
    {
      "inputs": [],
      "name": "withdraw",
      "outputs": [],
      "stateMutability": "nonpayable",
      "type": "function"
    },
    {
      "inputs": [],
      "name": "withdrawToken",
      "outputs": [
        {
          "internalType": "address",
          "name": "",
          "type": "address"
        }
      ],
      "stateMutability": "view",
      "type": "function"
    },
    {
      "stateMutability": "payable",
      "type": "receive"
    }
  ],
  "bytecode": "0x608060405273e592427a0aece92de3edee1f18e0157c05861564600660006101000a81548173ffffffffffffffffffffffffffffffffffffffff021916908373ffffffffffffffffffffffffffffffffffffffff160217905550737d2768de32b0b80b7a3454c06bdac94a69ddc7a9600760006101000a81548173ffffffffffffffffffffffffffffffffffffffff021916908373ffffffffffffffffffffffffffffffffffffffff16021790555073dcd33426ba191383f1c9b431a342498fdac73488600860006101000a81548173ffffffffffffffffffffffffffffffffffffffff021916908373ffffffffffffffffffffffffffffffffffffffff16021790555073028171bca77440897b824ca71d1c56cac55b68a3600960006101000a81548173ffffffffffffffffffffffffffffffffffffffff021916908373ffffffffffffffffffffffffffffffffffffffff16021790555073a0b86991c6218b36c1d19d4a2e9eb0ce3606eb48600a60006101000a81548173ffffffffffffffffffffffffffffffffffffffff021916908373ffffffffffffffffffffffffffffffffffffffff16021790555073dac17f958d2ee523a2206206994597c13d831ec7600b60006101000a81548173ffffffffffffffffffffffffffffffffffffffff021916908373ffffffffffffffffffffffffffffffffffffffff160217905550732260fac5e5542a773aa44fbcfedf7c193bc2c599600c60006101000a81548173ffffffffffffffffffffffffffffffffffffffff021916908373ffffffffffffffffffffffffffffffffffffffff16021790555073030ba81f1c18d280636f32af80b9aad02cf0854e600d60006101000a81548173ffffffffffffffffffffffffffffffffffffffff021916908373ffffffffffffffffffffffffffffffffffffffff16021790555060405162001a6038038062001a608339818101604052810190620002d191906200052f565b8480620002e9575084158015620002e85750600034115b5b6200032b576040517f08c379a0000000000000000000000000000000000000000000000000000000008152600401620003229062000607565b60405180910390fd5b85600160006101000a81548173ffffffffffffffffffffffffffffffffffffffff021916908373ffffffffffffffffffffffffffffffffffffffff16021790555084600260146101000a81548160ff02191690831515021790555083600260156101000a81548160ff02191690831515021790555081600260006101000a81548173ffffffffffffffffffffffffffffffffffffffff021916908373ffffffffffffffffffffffffffffffffffffffff1602179055504260038190555082600460006101000a81548173ffffffffffffffffffffffffffffffffffffffff021916908373ffffffffffffffffffffffffffffffffffffffff160217905550806000806101000a81548173ffffffffffffffffffffffffffffffffffffffff021916908373ffffffffffffffffffffffffffffffffffffffff1602179055506000341115620004de57600160009054906101000a900473ffffffffffffffffffffffffffffffffffffffff1673ffffffffffffffffffffffffffffffffffffffff166108fc479081150290604051600060405180830381858888f19350505050158015620004dc573d6000803e3d6000fd5b505b505050505050620006dc565b600081519050620004fb816200068e565b92915050565b6000815190506200051281620006a8565b92915050565b6000815190506200052981620006c2565b92915050565b60008060008060008060c087890312156200054957600080fd5b60006200055989828a0162000501565b96505060206200056c89828a0162000518565b95505060406200057f89828a0162000518565b94505060606200059289828a01620004ea565b9350506080620005a589828a01620004ea565b92505060a0620005b889828a01620004ea565b9150509295509295509295565b6000620005d460148362000629565b91507f4e6f742066756e64656420636f72726563746c790000000000000000000000006000830152602082019050919050565b600060208201905081810360008301526200062281620005c5565b9050919050565b600082825260208201905092915050565b600062000647826200066e565b9050919050565b60006200065b826200066e565b9050919050565b60008115159050919050565b600073ffffffffffffffffffffffffffffffffffffffff82169050919050565b62000699816200063a565b8114620006a557600080fd5b50565b620006b3816200064e565b8114620006bf57600080fd5b50565b620006cd8162000662565b8114620006d957600080fd5b50565b61137480620006ec6000396000f3fe60806040526004361061008a5760003560e01c80636e553f65116100595780636e553f651461011a578063ac7d322e14610136578063ca628c7814610161578063e35473351461018c578063fcd7e3c8146101c957610091565b80632b68b9c6146100965780633ccfd60b146100ad5780634093a52d146100c457806361d027b3146100ef57610091565b3661009157005b600080fd5b3480156100a257600080fd5b506100ab6101f4565b005b3480156100b957600080fd5b506100c26102bf565b005b3480156100d057600080fd5b506100d96103d1565b6040516100e6919061115d565b60405180910390f35b3480156100fb57600080fd5b506101046103d7565b6040516101119190610f89565b60405180910390f35b610134600480360381019061012f9190610db5565b6103fd565b005b34801561014257600080fd5b5061014b61073a565b60405161015891906110e0565b60405180910390f35b34801561016d57600080fd5b5061017661074d565b6040516101839190610f89565b60405180910390f35b34801561019857600080fd5b506101b360048036038101906101ae9190610d0f565b610773565b6040516101c0919061115d565b60405180910390f35b3480156101d557600080fd5b506101de610adf565b6040516101eb91906110e0565b60405180910390f35b600160009054906101000a900473ffffffffffffffffffffffffffffffffffffffff1673ffffffffffffffffffffffffffffffffffffffff163373ffffffffffffffffffffffffffffffffffffffff1614610284576040517f08c379a000000000000000000000000000000000000000000000000000000000815260040161027b906110fb565b60405180910390fd5b600160009054906101000a900473ffffffffffffffffffffffffffffffffffffffff1673ffffffffffffffffffffffffffffffffffffffff16ff5b4262278d00600354011115610309576040517f08c379a00000000000000000000000000000000000000000000000000000000081526004016103009061111b565b60405180910390fd5b60001515600460149054906101000a900460ff1615151461032957600080fd5b6001600460146101000a81548160ff021916908315150217905550600460009054906101000a900473ffffffffffffffffffffffffffffffffffffffff1673ffffffffffffffffffffffffffffffffffffffff166108fc479081150290604051600060405180830381858888f193505050501580156103ac573d6000803e3d6000fd5b50426003819055506000600460146101000a81548160ff021916908315150217905550565b60035481565b600460009054906101000a900473ffffffffffffffffffffffffffffffffffffffff1681565b8160056000828254019250508190555060008054906101000a900473ffffffffffffffffffffffffffffffffffffffff1673ffffffffffffffffffffffffffffffffffffffff168173ffffffffffffffffffffffffffffffffffffffff16141561051e57349150600860009054906101000a900473ffffffffffffffffffffffffffffffffffffffff1673ffffffffffffffffffffffffffffffffffffffff1663474cf53d47600760009054906101000a900473ffffffffffffffffffffffffffffffffffffffff163060006040518563ffffffff1660e01b81526004016104e79392919061103b565b6000604051808303818588803b15801561050057600080fd5b505af1158015610514573d6000803e3d6000fd5b50505050506106f9565b60008190508073ffffffffffffffffffffffffffffffffffffffff166323b872dd3330866040518463ffffffff1660e01b815260040161056093929190610fbf565b602060405180830381600087803b15801561057a57600080fd5b505af115801561058e573d6000803e3d6000fd5b505050506040513d601f19601f820116820180604052508101906105b29190610d63565b508073ffffffffffffffffffffffffffffffffffffffff1663095ea7b3600760009054906101000a900473ffffffffffffffffffffffffffffffffffffffff16856040518363ffffffff1660e01b8152600401610610929190611072565b602060405180830381600087803b15801561062a57600080fd5b505af115801561063e573d6000803e3d6000fd5b505050506040513d601f19601f820116820180604052508101906106629190610d63565b50600760009054906101000a900473ffffffffffffffffffffffffffffffffffffffff1673ffffffffffffffffffffffffffffffffffffffff1663e8eda9df83853060006040518563ffffffff1660e01b81526004016106c5949392919061109b565b600060405180830381600087803b1580156106df57600080fd5b505af11580156106f3573d6000803e3d6000fd5b50505050505b7fb4e90aede11d33584a87d3caf846b0dd4819cd78ff1a28d7c7ab93d01c9d03843383848460405161072e9493929190610ff6565b60405180910390a15050565b600260159054906101000a900460ff1681565b600260009054906101000a900473ffffffffffffffffffffffffffffffffffffffff1681565b6000806000905060008054906101000a900473ffffffffffffffffffffffffffffffffffffffff1673ffffffffffffffffffffffffffffffffffffffff168473ffffffffffffffffffffffffffffffffffffffff1614156107d6574790506109df565b60008490506108a26040518060400160405280601081526020017f62616c616e6365206f6e207468696e67000000000000000000000000000000008152508273ffffffffffffffffffffffffffffffffffffffff166370a08231306040518263ffffffff1660e01b815260040161084d9190610fa4565b60206040518083038186803b15801561086557600080fd5b505afa158015610879573d6000803e3d6000fd5b505050506040513d601f19601f8201168201806040525081019061089d9190610d8c565b610af2565b8073ffffffffffffffffffffffffffffffffffffffff166370a08231306040518263ffffffff1660e01b81526004016108db9190610fa4565b60206040518083038186803b1580156108f357600080fd5b505afa158015610907573d6000803e3d6000fd5b505050506040513d601f19601f8201168201806040525081019061092b9190610d8c565b91508073ffffffffffffffffffffffffffffffffffffffff1663095ea7b3600660009054906101000a900473ffffffffffffffffffffffffffffffffffffffff16846040518363ffffffff1660e01b815260040161098a929190611072565b602060405180830381600087803b1580156109a457600080fd5b505af11580156109b8573d6000803e3d6000fd5b505050506040513d601f19601f820116820180604052508101906109dc9190610d63565b50505b6109e7610c22565b6040518060a001604052808581526020013073ffffffffffffffffffffffffffffffffffffffff16815260200142815260200183815260200160008152509050600660009054906101000a900473ffffffffffffffffffffffffffffffffffffffff1673ffffffffffffffffffffffffffffffffffffffff1663c04b8d5983836040518363ffffffff1660e01b8152600401610a83919061113b565b6020604051808303818588803b158015610a9c57600080fd5b505af1158015610ab0573d6000803e3d6000fd5b50505050506040513d601f19601f82011682018060405250810190610ad59190610d8c565b9250505092915050565b600260149054906101000a900460ff1681565b610bf582826040516024018080602001838152602001828103825284818151815260200191508051906020019080838360005b83811015610b40578082015181840152602081019050610b25565b50505050905090810190601f168015610b6d5780820380516001836020036101000a031916815260200191505b5093505050506040516020818303038152906040527f9710a9d0000000000000000000000000000000000000000000000000000000007bffffffffffffffffffffffffffffffffffffffffffffffffffffffff19166020820180517bffffffffffffffffffffffffffffffffffffffffffffffffffffffff8381831617835250505050610bf9565b5050565b60008151905060006a636f6e736f6c652e6c6f679050602083016000808483855afa5050505050565b6040518060a0016040528060608152602001600073ffffffffffffffffffffffffffffffffffffffff1681526020016000815260200160008152602001600081525090565b600081359050610c76816112f9565b92915050565b600081519050610c8b81611310565b92915050565b600082601f830112610ca257600080fd5b8135610cb5610cb0826111a9565b611178565b91508082526020830160208301858383011115610cd157600080fd5b610cdc8382846112a4565b50505092915050565b600081359050610cf481611327565b92915050565b600081519050610d0981611327565b92915050565b60008060408385031215610d2257600080fd5b6000610d3085828601610c67565b925050602083013567ffffffffffffffff811115610d4d57600080fd5b610d5985828601610c91565b9150509250929050565b600060208284031215610d7557600080fd5b6000610d8384828501610c7c565b91505092915050565b600060208284031215610d9e57600080fd5b6000610dac84828501610cfa565b91505092915050565b60008060408385031215610dc857600080fd5b6000610dd685828601610ce5565b9250506020610de785828601610c67565b9150509250929050565b610dfa8161125c565b82525050565b610e0981611206565b82525050565b610e1881611206565b82525050565b610e2781611218565b82525050565b6000610e38826111d9565b610e4281856111e4565b9350610e528185602086016112b3565b610e5b816112e8565b840191505092915050565b610e6f8161126e565b82525050565b6000610e82600d836111f5565b91507f4e6f7420746865206f776e6572000000000000000000000000000000000000006000830152602082019050919050565b6000610ec26015836111f5565b91507f4e6f7420726561647920746f20776974686472617700000000000000000000006000830152602082019050919050565b600060a0830160008301518482036000860152610f128282610e2d565b9150506020830151610f276020860182610e00565b506040830151610f3a6040860182610f6b565b506060830151610f4d6060860182610f6b565b506080830151610f606080860182610f6b565b508091505092915050565b610f7481611252565b82525050565b610f8381611252565b82525050565b6000602082019050610f9e6000830184610e0f565b92915050565b6000602082019050610fb96000830184610df1565b92915050565b6000606082019050610fd46000830186610df1565b610fe16020830185610df1565b610fee6040830184610f7a565b949350505050565b600060808201905061100b6000830187610df1565b6110186020830186610f7a565b6110256040830185610f7a565b6110326060830184610e0f565b95945050505050565b60006060820190506110506000830186610e0f565b61105d6020830185610df1565b61106a6040830184610e66565b949350505050565b60006040820190506110876000830185610e0f565b6110946020830184610f7a565b9392505050565b60006080820190506110b06000830187610e0f565b6110bd6020830186610f7a565b6110ca6040830185610df1565b6110d76060830184610e66565b95945050505050565b60006020820190506110f56000830184610e1e565b92915050565b6000602082019050818103600083015261111481610e75565b9050919050565b6000602082019050818103600083015261113481610eb5565b9050919050565b600060208201905081810360008301526111558184610ef5565b905092915050565b60006020820190506111726000830184610f7a565b92915050565b6000604051905081810181811067ffffffffffffffff8211171561119f5761119e6112e6565b5b8060405250919050565b600067ffffffffffffffff8211156111c4576111c36112e6565b5b601f19601f8301169050602081019050919050565b600081519050919050565b600082825260208201905092915050565b600082825260208201905092915050565b600061121182611232565b9050919050565b60008115159050919050565b600061ffff82169050919050565b600073ffffffffffffffffffffffffffffffffffffffff82169050919050565b6000819050919050565b600061126782611280565b9050919050565b600061127982611224565b9050919050565b600061128b82611292565b9050919050565b600061129d82611232565b9050919050565b82818337600083830152505050565b60005b838110156112d15780820151818401526020810190506112b6565b838111156112e0576000848401525b50505050565bfe5b6000601f19601f8301169050919050565b61130281611206565b811461130d57600080fd5b50565b61131981611218565b811461132457600080fd5b50565b61133081611252565b811461133b57600080fd5b5056fea2646970667358221220b2042395d2a885116759cd9bda7570da151fc63c9fd056013ce4df54bf19c24c64736f6c63430007050033",
  "linkReferences": {},
  "deployedLinkReferences": {}
}