{
  "_format": "hh-sol-artifact-1",
  "contractName": "JulzPay",
  "sourceName": "src/contracts/JulzPay.sol",
  "abi": [
    {
      "inputs": [
        {
          "internalType": "address payable",
          "name": "_owner",
          "type": "address"
        },
        {
          "internalType": "bool",
          "name": "_monthly",
          "type": "bool"
        },
        {
          "internalType": "bool",
          "name": "_covergas",
          "type": "bool"
        },
        {
          "internalType": "address",
          "name": "_treasury",
          "type": "address"
        },
        {
          "internalType": "address",
          "name": "_withdrawToken",
          "type": "address"
        }
      ],
      "stateMutability": "payable",
      "type": "constructor"
    },
    {
      "anonymous": false,
      "inputs": [
        {
          "indexed": false,
          "internalType": "address",
          "name": "",
          "type": "address"
        },
        {
          "indexed": false,
          "internalType": "uint256",
          "name": "",
          "type": "uint256"
        }
      ],
      "name": "Paid",
      "type": "event"
    },
    {
      "inputs": [],
      "name": "covergas",
      "outputs": [
        {
          "internalType": "bool",
          "name": "",
          "type": "bool"
        }
      ],
      "stateMutability": "view",
      "type": "function"
    },
    {
      "inputs": [],
      "name": "destruct",
      "outputs": [],
      "stateMutability": "nonpayable",
      "type": "function"
    },
    {
      "inputs": [],
      "name": "lastWithdrawDate",
      "outputs": [
        {
          "internalType": "uint256",
          "name": "",
          "type": "uint256"
        }
      ],
      "stateMutability": "view",
      "type": "function"
    },
    {
      "inputs": [],
      "name": "monthly",
      "outputs": [
        {
          "internalType": "bool",
          "name": "",
          "type": "bool"
        }
      ],
      "stateMutability": "view",
      "type": "function"
    },
    {
      "inputs": [],
      "name": "treasury",
      "outputs": [
        {
          "internalType": "address",
          "name": "",
          "type": "address"
        }
      ],
      "stateMutability": "view",
      "type": "function"
    },
    {
      "inputs": [],
      "name": "withdraw",
      "outputs": [],
      "stateMutability": "nonpayable",
      "type": "function"
    },
    {
      "inputs": [],
      "name": "withdrawToken",
      "outputs": [
        {
          "internalType": "contract IERC20",
          "name": "",
          "type": "address"
        }
      ],
      "stateMutability": "view",
      "type": "function"
    },
    {
      "stateMutability": "payable",
      "type": "receive"
    }
  ],
  "bytecode": "0x608060405260405161091e38038061091e8339818101604052810190610025919061016b565b846000806101000a81548173ffffffffffffffffffffffffffffffffffffffff021916908373ffffffffffffffffffffffffffffffffffffffff16021790555083600160146101000a81548160ff02191690831515021790555082600160156101000a81548160ff02191690831515021790555080600160006101000a81548173ffffffffffffffffffffffffffffffffffffffff021916908373ffffffffffffffffffffffffffffffffffffffff1602179055504260028190555081600360006101000a81548173ffffffffffffffffffffffffffffffffffffffff021916908373ffffffffffffffffffffffffffffffffffffffff1602179055505050505050610277565b60008151905061013b81610232565b92915050565b60008151905061015081610249565b92915050565b60008151905061016581610260565b92915050565b600080600080600060a0868803121561018357600080fd5b600061019188828901610141565b95505060206101a288828901610156565b94505060406101b388828901610156565b93505060606101c48882890161012c565b92505060806101d58882890161012c565b9150509295509295909350565b60006101ed82610212565b9050919050565b60006101ff82610212565b9050919050565b60008115159050919050565b600073ffffffffffffffffffffffffffffffffffffffff82169050919050565b61023b816101e2565b811461024657600080fd5b50565b610252816101f4565b811461025d57600080fd5b50565b61026981610206565b811461027457600080fd5b50565b610698806102866000396000f3fe6080604052600436106100745760003560e01c806361d027b31161004e57806361d027b314610112578063ac7d322e1461013d578063ca628c7814610168578063fcd7e3c814610193576100b4565b80632b68b9c6146100b95780633ccfd60b146100d05780634093a52d146100e7576100b4565b366100b4577f737c69225d647e5994eab1a6c301bf6d9232beb2759ae1e27a8966b4732bc48933346040516100aa9291906104f5565b60405180910390a1005b600080fd5b3480156100c557600080fd5b506100ce6101be565b005b3480156100dc57600080fd5b506100e5610285565b005b3480156100f357600080fd5b506100fc610397565b6040516101099190610594565b60405180910390f35b34801561011e57600080fd5b5061012761039d565b60405161013491906104da565b60405180910390f35b34801561014957600080fd5b506101526103c3565b60405161015f919061051e565b60405180910390f35b34801561017457600080fd5b5061017d6103d6565b60405161018a9190610539565b60405180910390f35b34801561019f57600080fd5b506101a86103fc565b6040516101b5919061051e565b60405180910390f35b60008054906101000a900473ffffffffffffffffffffffffffffffffffffffff1673ffffffffffffffffffffffffffffffffffffffff163373ffffffffffffffffffffffffffffffffffffffff161461024c576040517f08c379a000000000000000000000000000000000000000000000000000000000815260040161024390610554565b60405180910390fd5b60008054906101000a900473ffffffffffffffffffffffffffffffffffffffff1673ffffffffffffffffffffffffffffffffffffffff16ff5b4262278d006002540111156102cf576040517f08c379a00000000000000000000000000000000000000000000000000000000081526004016102c690610574565b60405180910390fd5b60001515600360149054906101000a900460ff161515146102ef57600080fd5b6001600360146101000a81548160ff021916908315150217905550600360009054906101000a900473ffffffffffffffffffffffffffffffffffffffff1673ffffffffffffffffffffffffffffffffffffffff166108fc479081150290604051600060405180830381858888f19350505050158015610372573d6000803e3d6000fd5b50426002819055506000600360146101000a81548160ff021916908315150217905550565b60025481565b600360009054906101000a900473ffffffffffffffffffffffffffffffffffffffff1681565b600160159054906101000a900460ff1681565b600160009054906101000a900473ffffffffffffffffffffffffffffffffffffffff1681565b600160149054906101000a900460ff1681565b61041881610608565b82525050565b610427816105c0565b82525050565b610436816105d2565b82525050565b6104458161061a565b82525050565b6000610458600d836105af565b91507f4e6f7420746865206f776e6572000000000000000000000000000000000000006000830152602082019050919050565b60006104986015836105af565b91507f4e6f7420726561647920746f20776974686472617700000000000000000000006000830152602082019050919050565b6104d4816105fe565b82525050565b60006020820190506104ef600083018461041e565b92915050565b600060408201905061050a600083018561040f565b61051760208301846104cb565b9392505050565b6000602082019050610533600083018461042d565b92915050565b600060208201905061054e600083018461043c565b92915050565b6000602082019050818103600083015261056d8161044b565b9050919050565b6000602082019050818103600083015261058d8161048b565b9050919050565b60006020820190506105a960008301846104cb565b92915050565b600082825260208201905092915050565b60006105cb826105de565b9050919050565b60008115159050919050565b600073ffffffffffffffffffffffffffffffffffffffff82169050919050565b6000819050919050565b60006106138261063e565b9050919050565b60006106258261062c565b9050919050565b6000610637826105de565b9050919050565b600061064982610650565b9050919050565b600061065b826105de565b905091905056fea2646970667358221220b1ccde2113c84a27694a210a4b40f15abdf63fe6390b1b45e0fd32ebb7ecd26e64736f6c63430007050033",
  "linkReferences": {},
  "deployedLinkReferences": {}
}