{
  "_format": "hh-sol-artifact-1",
  "contractName": "JulzPay",
  "sourceName": "src/contracts/JulzPay.sol",
  "abi": [
    {
      "inputs": [
        {
          "internalType": "address payable",
          "name": "_owner",
          "type": "address"
        },
        {
          "internalType": "bool",
          "name": "_monthly",
          "type": "bool"
        },
        {
          "internalType": "bool",
          "name": "_covergas",
          "type": "bool"
        },
        {
          "internalType": "address",
          "name": "_treasury",
          "type": "address"
        }
      ],
      "stateMutability": "payable",
      "type": "constructor"
    },
    {
      "anonymous": false,
      "inputs": [
        {
          "indexed": false,
          "internalType": "address",
          "name": "",
          "type": "address"
        },
        {
          "indexed": false,
          "internalType": "uint256",
          "name": "",
          "type": "uint256"
        }
      ],
      "name": "Paid",
      "type": "event"
    },
    {
      "inputs": [],
      "name": "covergas",
      "outputs": [
        {
          "internalType": "bool",
          "name": "",
          "type": "bool"
        }
      ],
      "stateMutability": "view",
      "type": "function"
    },
    {
      "inputs": [],
      "name": "destruct",
      "outputs": [],
      "stateMutability": "nonpayable",
      "type": "function"
    },
    {
      "inputs": [],
      "name": "lastWithdrawDate",
      "outputs": [
        {
          "internalType": "uint256",
          "name": "",
          "type": "uint256"
        }
      ],
      "stateMutability": "view",
      "type": "function"
    },
    {
      "inputs": [],
      "name": "monthly",
      "outputs": [
        {
          "internalType": "bool",
          "name": "",
          "type": "bool"
        }
      ],
      "stateMutability": "view",
      "type": "function"
    },
    {
      "inputs": [
        {
          "internalType": "string",
          "name": "key",
          "type": "string"
        },
        {
          "internalType": "bool",
          "name": "_value",
          "type": "bool"
        }
      ],
      "name": "setAccepted",
      "outputs": [],
      "stateMutability": "nonpayable",
      "type": "function"
    },
    {
      "inputs": [],
      "name": "treasury",
      "outputs": [
        {
          "internalType": "address",
          "name": "",
          "type": "address"
        }
      ],
      "stateMutability": "view",
      "type": "function"
    },
    {
      "inputs": [],
      "name": "withdraw",
      "outputs": [],
      "stateMutability": "nonpayable",
      "type": "function"
    },
    {
      "stateMutability": "payable",
      "type": "receive"
    }
  ],
  "bytecode": "0x608060405260405162000b8d38038062000b8d833981810160405281019062000029919062000134565b836000806101000a81548173ffffffffffffffffffffffffffffffffffffffff021916908373ffffffffffffffffffffffffffffffffffffffff16021790555082600260006101000a81548160ff02191690831515021790555081600260016101000a81548160ff0219169083151502179055504260038190555080600460006101000a81548173ffffffffffffffffffffffffffffffffffffffff021916908373ffffffffffffffffffffffffffffffffffffffff160217905550505050506200024d565b6000815190506200010081620001ff565b92915050565b600081519050620001178162000219565b92915050565b6000815190506200012e8162000233565b92915050565b60008060008060808587031215620001515762000150620001fa565b5b6000620001618782880162000106565b945050602062000174878288016200011d565b935050604062000187878288016200011d565b92505060606200019a87828801620000ef565b91505092959194509250565b6000620001b382620001da565b9050919050565b6000620001c782620001da565b9050919050565b60008115159050919050565b600073ffffffffffffffffffffffffffffffffffffffff82169050919050565b600080fd5b6200020a81620001a6565b81146200021657600080fd5b50565b6200022481620001ba565b81146200023057600080fd5b50565b6200023e81620001ce565b81146200024a57600080fd5b50565b610930806200025d6000396000f3fe6080604052600436106100745760003560e01c806361d027b31161004e57806361d027b314610112578063ac7d322e1461013d578063b6afafe514610168578063fcd7e3c814610191576100b4565b80632b68b9c6146100b95780633ccfd60b146100d05780634093a52d146100e7576100b4565b366100b4577f737c69225d647e5994eab1a6c301bf6d9232beb2759ae1e27a8966b4732bc48933346040516100aa9291906105e1565b60405180910390a1005b600080fd5b3480156100c557600080fd5b506100ce6101bc565b005b3480156100dc57600080fd5b506100e5610283565b005b3480156100f357600080fd5b506100fc61039e565b6040516101099190610665565b60405180910390f35b34801561011e57600080fd5b506101276103a4565b60405161013491906105c6565b60405180910390f35b34801561014957600080fd5b506101526103ca565b60405161015f919061060a565b60405180910390f35b34801561017457600080fd5b5061018f600480360381019061018a91906104af565b6103dd565b005b34801561019d57600080fd5b506101a6610417565b6040516101b3919061060a565b60405180910390f35b60008054906101000a900473ffffffffffffffffffffffffffffffffffffffff1673ffffffffffffffffffffffffffffffffffffffff163373ffffffffffffffffffffffffffffffffffffffff161461024a576040517f08c379a000000000000000000000000000000000000000000000000000000000815260040161024190610625565b60405180910390fd5b60008054906101000a900473ffffffffffffffffffffffffffffffffffffffff1673ffffffffffffffffffffffffffffffffffffffff16ff5b4262278d0060035461029591906106fd565b11156102d6576040517f08c379a00000000000000000000000000000000000000000000000000000000081526004016102cd90610645565b60405180910390fd5b60001515600460149054906101000a900460ff161515146102f657600080fd5b6001600460146101000a81548160ff021916908315150217905550600460009054906101000a900473ffffffffffffffffffffffffffffffffffffffff1673ffffffffffffffffffffffffffffffffffffffff166108fc479081150290604051600060405180830381858888f19350505050158015610379573d6000803e3d6000fd5b50426003819055506000600460146101000a81548160ff021916908315150217905550565b60035481565b600460009054906101000a900473ffffffffffffffffffffffffffffffffffffffff1681565b600260019054906101000a900460ff1681565b806001836040516103ee91906105af565b908152602001604051809103902060006101000a81548160ff0219169083151502179055505050565b600260009054906101000a900460ff1681565b600061043d610438846106a5565b610680565b90508281526020810184848401111561045957610458610871565b5b61046484828561079b565b509392505050565b60008135905061047b816108e3565b92915050565b600082601f8301126104965761049561086c565b5b81356104a684826020860161042a565b91505092915050565b600080604083850312156104c6576104c561087b565b5b600083013567ffffffffffffffff8111156104e4576104e3610876565b5b6104f085828601610481565b92505060206105018582860161046c565b9150509250929050565b61051481610753565b82525050565b61052381610765565b82525050565b6000610534826106d6565b61053e81856106f2565b935061054e8185602086016107aa565b80840191505092915050565b6000610567600d836106e1565b915061057282610891565b602082019050919050565b600061058a6015836106e1565b9150610595826108ba565b602082019050919050565b6105a981610791565b82525050565b60006105bb8284610529565b915081905092915050565b60006020820190506105db600083018461050b565b92915050565b60006040820190506105f6600083018561050b565b61060360208301846105a0565b9392505050565b600060208201905061061f600083018461051a565b92915050565b6000602082019050818103600083015261063e8161055a565b9050919050565b6000602082019050818103600083015261065e8161057d565b9050919050565b600060208201905061067a60008301846105a0565b92915050565b600061068a61069b565b905061069682826107dd565b919050565b6000604051905090565b600067ffffffffffffffff8211156106c0576106bf61083d565b5b6106c982610880565b9050602081019050919050565b600081519050919050565b600082825260208201905092915050565b600081905092915050565b600061070882610791565b915061071383610791565b9250827fffffffffffffffffffffffffffffffffffffffffffffffffffffffffffffffff038211156107485761074761080e565b5b828201905092915050565b600061075e82610771565b9050919050565b60008115159050919050565b600073ffffffffffffffffffffffffffffffffffffffff82169050919050565b6000819050919050565b82818337600083830152505050565b60005b838110156107c85780820151818401526020810190506107ad565b838111156107d7576000848401525b50505050565b6107e682610880565b810181811067ffffffffffffffff821117156108055761080461083d565b5b80604052505050565b7f4e487b7100000000000000000000000000000000000000000000000000000000600052601160045260246000fd5b7f4e487b7100000000000000000000000000000000000000000000000000000000600052604160045260246000fd5b600080fd5b600080fd5b600080fd5b600080fd5b6000601f19601f8301169050919050565b7f4e6f7420746865206f776e657200000000000000000000000000000000000000600082015250565b7f4e6f7420726561647920746f2077697468647261770000000000000000000000600082015250565b6108ec81610765565b81146108f757600080fd5b5056fea26469706673582212202bd3cea19fc0f25e5938c86ab9824e7c2a4d8382d60933ea468c4388cef5a18964736f6c63430008070033",
  "linkReferences": {},
  "deployedLinkReferences": {}
}