{
  "_format": "hh-sol-artifact-1",
  "contractName": "JulzPay",
  "sourceName": "src/contracts/JulzPay.sol",
  "abi": [
    {
      "inputs": [
        {
          "internalType": "address payable",
          "name": "_owner",
          "type": "address"
        },
        {
          "internalType": "bool",
          "name": "_monthly",
          "type": "bool"
        },
        {
          "internalType": "bool",
          "name": "_covergas",
          "type": "bool"
        },
        {
          "internalType": "address",
          "name": "_treasury",
          "type": "address"
        },
        {
          "internalType": "address",
          "name": "_withdrawToken",
          "type": "address"
        }
      ],
      "stateMutability": "payable",
      "type": "constructor"
    },
    {
      "anonymous": false,
      "inputs": [
        {
          "indexed": false,
          "internalType": "address",
          "name": "",
          "type": "address"
        },
        {
          "indexed": false,
          "internalType": "uint256",
          "name": "",
          "type": "uint256"
        }
      ],
      "name": "Paid",
      "type": "event"
    },
    {
      "inputs": [],
      "name": "covergas",
      "outputs": [
        {
          "internalType": "bool",
          "name": "",
          "type": "bool"
        }
      ],
      "stateMutability": "view",
      "type": "function"
    },
    {
      "inputs": [],
      "name": "destruct",
      "outputs": [],
      "stateMutability": "nonpayable",
      "type": "function"
    },
    {
      "inputs": [],
      "name": "lastWithdrawDate",
      "outputs": [
        {
          "internalType": "uint256",
          "name": "",
          "type": "uint256"
        }
      ],
      "stateMutability": "view",
      "type": "function"
    },
    {
      "inputs": [],
      "name": "monthly",
      "outputs": [
        {
          "internalType": "bool",
          "name": "",
          "type": "bool"
        }
      ],
      "stateMutability": "view",
      "type": "function"
    },
    {
      "inputs": [],
      "name": "treasury",
      "outputs": [
        {
          "internalType": "address",
          "name": "",
          "type": "address"
        }
      ],
      "stateMutability": "view",
      "type": "function"
    },
    {
      "inputs": [],
      "name": "withdraw",
      "outputs": [],
      "stateMutability": "nonpayable",
      "type": "function"
    },
    {
      "inputs": [],
      "name": "withdrawToken",
      "outputs": [
        {
          "internalType": "contract IERC20",
          "name": "",
          "type": "address"
        }
      ],
      "stateMutability": "view",
      "type": "function"
    },
    {
      "stateMutability": "payable",
      "type": "receive"
    }
  ],
  "bytecode": "0x608060405260405161099a38038061099a8339818101604052810190610025919061016b565b846000806101000a81548173ffffffffffffffffffffffffffffffffffffffff021916908373ffffffffffffffffffffffffffffffffffffffff16021790555083600160146101000a81548160ff02191690831515021790555082600160156101000a81548160ff02191690831515021790555080600160006101000a81548173ffffffffffffffffffffffffffffffffffffffff021916908373ffffffffffffffffffffffffffffffffffffffff1602179055504260028190555081600360006101000a81548173ffffffffffffffffffffffffffffffffffffffff021916908373ffffffffffffffffffffffffffffffffffffffff1602179055505050505050610280565b60008151905061013b8161023b565b92915050565b60008151905061015081610252565b92915050565b60008151905061016581610269565b92915050565b600080600080600060a0868803121561018757610186610236565b5b600061019588828901610141565b95505060206101a688828901610156565b94505060406101b788828901610156565b93505060606101c88882890161012c565b92505060806101d98882890161012c565b9150509295509295909350565b60006101f182610216565b9050919050565b600061020382610216565b9050919050565b60008115159050919050565b600073ffffffffffffffffffffffffffffffffffffffff82169050919050565b600080fd5b610244816101e6565b811461024f57600080fd5b50565b61025b816101f8565b811461026657600080fd5b50565b6102728161020a565b811461027d57600080fd5b50565b61070b8061028f6000396000f3fe6080604052600436106100745760003560e01c806361d027b31161004e57806361d027b314610112578063ac7d322e1461013d578063ca628c7814610168578063fcd7e3c814610193576100b4565b80632b68b9c6146100b95780633ccfd60b146100d05780634093a52d146100e7576100b4565b366100b4577f737c69225d647e5994eab1a6c301bf6d9232beb2759ae1e27a8966b4732bc48933346040516100aa9291906104b5565b60405180910390a1005b600080fd5b3480156100c557600080fd5b506100ce6101be565b005b3480156100dc57600080fd5b506100e5610285565b005b3480156100f357600080fd5b506100fc6103a0565b6040516101099190610554565b60405180910390f35b34801561011e57600080fd5b506101276103a6565b604051610134919061049a565b60405180910390f35b34801561014957600080fd5b506101526103cc565b60405161015f91906104de565b60405180910390f35b34801561017457600080fd5b5061017d6103df565b60405161018a91906104f9565b60405180910390f35b34801561019f57600080fd5b506101a8610405565b6040516101b591906104de565b60405180910390f35b60008054906101000a900473ffffffffffffffffffffffffffffffffffffffff1673ffffffffffffffffffffffffffffffffffffffff163373ffffffffffffffffffffffffffffffffffffffff161461024c576040517f08c379a000000000000000000000000000000000000000000000000000000000815260040161024390610514565b60405180910390fd5b60008054906101000a900473ffffffffffffffffffffffffffffffffffffffff1673ffffffffffffffffffffffffffffffffffffffff16ff5b4262278d006002546102979190610580565b11156102d8576040517f08c379a00000000000000000000000000000000000000000000000000000000081526004016102cf90610534565b60405180910390fd5b60001515600360149054906101000a900460ff161515146102f857600080fd5b6001600360146101000a81548160ff021916908315150217905550600360009054906101000a900473ffffffffffffffffffffffffffffffffffffffff1673ffffffffffffffffffffffffffffffffffffffff166108fc479081150290604051600060405180830381858888f1935050505015801561037b573d6000803e3d6000fd5b50426002819055506000600360146101000a81548160ff021916908315150217905550565b60025481565b600360009054906101000a900473ffffffffffffffffffffffffffffffffffffffff1681565b600160159054906101000a900460ff1681565b600160009054906101000a900473ffffffffffffffffffffffffffffffffffffffff1681565b600160149054906101000a900460ff1681565b610421816105d6565b82525050565b610430816105e8565b82525050565b61043f8161061e565b82525050565b6000610452600d8361056f565b915061045d82610683565b602082019050919050565b600061047560158361056f565b9150610480826106ac565b602082019050919050565b61049481610614565b82525050565b60006020820190506104af6000830184610418565b92915050565b60006040820190506104ca6000830185610418565b6104d7602083018461048b565b9392505050565b60006020820190506104f36000830184610427565b92915050565b600060208201905061050e6000830184610436565b92915050565b6000602082019050818103600083015261052d81610445565b9050919050565b6000602082019050818103600083015261054d81610468565b9050919050565b6000602082019050610569600083018461048b565b92915050565b600082825260208201905092915050565b600061058b82610614565b915061059683610614565b9250827fffffffffffffffffffffffffffffffffffffffffffffffffffffffffffffffff038211156105cb576105ca610654565b5b828201905092915050565b60006105e1826105f4565b9050919050565b60008115159050919050565b600073ffffffffffffffffffffffffffffffffffffffff82169050919050565b6000819050919050565b600061062982610630565b9050919050565b600061063b82610642565b9050919050565b600061064d826105f4565b9050919050565b7f4e487b7100000000000000000000000000000000000000000000000000000000600052601160045260246000fd5b7f4e6f7420746865206f776e657200000000000000000000000000000000000000600082015250565b7f4e6f7420726561647920746f207769746864726177000000000000000000000060008201525056fea2646970667358221220e70cc9436f0996353938f4e5748e79edcaeb31fdec8681b8c003e537a9500ef464736f6c63430008070033",
  "linkReferences": {},
  "deployedLinkReferences": {}
}