{
  "_format": "hh-sol-artifact-1",
  "contractName": "JulzPay",
  "sourceName": "src/contracts/JulzPay.sol",
  "abi": [
    {
      "inputs": [
        {
          "internalType": "address payable",
          "name": "_owner",
          "type": "address"
        },
        {
          "internalType": "bool",
          "name": "_monthly",
          "type": "bool"
        },
        {
          "internalType": "bool",
          "name": "_covergas",
          "type": "bool"
        },
        {
          "internalType": "address",
          "name": "_treasury",
          "type": "address"
        },
        {
          "internalType": "address",
          "name": "_withdrawToken",
          "type": "address"
        },
        {
          "internalType": "address",
          "name": "_WETH_ADD",
          "type": "address"
        }
      ],
      "stateMutability": "payable",
      "type": "constructor"
    },
    {
      "anonymous": false,
      "inputs": [
        {
          "indexed": false,
          "internalType": "address",
          "name": "sender",
          "type": "address"
        },
        {
          "indexed": false,
          "internalType": "uint256",
          "name": "amountReceived",
          "type": "uint256"
        },
        {
          "indexed": false,
          "internalType": "uint256",
          "name": "amountDeposited",
          "type": "uint256"
        },
        {
          "indexed": false,
          "internalType": "address",
          "name": "token",
          "type": "address"
        }
      ],
      "name": "Paid",
      "type": "event"
    },
    {
      "anonymous": false,
      "inputs": [
        {
          "indexed": false,
          "internalType": "uint256",
          "name": "",
          "type": "uint256"
        }
      ],
      "name": "Withdraw",
      "type": "event"
    },
    {
      "inputs": [],
      "name": "covergas",
      "outputs": [
        {
          "internalType": "bool",
          "name": "",
          "type": "bool"
        }
      ],
      "stateMutability": "view",
      "type": "function"
    },
    {
      "inputs": [
        {
          "internalType": "uint256",
          "name": "_amount",
          "type": "uint256"
        },
        {
          "internalType": "address",
          "name": "_token",
          "type": "address"
        },
        {
          "internalType": "bytes",
          "name": "path",
          "type": "bytes"
        }
      ],
      "name": "deposit",
      "outputs": [],
      "stateMutability": "payable",
      "type": "function"
    },
    {
      "inputs": [],
      "name": "destruct",
      "outputs": [],
      "stateMutability": "nonpayable",
      "type": "function"
    },
    {
      "inputs": [],
      "name": "lastWithdrawDate",
      "outputs": [
        {
          "internalType": "uint256",
          "name": "",
          "type": "uint256"
        }
      ],
      "stateMutability": "view",
      "type": "function"
    },
    {
      "inputs": [],
      "name": "monthly",
      "outputs": [
        {
          "internalType": "bool",
          "name": "",
          "type": "bool"
        }
      ],
      "stateMutability": "view",
      "type": "function"
    },
    {
      "inputs": [
        {
          "internalType": "address",
          "name": "_token",
          "type": "address"
        },
        {
          "internalType": "bytes",
          "name": "path",
          "type": "bytes"
        },
        {
          "internalType": "uint256",
          "name": "amount",
          "type": "uint256"
        }
      ],
      "name": "swap",
      "outputs": [
        {
          "internalType": "uint256",
          "name": "result",
          "type": "uint256"
        }
      ],
      "stateMutability": "nonpayable",
      "type": "function"
    },
    {
      "inputs": [],
      "name": "treasury",
      "outputs": [
        {
          "internalType": "address",
          "name": "",
          "type": "address"
        }
      ],
      "stateMutability": "view",
      "type": "function"
    },
    {
      "inputs": [],
      "name": "withdraw",
      "outputs": [],
      "stateMutability": "nonpayable",
      "type": "function"
    },
    {
      "inputs": [],
      "name": "withdrawToken",
      "outputs": [
        {
          "internalType": "address",
          "name": "",
          "type": "address"
        }
      ],
      "stateMutability": "view",
      "type": "function"
    },
    {
      "stateMutability": "payable",
      "type": "receive"
    }
  ],
  "bytecode": "0x608060405273e592427a0aece92de3edee1f18e0157c05861564600660006101000a81548173ffffffffffffffffffffffffffffffffffffffff021916908373ffffffffffffffffffffffffffffffffffffffff160217905550737d2768de32b0b80b7a3454c06bdac94a69ddc7a9600760006101000a81548173ffffffffffffffffffffffffffffffffffffffff021916908373ffffffffffffffffffffffffffffffffffffffff16021790555073cc9a0b7c43dc2a5f023bb9b738e45b0ef6b06e04600860006101000a81548173ffffffffffffffffffffffffffffffffffffffff021916908373ffffffffffffffffffffffffffffffffffffffff16021790555073028171bca77440897b824ca71d1c56cac55b68a3600960006101000a81548173ffffffffffffffffffffffffffffffffffffffff021916908373ffffffffffffffffffffffffffffffffffffffff16021790555073a0b86991c6218b36c1d19d4a2e9eb0ce3606eb48600a60006101000a81548173ffffffffffffffffffffffffffffffffffffffff021916908373ffffffffffffffffffffffffffffffffffffffff16021790555073dac17f958d2ee523a2206206994597c13d831ec7600b60006101000a81548173ffffffffffffffffffffffffffffffffffffffff021916908373ffffffffffffffffffffffffffffffffffffffff160217905550732260fac5e5542a773aa44fbcfedf7c193bc2c599600c60006101000a81548173ffffffffffffffffffffffffffffffffffffffff021916908373ffffffffffffffffffffffffffffffffffffffff16021790555073030ba81f1c18d280636f32af80b9aad02cf0854e600d60006101000a81548173ffffffffffffffffffffffffffffffffffffffff021916908373ffffffffffffffffffffffffffffffffffffffff160217905550604051620026b1380380620026b18339818101604052810190620002d191906200052f565b8480620002e9575084158015620002e85750600034115b5b6200032b576040517f08c379a0000000000000000000000000000000000000000000000000000000008152600401620003229062000607565b60405180910390fd5b85600160006101000a81548173ffffffffffffffffffffffffffffffffffffffff021916908373ffffffffffffffffffffffffffffffffffffffff16021790555084600260146101000a81548160ff02191690831515021790555083600260156101000a81548160ff02191690831515021790555081600260006101000a81548173ffffffffffffffffffffffffffffffffffffffff021916908373ffffffffffffffffffffffffffffffffffffffff1602179055504260038190555082600460006101000a81548173ffffffffffffffffffffffffffffffffffffffff021916908373ffffffffffffffffffffffffffffffffffffffff160217905550806000806101000a81548173ffffffffffffffffffffffffffffffffffffffff021916908373ffffffffffffffffffffffffffffffffffffffff1602179055506000341115620004de57600160009054906101000a900473ffffffffffffffffffffffffffffffffffffffff1673ffffffffffffffffffffffffffffffffffffffff166108fc479081150290604051600060405180830381858888f19350505050158015620004dc573d6000803e3d6000fd5b505b505050505050620006dc565b600081519050620004fb816200068e565b92915050565b6000815190506200051281620006a8565b92915050565b6000815190506200052981620006c2565b92915050565b60008060008060008060c087890312156200054957600080fd5b60006200055989828a0162000501565b96505060206200056c89828a0162000518565b95505060406200057f89828a0162000518565b94505060606200059289828a01620004ea565b9350506080620005a589828a01620004ea565b92505060a0620005b889828a01620004ea565b9150509295509295509295565b6000620005d460148362000629565b91507f4e6f742066756e64656420636f72726563746c790000000000000000000000006000830152602082019050919050565b600060208201905081810360008301526200062281620005c5565b9050919050565b600082825260208201905092915050565b600062000647826200066e565b9050919050565b60006200065b826200066e565b9050919050565b60008115159050919050565b600073ffffffffffffffffffffffffffffffffffffffff82169050919050565b62000699816200063a565b8114620006a557600080fd5b50565b620006b3816200064e565b8114620006bf57600080fd5b50565b620006cd8162000662565b8114620006d957600080fd5b50565b611fc580620006ec6000396000f3fe60806040526004361061008a5760003560e01c8063ac7d322e11610059578063ac7d322e1461011a578063b7d0428914610145578063ca628c7814610182578063faa9bce9146101ad578063fcd7e3c8146101c957610091565b80632b68b9c6146100965780633ccfd60b146100ad5780634093a52d146100c457806361d027b3146100ef57610091565b3661009157005b600080fd5b3480156100a257600080fd5b506100ab6101f4565b005b3480156100b957600080fd5b506100c26102bf565b005b3480156100d057600080fd5b506100d9610b67565b6040516100e69190611dae565b60405180910390f35b3480156100fb57600080fd5b50610104610b6d565b6040516101119190611b6c565b60405180910390f35b34801561012657600080fd5b5061012f610b93565b60405161013c9190611d31565b60405180910390f35b34801561015157600080fd5b5061016c600480360381019061016791906118b4565b610ba6565b6040516101799190611dae565b60405180910390f35b34801561018e57600080fd5b50610197610db1565b6040516101a49190611b6c565b60405180910390f35b6101c760048036038101906101c2919061196d565b610dd7565b005b3480156101d557600080fd5b506101de611330565b6040516101eb9190611d31565b60405180910390f35b600160009054906101000a900473ffffffffffffffffffffffffffffffffffffffff1673ffffffffffffffffffffffffffffffffffffffff163373ffffffffffffffffffffffffffffffffffffffff1614610284576040517f08c379a000000000000000000000000000000000000000000000000000000000815260040161027b90611d4c565b60405180910390fd5b600160009054906101000a900473ffffffffffffffffffffffffffffffffffffffff1673ffffffffffffffffffffffffffffffffffffffff16ff5b4262278d00600354011115610309576040517f08c379a000000000000000000000000000000000000000000000000000000000815260040161030090611d6c565b60405180910390fd5b60001515600460149054906101000a900460ff1615151461032957600080fd5b6001600460146101000a81548160ff02191690831515021790555060008060009054906101000a900473ffffffffffffffffffffffffffffffffffffffff1673ffffffffffffffffffffffffffffffffffffffff16600260009054906101000a900473ffffffffffffffffffffffffffffffffffffffff1673ffffffffffffffffffffffffffffffffffffffff161415610843576000600554600d60009054906101000a900473ffffffffffffffffffffffffffffffffffffffff1673ffffffffffffffffffffffffffffffffffffffff166370a08231306040518263ffffffff1660e01b815260040161041d9190611b87565b60206040518083038186803b15801561043557600080fd5b505afa158015610449573d6000803e3d6000fd5b505050506040513d601f19601f8201168201806040525081019061046d9190611944565b03905060006007600a838161047e57fe5b0402600554019050600d60009054906101000a900473ffffffffffffffffffffffffffffffffffffffff1673ffffffffffffffffffffffffffffffffffffffff1663095ea7b3600860009054906101000a900473ffffffffffffffffffffffffffffffffffffffff16600d60009054906101000a900473ffffffffffffffffffffffffffffffffffffffff1673ffffffffffffffffffffffffffffffffffffffff166370a08231306040518263ffffffff1660e01b81526004016105429190611b87565b60206040518083038186803b15801561055a57600080fd5b505afa15801561056e573d6000803e3d6000fd5b505050506040513d601f19601f820116820180604052508101906105929190611944565b6040518363ffffffff1660e01b81526004016105af929190611c55565b602060405180830381600087803b1580156105c957600080fd5b505af11580156105dd573d6000803e3d6000fd5b505050506040513d601f19601f82011682018060405250810190610601919061191b565b50600860009054906101000a900473ffffffffffffffffffffffffffffffffffffffff1673ffffffffffffffffffffffffffffffffffffffff166380500d20600760009054906101000a900473ffffffffffffffffffffffffffffffffffffffff16600d60009054906101000a900473ffffffffffffffffffffffffffffffffffffffff1673ffffffffffffffffffffffffffffffffffffffff166370a08231306040518263ffffffff1660e01b81526004016106be9190611b87565b60206040518083038186803b1580156106d657600080fd5b505afa1580156106ea573d6000803e3d6000fd5b505050506040513d601f19601f8201168201806040525081019061070e9190611944565b306040518463ffffffff1660e01b815260040161072d93929190611cb5565b600060405180830381600087803b15801561074757600080fd5b505af115801561075b573d6000803e3d6000fd5b50505050600460009054906101000a900473ffffffffffffffffffffffffffffffffffffffff1673ffffffffffffffffffffffffffffffffffffffff166108fc829081150290604051600060405180830381858888f193505050501580156107c7573d6000803e3d6000fd5b50600160009054906101000a900473ffffffffffffffffffffffffffffffffffffffff1673ffffffffffffffffffffffffffffffffffffffff166108fc479081150290604051600060405180830381858888f19350505050158015610830573d6000803e3d6000fd5b5080925060006005819055505050610b0b565b600061084d611343565b905060006007600a6005548473ffffffffffffffffffffffffffffffffffffffff166370a08231306040518263ffffffff1660e01b81526004016108919190611b87565b60206040518083038186803b1580156108a957600080fd5b505afa1580156108bd573d6000803e3d6000fd5b505050506040513d601f19601f820116820180604052508101906108e19190611944565b03816108e957fe5b0402600554019050809250600760009054906101000a900473ffffffffffffffffffffffffffffffffffffffff1673ffffffffffffffffffffffffffffffffffffffff166369328dec600260009054906101000a900473ffffffffffffffffffffffffffffffffffffffff1683600460009054906101000a900473ffffffffffffffffffffffffffffffffffffffff166040518463ffffffff1660e01b815260040161099793929190611c7e565b602060405180830381600087803b1580156109b157600080fd5b505af11580156109c5573d6000803e3d6000fd5b505050506040513d601f19601f820116820180604052508101906109e99190611944565b50600760009054906101000a900473ffffffffffffffffffffffffffffffffffffffff1673ffffffffffffffffffffffffffffffffffffffff166369328dec600260009054906101000a900473ffffffffffffffffffffffffffffffffffffffff167fffffffffffffffffffffffffffffffffffffffffffffffffffffffffffffffff600160009054906101000a900473ffffffffffffffffffffffffffffffffffffffff166040518463ffffffff1660e01b8152600401610aad93929190611cb5565b602060405180830381600087803b158015610ac757600080fd5b505af1158015610adb573d6000803e3d6000fd5b505050506040513d601f19601f82011682018060405250810190610aff9190611944565b50600060058190555050505b426003819055506000600460146101000a81548160ff0219169083151502179055507f5b6b431d4476a211bb7d41c20d1aab9ae2321deee0d20be3d9fc9b1093fa6e3d81604051610b5c9190611dae565b60405180910390a150565b60035481565b600460009054906101000a900473ffffffffffffffffffffffffffffffffffffffff1681565b600260159054906101000a900460ff1681565b60008084905060008054906101000a900473ffffffffffffffffffffffffffffffffffffffff1673ffffffffffffffffffffffffffffffffffffffff168573ffffffffffffffffffffffffffffffffffffffff1614610cb0578073ffffffffffffffffffffffffffffffffffffffff1663095ea7b3600660009054906101000a900473ffffffffffffffffffffffffffffffffffffffff16856040518363ffffffff1660e01b8152600401610c5c929190611c55565b602060405180830381600087803b158015610c7657600080fd5b505af1158015610c8a573d6000803e3d6000fd5b505050506040513d601f19601f82011682018060405250810190610cae919061191b565b505b610cb86117c7565b6040518060a001604052808681526020013073ffffffffffffffffffffffffffffffffffffffff16815260200142815260200185815260200160008152509050600660009054906101000a900473ffffffffffffffffffffffffffffffffffffffff1673ffffffffffffffffffffffffffffffffffffffff1663c04b8d5985836040518363ffffffff1660e01b8152600401610d549190611d8c565b6020604051808303818588803b158015610d6d57600080fd5b505af1158015610d81573d6000803e3d6000fd5b50505050506040513d601f19601f82011682018060405250810190610da69190611944565b925050509392505050565b600260009054906101000a900473ffffffffffffffffffffffffffffffffffffffff1681565b60008273ffffffffffffffffffffffffffffffffffffffff1660008054906101000a900473ffffffffffffffffffffffffffffffffffffffff1673ffffffffffffffffffffffffffffffffffffffff1614610ec35760008390508073ffffffffffffffffffffffffffffffffffffffff166323b872dd3330886040518463ffffffff1660e01b8152600401610e6e93929190611ba2565b602060405180830381600087803b158015610e8857600080fd5b505af1158015610e9c573d6000803e3d6000fd5b505050506040513d601f19601f82011682018060405250810190610ec0919061191b565b50505b8273ffffffffffffffffffffffffffffffffffffffff16600260009054906101000a900473ffffffffffffffffffffffffffffffffffffffff1673ffffffffffffffffffffffffffffffffffffffff1614610fd957610f566040518060400160405280600d81526020017f766f792061207377617065617200000000000000000000000000000000000000815250611599565b610f83600260009054906101000a900473ffffffffffffffffffffffffffffffffffffffff168386610ba6565b9050610fc46040518060400160405280600e81526020017f6d65206465706f73697461726f6e00000000000000000000000000000000000081525082611697565b80600560008282540192505081905550610fed565b839050836005600082825401925050819055505b60008054906101000a900473ffffffffffffffffffffffffffffffffffffffff1673ffffffffffffffffffffffffffffffffffffffff16600260009054906101000a900473ffffffffffffffffffffffffffffffffffffffff1673ffffffffffffffffffffffffffffffffffffffff16141561115e576110a16040518060400160405280600981526020017f74616d6f20617175690000000000000000000000000000000000000000000000815250611599565b349350600860009054906101000a900473ffffffffffffffffffffffffffffffffffffffff1673ffffffffffffffffffffffffffffffffffffffff1663474cf53d47600760009054906101000a900473ffffffffffffffffffffffffffffffffffffffff163060006040518563ffffffff1660e01b815260040161112793929190611c1e565b6000604051808303818588803b15801561114057600080fd5b505af1158015611154573d6000803e3d6000fd5b50505050506112ed565b6000600260009054906101000a900473ffffffffffffffffffffffffffffffffffffffff1690508073ffffffffffffffffffffffffffffffffffffffff1663095ea7b3600760009054906101000a900473ffffffffffffffffffffffffffffffffffffffff16876040518363ffffffff1660e01b81526004016111e2929190611c55565b602060405180830381600087803b1580156111fc57600080fd5b505af1158015611210573d6000803e3d6000fd5b505050506040513d601f19601f82011682018060405250810190611234919061191b565b50600760009054906101000a900473ffffffffffffffffffffffffffffffffffffffff1673ffffffffffffffffffffffffffffffffffffffff1663e8eda9df600260009054906101000a900473ffffffffffffffffffffffffffffffffffffffff16873060006040518563ffffffff1660e01b81526004016112b99493929190611cec565b600060405180830381600087803b1580156112d357600080fd5b505af11580156112e7573d6000803e3d6000fd5b50505050505b7fb4e90aede11d33584a87d3caf846b0dd4819cd78ff1a28d7c7ab93d01c9d0384338583866040516113229493929190611bd9565b60405180910390a150505050565b600260149054906101000a900460ff1681565b6000736b175474e89094c44da98b954eedeac495271d0f73ffffffffffffffffffffffffffffffffffffffff16600260009054906101000a900473ffffffffffffffffffffffffffffffffffffffff1673ffffffffffffffffffffffffffffffffffffffff1614156113d957600960009054906101000a900473ffffffffffffffffffffffffffffffffffffffff169050611596565b73dac17f958d2ee523a2206206994597c13d831ec773ffffffffffffffffffffffffffffffffffffffff16600260009054906101000a900473ffffffffffffffffffffffffffffffffffffffff1673ffffffffffffffffffffffffffffffffffffffff16141561146d57600b60009054906101000a900473ffffffffffffffffffffffffffffffffffffffff169050611596565b73a0b86991c6218b36c1d19d4a2e9eb0ce3606eb4873ffffffffffffffffffffffffffffffffffffffff16600260009054906101000a900473ffffffffffffffffffffffffffffffffffffffff1673ffffffffffffffffffffffffffffffffffffffff16141561150157600a60009054906101000a900473ffffffffffffffffffffffffffffffffffffffff169050611596565b732260fac5e5542a773aa44fbcfedf7c193bc2c59973ffffffffffffffffffffffffffffffffffffffff16600260009054906101000a900473ffffffffffffffffffffffffffffffffffffffff1673ffffffffffffffffffffffffffffffffffffffff16141561159557600c60009054906101000a900473ffffffffffffffffffffffffffffffffffffffff169050611596565b5b90565b611694816040516024018080602001828103825283818151815260200191508051906020019080838360005b838110156115e05780820151818401526020810190506115c5565b50505050905090810190601f16801561160d5780820380516001836020036101000a031916815260200191505b50925050506040516020818303038152906040527f41304fac000000000000000000000000000000000000000000000000000000007bffffffffffffffffffffffffffffffffffffffffffffffffffffffff19166020820180517bffffffffffffffffffffffffffffffffffffffffffffffffffffffff838183161783525050505061179e565b50565b61179a82826040516024018080602001838152602001828103825284818151815260200191508051906020019080838360005b838110156116e55780820151818401526020810190506116ca565b50505050905090810190601f1680156117125780820380516001836020036101000a031916815260200191505b5093505050506040516020818303038152906040527f9710a9d0000000000000000000000000000000000000000000000000000000007bffffffffffffffffffffffffffffffffffffffffffffffffffffffff19166020820180517bffffffffffffffffffffffffffffffffffffffffffffffffffffffff838183161783525050505061179e565b5050565b60008151905060006a636f6e736f6c652e6c6f679050602083016000808483855afa5050505050565b6040518060a0016040528060608152602001600073ffffffffffffffffffffffffffffffffffffffff1681526020016000815260200160008152602001600081525090565b60008135905061181b81611f4a565b92915050565b60008151905061183081611f61565b92915050565b600082601f83011261184757600080fd5b813561185a61185582611dfa565b611dc9565b9150808252602083016020830185838301111561187657600080fd5b611881838284611ef5565b50505092915050565b60008135905061189981611f78565b92915050565b6000815190506118ae81611f78565b92915050565b6000806000606084860312156118c957600080fd5b60006118d78682870161180c565b935050602084013567ffffffffffffffff8111156118f457600080fd5b61190086828701611836565b92505060406119118682870161188a565b9150509250925092565b60006020828403121561192d57600080fd5b600061193b84828501611821565b91505092915050565b60006020828403121561195657600080fd5b60006119648482850161189f565b91505092915050565b60008060006060848603121561198257600080fd5b60006119908682870161188a565b93505060206119a18682870161180c565b925050604084013567ffffffffffffffff8111156119be57600080fd5b6119ca86828701611836565b9150509250925092565b6119dd81611ead565b82525050565b6119ec81611e57565b82525050565b6119fb81611e57565b82525050565b611a0a81611e69565b82525050565b6000611a1b82611e2a565b611a258185611e35565b9350611a35818560208601611f04565b611a3e81611f39565b840191505092915050565b611a5281611ebf565b82525050565b6000611a65600d83611e46565b91507f4e6f7420746865206f776e6572000000000000000000000000000000000000006000830152602082019050919050565b6000611aa5601583611e46565b91507f4e6f7420726561647920746f20776974686472617700000000000000000000006000830152602082019050919050565b600060a0830160008301518482036000860152611af58282611a10565b9150506020830151611b0a60208601826119e3565b506040830151611b1d6040860182611b4e565b506060830151611b306060860182611b4e565b506080830151611b436080860182611b4e565b508091505092915050565b611b5781611ea3565b82525050565b611b6681611ea3565b82525050565b6000602082019050611b8160008301846119f2565b92915050565b6000602082019050611b9c60008301846119d4565b92915050565b6000606082019050611bb760008301866119d4565b611bc460208301856119d4565b611bd16040830184611b5d565b949350505050565b6000608082019050611bee60008301876119d4565b611bfb6020830186611b5d565b611c086040830185611b5d565b611c1560608301846119f2565b95945050505050565b6000606082019050611c3360008301866119f2565b611c4060208301856119d4565b611c4d6040830184611a49565b949350505050565b6000604082019050611c6a60008301856119f2565b611c776020830184611b5d565b9392505050565b6000606082019050611c9360008301866119f2565b611ca06020830185611b5d565b611cad60408301846119f2565b949350505050565b6000606082019050611cca60008301866119f2565b611cd76020830185611b5d565b611ce460408301846119d4565b949350505050565b6000608082019050611d0160008301876119f2565b611d0e6020830186611b5d565b611d1b60408301856119d4565b611d286060830184611a49565b95945050505050565b6000602082019050611d466000830184611a01565b92915050565b60006020820190508181036000830152611d6581611a58565b9050919050565b60006020820190508181036000830152611d8581611a98565b9050919050565b60006020820190508181036000830152611da68184611ad8565b905092915050565b6000602082019050611dc36000830184611b5d565b92915050565b6000604051905081810181811067ffffffffffffffff82111715611df057611def611f37565b5b8060405250919050565b600067ffffffffffffffff821115611e1557611e14611f37565b5b601f19601f8301169050602081019050919050565b600081519050919050565b600082825260208201905092915050565b600082825260208201905092915050565b6000611e6282611e83565b9050919050565b60008115159050919050565b600061ffff82169050919050565b600073ffffffffffffffffffffffffffffffffffffffff82169050919050565b6000819050919050565b6000611eb882611ed1565b9050919050565b6000611eca82611e75565b9050919050565b6000611edc82611ee3565b9050919050565b6000611eee82611e83565b9050919050565b82818337600083830152505050565b60005b83811015611f22578082015181840152602081019050611f07565b83811115611f31576000848401525b50505050565bfe5b6000601f19601f8301169050919050565b611f5381611e57565b8114611f5e57600080fd5b50565b611f6a81611e69565b8114611f7557600080fd5b50565b611f8181611ea3565b8114611f8c57600080fd5b5056fea2646970667358221220b7a35cc9c280fdf8f0fbe2f42e252e9b021043a22ad5d6d496897c2b077c60f164736f6c63430007050033",
  "linkReferences": {},
  "deployedLinkReferences": {}
}