{
  "_format": "hh-sol-artifact-1",
  "contractName": "JulzPay",
  "sourceName": "src/contracts/JulzPay.sol",
  "abi": [
    {
      "inputs": [
        {
          "internalType": "address payable",
          "name": "_owner",
          "type": "address"
        },
        {
          "internalType": "bool",
          "name": "_monthly",
          "type": "bool"
        },
        {
          "internalType": "bool",
          "name": "_covergas",
          "type": "bool"
        },
        {
          "internalType": "address",
          "name": "_treasury",
          "type": "address"
        },
        {
          "internalType": "address",
          "name": "_withdrawToken",
          "type": "address"
        },
        {
          "internalType": "address",
          "name": "_WETH_ADD",
          "type": "address"
        }
      ],
      "stateMutability": "payable",
      "type": "constructor"
    },
    {
      "anonymous": false,
      "inputs": [
        {
          "indexed": false,
          "internalType": "address",
          "name": "sender",
          "type": "address"
        },
        {
          "indexed": false,
          "internalType": "uint256",
          "name": "amountReceived",
          "type": "uint256"
        },
        {
          "indexed": false,
          "internalType": "uint256",
          "name": "amountDeposited",
          "type": "uint256"
        },
        {
          "indexed": false,
          "internalType": "address",
          "name": "token",
          "type": "address"
        }
      ],
      "name": "Paid",
      "type": "event"
    },
    {
      "anonymous": false,
      "inputs": [
        {
          "indexed": false,
          "internalType": "uint256",
          "name": "",
          "type": "uint256"
        }
      ],
      "name": "Withdraw",
      "type": "event"
    },
    {
      "inputs": [],
      "name": "covergas",
      "outputs": [
        {
          "internalType": "bool",
          "name": "",
          "type": "bool"
        }
      ],
      "stateMutability": "view",
      "type": "function"
    },
    {
      "inputs": [
        {
          "internalType": "uint256",
          "name": "_amount",
          "type": "uint256"
        },
        {
          "internalType": "address",
          "name": "_token",
          "type": "address"
        },
        {
          "internalType": "bytes",
          "name": "path",
          "type": "bytes"
        }
      ],
      "name": "deposit",
      "outputs": [],
      "stateMutability": "payable",
      "type": "function"
    },
    {
      "inputs": [],
      "name": "destruct",
      "outputs": [],
      "stateMutability": "nonpayable",
      "type": "function"
    },
    {
      "inputs": [],
      "name": "lastWithdrawDate",
      "outputs": [
        {
          "internalType": "uint256",
          "name": "",
          "type": "uint256"
        }
      ],
      "stateMutability": "view",
      "type": "function"
    },
    {
      "inputs": [],
      "name": "monthly",
      "outputs": [
        {
          "internalType": "bool",
          "name": "",
          "type": "bool"
        }
      ],
      "stateMutability": "view",
      "type": "function"
    },
    {
      "inputs": [],
      "name": "treasury",
      "outputs": [
        {
          "internalType": "address",
          "name": "",
          "type": "address"
        }
      ],
      "stateMutability": "view",
      "type": "function"
    },
    {
      "inputs": [
        {
          "internalType": "uint256",
          "name": "originalDeposits",
          "type": "uint256"
        }
      ],
      "name": "withdraw",
      "outputs": [],
      "stateMutability": "nonpayable",
      "type": "function"
    },
    {
      "inputs": [],
      "name": "withdrawToken",
      "outputs": [
        {
          "internalType": "address",
          "name": "",
          "type": "address"
        }
      ],
      "stateMutability": "view",
      "type": "function"
    },
    {
      "stateMutability": "payable",
      "type": "receive"
    }
  ],
  "bytecode": "0x608060405273e592427a0aece92de3edee1f18e0157c05861564600560006101000a81548173ffffffffffffffffffffffffffffffffffffffff021916908373ffffffffffffffffffffffffffffffffffffffff160217905550737d2768de32b0b80b7a3454c06bdac94a69ddc7a9600660006101000a81548173ffffffffffffffffffffffffffffffffffffffff021916908373ffffffffffffffffffffffffffffffffffffffff16021790555073cc9a0b7c43dc2a5f023bb9b738e45b0ef6b06e04600760006101000a81548173ffffffffffffffffffffffffffffffffffffffff021916908373ffffffffffffffffffffffffffffffffffffffff16021790555073028171bca77440897b824ca71d1c56cac55b68a3600860006101000a81548173ffffffffffffffffffffffffffffffffffffffff021916908373ffffffffffffffffffffffffffffffffffffffff16021790555073a0b86991c6218b36c1d19d4a2e9eb0ce3606eb48600960006101000a81548173ffffffffffffffffffffffffffffffffffffffff021916908373ffffffffffffffffffffffffffffffffffffffff16021790555073dac17f958d2ee523a2206206994597c13d831ec7600a60006101000a81548173ffffffffffffffffffffffffffffffffffffffff021916908373ffffffffffffffffffffffffffffffffffffffff160217905550732260fac5e5542a773aa44fbcfedf7c193bc2c599600b60006101000a81548173ffffffffffffffffffffffffffffffffffffffff021916908373ffffffffffffffffffffffffffffffffffffffff16021790555073030ba81f1c18d280636f32af80b9aad02cf0854e600c60006101000a81548173ffffffffffffffffffffffffffffffffffffffff021916908373ffffffffffffffffffffffffffffffffffffffff1602179055506040516200269e3803806200269e8339818101604052810190620002d19190620004c7565b84158015620002e05750600034145b80620002f65750848015620002f55750600034115b5b62000338576040517f08c379a00000000000000000000000000000000000000000000000000000000081526004016200032f906200059f565b60405180910390fd5b85600160006101000a81548173ffffffffffffffffffffffffffffffffffffffff021916908373ffffffffffffffffffffffffffffffffffffffff16021790555084600260146101000a81548160ff02191690831515021790555083600260156101000a81548160ff02191690831515021790555081600260006101000a81548173ffffffffffffffffffffffffffffffffffffffff021916908373ffffffffffffffffffffffffffffffffffffffff1602179055504260038190555082600460006101000a81548173ffffffffffffffffffffffffffffffffffffffff021916908373ffffffffffffffffffffffffffffffffffffffff160217905550806000806101000a81548173ffffffffffffffffffffffffffffffffffffffff021916908373ffffffffffffffffffffffffffffffffffffffff16021790555050505050505062000674565b600081519050620004938162000626565b92915050565b600081519050620004aa8162000640565b92915050565b600081519050620004c1816200065a565b92915050565b60008060008060008060c08789031215620004e157600080fd5b6000620004f189828a0162000499565b96505060206200050489828a01620004b0565b95505060406200051789828a01620004b0565b94505060606200052a89828a0162000482565b93505060806200053d89828a0162000482565b92505060a06200055089828a0162000482565b9150509295509295509295565b60006200056c601f83620005c1565b91507f4966206d6f6e746c792073686f756c6420686176652061206465706f736974006000830152602082019050919050565b60006020820190508181036000830152620005ba816200055d565b9050919050565b600082825260208201905092915050565b6000620005df8262000606565b9050919050565b6000620005f38262000606565b9050919050565b60008115159050919050565b600073ffffffffffffffffffffffffffffffffffffffff82169050919050565b6200063181620005d2565b81146200063d57600080fd5b50565b6200064b81620005e6565b81146200065757600080fd5b50565b6200066581620005fa565b81146200067157600080fd5b50565b61201a80620006846000396000f3fe60806040526004361061007f5760003560e01c8063ac7d322e1161004e578063ac7d322e14610121578063ca628c781461014c578063faa9bce914610177578063fcd7e3c81461019357610086565b80632b68b9c61461008b5780632e1a7d4d146100a25780634093a52d146100cb57806361d027b3146100f657610086565b3661008657005b600080fd5b34801561009757600080fd5b506100a06101be565b005b3480156100ae57600080fd5b506100c960048036038101906100c49190611910565b610289565b005b3480156100d757600080fd5b506100e0610df0565b6040516100ed9190611e03565b60405180910390f35b34801561010257600080fd5b5061010b610df6565b6040516101189190611ba1565b60405180910390f35b34801561012d57600080fd5b50610136610e1c565b6040516101439190611d66565b60405180910390f35b34801561015857600080fd5b50610161610e2f565b60405161016e9190611ba1565b60405180910390f35b610191600480360381019061018c9190611962565b610e55565b005b34801561019f57600080fd5b506101a86113cc565b6040516101b59190611d66565b60405180910390f35b600160009054906101000a900473ffffffffffffffffffffffffffffffffffffffff1673ffffffffffffffffffffffffffffffffffffffff163373ffffffffffffffffffffffffffffffffffffffff161461024e576040517f08c379a000000000000000000000000000000000000000000000000000000000815260040161024590611d81565b60405180910390fd5b600160009054906101000a900473ffffffffffffffffffffffffffffffffffffffff1673ffffffffffffffffffffffffffffffffffffffff16ff5b4262278d00600354011115806102b2575060001515600260149054906101000a900460ff161515145b6102f1576040517f08c379a00000000000000000000000000000000000000000000000000000000081526004016102e890611da1565b60405180910390fd5b60001515600460149054906101000a900460ff16151514610347576040517f08c379a000000000000000000000000000000000000000000000000000000000815260040161033e90611dc1565b60405180910390fd5b6001600460146101000a81548160ff02191690831515021790555060008060009054906101000a900473ffffffffffffffffffffffffffffffffffffffff1673ffffffffffffffffffffffffffffffffffffffff16600260009054906101000a900473ffffffffffffffffffffffffffffffffffffffff1673ffffffffffffffffffffffffffffffffffffffff16141561085557600082600c60009054906101000a900473ffffffffffffffffffffffffffffffffffffffff1673ffffffffffffffffffffffffffffffffffffffff166370a08231306040518263ffffffff1660e01b81526004016104399190611bbc565b60206040518083038186803b15801561045157600080fd5b505afa158015610465573d6000803e3d6000fd5b505050506040513d601f19601f820116820180604052508101906104899190611939565b03905060006007600a838161049a57fe5b040284019050600c60009054906101000a900473ffffffffffffffffffffffffffffffffffffffff1673ffffffffffffffffffffffffffffffffffffffff1663095ea7b3600760009054906101000a900473ffffffffffffffffffffffffffffffffffffffff16600c60009054906101000a900473ffffffffffffffffffffffffffffffffffffffff1673ffffffffffffffffffffffffffffffffffffffff166370a08231306040518263ffffffff1660e01b815260040161055c9190611bbc565b60206040518083038186803b15801561057457600080fd5b505afa158015610588573d6000803e3d6000fd5b505050506040513d601f19601f820116820180604052508101906105ac9190611939565b6040518363ffffffff1660e01b81526004016105c9929190611c8a565b602060405180830381600087803b1580156105e357600080fd5b505af11580156105f7573d6000803e3d6000fd5b505050506040513d601f19601f8201168201806040525081019061061b91906118e7565b50600760009054906101000a900473ffffffffffffffffffffffffffffffffffffffff1673ffffffffffffffffffffffffffffffffffffffff166380500d20600660009054906101000a900473ffffffffffffffffffffffffffffffffffffffff16600c60009054906101000a900473ffffffffffffffffffffffffffffffffffffffff1673ffffffffffffffffffffffffffffffffffffffff166370a08231306040518263ffffffff1660e01b81526004016106d89190611bbc565b60206040518083038186803b1580156106f057600080fd5b505afa158015610704573d6000803e3d6000fd5b505050506040513d601f19601f820116820180604052508101906107289190611939565b306040518463ffffffff1660e01b815260040161074793929190611cea565b600060405180830381600087803b15801561076157600080fd5b505af1158015610775573d6000803e3d6000fd5b50505050600460009054906101000a900473ffffffffffffffffffffffffffffffffffffffff1673ffffffffffffffffffffffffffffffffffffffff166108fc829081150290604051600060405180830381858888f193505050501580156107e1573d6000803e3d6000fd5b50600160009054906101000a900473ffffffffffffffffffffffffffffffffffffffff1673ffffffffffffffffffffffffffffffffffffffff166108fc479081150290604051600060405180830381858888f1935050505015801561084a573d6000803e3d6000fd5b508092505050610d93565b600061085f6113df565b90506000838273ffffffffffffffffffffffffffffffffffffffff166370a08231306040518263ffffffff1660e01b815260040161089d9190611bbc565b60206040518083038186803b1580156108b557600080fd5b505afa1580156108c9573d6000803e3d6000fd5b505050506040513d601f19601f820116820180604052508101906108ed9190611939565b03905060006007600a83816108fe57fe5b0402850190508093508273ffffffffffffffffffffffffffffffffffffffff166370a08231306040518263ffffffff1660e01b81526004016109409190611bbc565b60206040518083038186803b15801561095857600080fd5b505afa15801561096c573d6000803e3d6000fd5b505050506040513d601f19601f820116820180604052508101906109909190611939565b811115610b1a57600660009054906101000a900473ffffffffffffffffffffffffffffffffffffffff1673ffffffffffffffffffffffffffffffffffffffff166369328dec600260009054906101000a900473ffffffffffffffffffffffffffffffffffffffff168573ffffffffffffffffffffffffffffffffffffffff166370a08231306040518263ffffffff1660e01b8152600401610a319190611bbc565b60206040518083038186803b158015610a4957600080fd5b505afa158015610a5d573d6000803e3d6000fd5b505050506040513d601f19601f82011682018060405250810190610a819190611939565b600460009054906101000a900473ffffffffffffffffffffffffffffffffffffffff166040518463ffffffff1660e01b8152600401610ac293929190611cb3565b602060405180830381600087803b158015610adc57600080fd5b505af1158015610af0573d6000803e3d6000fd5b505050506040513d601f19601f82011682018060405250810190610b149190611939565b50610d8f565b600660009054906101000a900473ffffffffffffffffffffffffffffffffffffffff1673ffffffffffffffffffffffffffffffffffffffff166369328dec600260009054906101000a900473ffffffffffffffffffffffffffffffffffffffff1683600460009054906101000a900473ffffffffffffffffffffffffffffffffffffffff166040518463ffffffff1660e01b8152600401610bbd93929190611cb3565b602060405180830381600087803b158015610bd757600080fd5b505af1158015610beb573d6000803e3d6000fd5b505050506040513d601f19601f82011682018060405250810190610c0f9190611939565b50600660009054906101000a900473ffffffffffffffffffffffffffffffffffffffff1673ffffffffffffffffffffffffffffffffffffffff166369328dec600260009054906101000a900473ffffffffffffffffffffffffffffffffffffffff168573ffffffffffffffffffffffffffffffffffffffff166370a08231306040518263ffffffff1660e01b8152600401610caa9190611bbc565b60206040518083038186803b158015610cc257600080fd5b505afa158015610cd6573d6000803e3d6000fd5b505050506040513d601f19601f82011682018060405250810190610cfa9190611939565b600160009054906101000a900473ffffffffffffffffffffffffffffffffffffffff166040518463ffffffff1660e01b8152600401610d3b93929190611cea565b602060405180830381600087803b158015610d5557600080fd5b505af1158015610d69573d6000803e3d6000fd5b505050506040513d601f19601f82011682018060405250810190610d8d9190611939565b505b5050505b426003819055506000600460146101000a81548160ff0219169083151502179055507f5b6b431d4476a211bb7d41c20d1aab9ae2321deee0d20be3d9fc9b1093fa6e3d81604051610de49190611e03565b60405180910390a15050565b60035481565b600460009054906101000a900473ffffffffffffffffffffffffffffffffffffffff1681565b600260159054906101000a900460ff1681565b600260009054906101000a900473ffffffffffffffffffffffffffffffffffffffff1681565b60008273ffffffffffffffffffffffffffffffffffffffff1660008054906101000a900473ffffffffffffffffffffffffffffffffffffffff1673ffffffffffffffffffffffffffffffffffffffff1614610f415760008390508073ffffffffffffffffffffffffffffffffffffffff166323b872dd3330886040518463ffffffff1660e01b8152600401610eec93929190611bd7565b602060405180830381600087803b158015610f0657600080fd5b505af1158015610f1a573d6000803e3d6000fd5b505050506040513d601f19601f82011682018060405250810190610f3e91906118e7565b50505b8273ffffffffffffffffffffffffffffffffffffffff16600260009054906101000a900473ffffffffffffffffffffffffffffffffffffffff1673ffffffffffffffffffffffffffffffffffffffff1614610fa857610fa1838386611635565b9050610fac565b8390505b60008054906101000a900473ffffffffffffffffffffffffffffffffffffffff1673ffffffffffffffffffffffffffffffffffffffff16600260009054906101000a900473ffffffffffffffffffffffffffffffffffffffff1673ffffffffffffffffffffffffffffffffffffffff1614801561102857508381145b156110ea57349350600760009054906101000a900473ffffffffffffffffffffffffffffffffffffffff1673ffffffffffffffffffffffffffffffffffffffff1663474cf53d47600660009054906101000a900473ffffffffffffffffffffffffffffffffffffffff163060006040518563ffffffff1660e01b81526004016110b393929190611c53565b6000604051808303818588803b1580156110cc57600080fd5b505af11580156110e0573d6000803e3d6000fd5b5050505050611389565b6000600260009054906101000a900473ffffffffffffffffffffffffffffffffffffffff1690508073ffffffffffffffffffffffffffffffffffffffff1663095ea7b3600660009054906101000a900473ffffffffffffffffffffffffffffffffffffffff168373ffffffffffffffffffffffffffffffffffffffff166370a08231306040518263ffffffff1660e01b81526004016111899190611bbc565b60206040518083038186803b1580156111a157600080fd5b505afa1580156111b5573d6000803e3d6000fd5b505050506040513d601f19601f820116820180604052508101906111d99190611939565b6040518363ffffffff1660e01b81526004016111f6929190611c8a565b602060405180830381600087803b15801561121057600080fd5b505af1158015611224573d6000803e3d6000fd5b505050506040513d601f19601f8201168201806040525081019061124891906118e7565b50600660009054906101000a900473ffffffffffffffffffffffffffffffffffffffff1673ffffffffffffffffffffffffffffffffffffffff1663e8eda9df600260009054906101000a900473ffffffffffffffffffffffffffffffffffffffff168373ffffffffffffffffffffffffffffffffffffffff166370a08231306040518263ffffffff1660e01b81526004016112e39190611bbc565b60206040518083038186803b1580156112fb57600080fd5b505afa15801561130f573d6000803e3d6000fd5b505050506040513d601f19601f820116820180604052508101906113339190611939565b3060006040518563ffffffff1660e01b81526004016113559493929190611d21565b600060405180830381600087803b15801561136f57600080fd5b505af1158015611383573d6000803e3d6000fd5b50505050505b7fb4e90aede11d33584a87d3caf846b0dd4819cd78ff1a28d7c7ab93d01c9d0384338583866040516113be9493929190611c0e565b60405180910390a150505050565b600260149054906101000a900460ff1681565b6000736b175474e89094c44da98b954eedeac495271d0f73ffffffffffffffffffffffffffffffffffffffff16600260009054906101000a900473ffffffffffffffffffffffffffffffffffffffff1673ffffffffffffffffffffffffffffffffffffffff16141561147557600860009054906101000a900473ffffffffffffffffffffffffffffffffffffffff169050611632565b73dac17f958d2ee523a2206206994597c13d831ec773ffffffffffffffffffffffffffffffffffffffff16600260009054906101000a900473ffffffffffffffffffffffffffffffffffffffff1673ffffffffffffffffffffffffffffffffffffffff16141561150957600a60009054906101000a900473ffffffffffffffffffffffffffffffffffffffff169050611632565b73a0b86991c6218b36c1d19d4a2e9eb0ce3606eb4873ffffffffffffffffffffffffffffffffffffffff16600260009054906101000a900473ffffffffffffffffffffffffffffffffffffffff1673ffffffffffffffffffffffffffffffffffffffff16141561159d57600960009054906101000a900473ffffffffffffffffffffffffffffffffffffffff169050611632565b732260fac5e5542a773aa44fbcfedf7c193bc2c59973ffffffffffffffffffffffffffffffffffffffff16600260009054906101000a900473ffffffffffffffffffffffffffffffffffffffff1673ffffffffffffffffffffffffffffffffffffffff16141561163157600b60009054906101000a900473ffffffffffffffffffffffffffffffffffffffff169050611632565b5b90565b6000808490508073ffffffffffffffffffffffffffffffffffffffff1663095ea7b3600560009054906101000a900473ffffffffffffffffffffffffffffffffffffffff16856040518363ffffffff1660e01b8152600401611698929190611c8a565b602060405180830381600087803b1580156116b257600080fd5b505af11580156116c6573d6000803e3d6000fd5b505050506040513d601f19601f820116820180604052508101906116ea91906118e7565b506116f36117fa565b6040518060a001604052808681526020013073ffffffffffffffffffffffffffffffffffffffff16815260200142815260200185815260200160008152509050600047141561174157600093505b600560009054906101000a900473ffffffffffffffffffffffffffffffffffffffff1673ffffffffffffffffffffffffffffffffffffffff1663c04b8d5985836040518363ffffffff1660e01b815260040161179d9190611de1565b6020604051808303818588803b1580156117b657600080fd5b505af11580156117ca573d6000803e3d6000fd5b50505050506040513d601f19601f820116820180604052508101906117ef9190611939565b925050509392505050565b6040518060a0016040528060608152602001600073ffffffffffffffffffffffffffffffffffffffff1681526020016000815260200160008152602001600081525090565b60008135905061184e81611f9f565b92915050565b60008151905061186381611fb6565b92915050565b600082601f83011261187a57600080fd5b813561188d61188882611e4f565b611e1e565b915080825260208301602083018583830111156118a957600080fd5b6118b4838284611f4a565b50505092915050565b6000813590506118cc81611fcd565b92915050565b6000815190506118e181611fcd565b92915050565b6000602082840312156118f957600080fd5b600061190784828501611854565b91505092915050565b60006020828403121561192257600080fd5b6000611930848285016118bd565b91505092915050565b60006020828403121561194b57600080fd5b6000611959848285016118d2565b91505092915050565b60008060006060848603121561197757600080fd5b6000611985868287016118bd565b93505060206119968682870161183f565b925050604084013567ffffffffffffffff8111156119b357600080fd5b6119bf86828701611869565b9150509250925092565b6119d281611f02565b82525050565b6119e181611eac565b82525050565b6119f081611eac565b82525050565b6119ff81611ebe565b82525050565b6000611a1082611e7f565b611a1a8185611e8a565b9350611a2a818560208601611f59565b611a3381611f8e565b840191505092915050565b611a4781611f14565b82525050565b6000611a5a600d83611e9b565b91507f4e6f7420746865206f776e6572000000000000000000000000000000000000006000830152602082019050919050565b6000611a9a601583611e9b565b91507f4e6f7420726561647920746f20776974686472617700000000000000000000006000830152602082019050919050565b6000611ada601283611e9b565b91507f416c72656164792070726f63657373696e6700000000000000000000000000006000830152602082019050919050565b600060a0830160008301518482036000860152611b2a8282611a05565b9150506020830151611b3f60208601826119d8565b506040830151611b526040860182611b83565b506060830151611b656060860182611b83565b506080830151611b786080860182611b83565b508091505092915050565b611b8c81611ef8565b82525050565b611b9b81611ef8565b82525050565b6000602082019050611bb660008301846119e7565b92915050565b6000602082019050611bd160008301846119c9565b92915050565b6000606082019050611bec60008301866119c9565b611bf960208301856119c9565b611c066040830184611b92565b949350505050565b6000608082019050611c2360008301876119c9565b611c306020830186611b92565b611c3d6040830185611b92565b611c4a60608301846119e7565b95945050505050565b6000606082019050611c6860008301866119e7565b611c7560208301856119c9565b611c826040830184611a3e565b949350505050565b6000604082019050611c9f60008301856119e7565b611cac6020830184611b92565b9392505050565b6000606082019050611cc860008301866119e7565b611cd56020830185611b92565b611ce260408301846119e7565b949350505050565b6000606082019050611cff60008301866119e7565b611d0c6020830185611b92565b611d1960408301846119c9565b949350505050565b6000608082019050611d3660008301876119e7565b611d436020830186611b92565b611d5060408301856119c9565b611d5d6060830184611a3e565b95945050505050565b6000602082019050611d7b60008301846119f6565b92915050565b60006020820190508181036000830152611d9a81611a4d565b9050919050565b60006020820190508181036000830152611dba81611a8d565b9050919050565b60006020820190508181036000830152611dda81611acd565b9050919050565b60006020820190508181036000830152611dfb8184611b0d565b905092915050565b6000602082019050611e186000830184611b92565b92915050565b6000604051905081810181811067ffffffffffffffff82111715611e4557611e44611f8c565b5b8060405250919050565b600067ffffffffffffffff821115611e6a57611e69611f8c565b5b601f19601f8301169050602081019050919050565b600081519050919050565b600082825260208201905092915050565b600082825260208201905092915050565b6000611eb782611ed8565b9050919050565b60008115159050919050565b600061ffff82169050919050565b600073ffffffffffffffffffffffffffffffffffffffff82169050919050565b6000819050919050565b6000611f0d82611f26565b9050919050565b6000611f1f82611eca565b9050919050565b6000611f3182611f38565b9050919050565b6000611f4382611ed8565b9050919050565b82818337600083830152505050565b60005b83811015611f77578082015181840152602081019050611f5c565b83811115611f86576000848401525b50505050565bfe5b6000601f19601f8301169050919050565b611fa881611eac565b8114611fb357600080fd5b50565b611fbf81611ebe565b8114611fca57600080fd5b50565b611fd681611ef8565b8114611fe157600080fd5b5056fea26469706673582212206b0fcbd2fb52cdc77bd512702a42700299556f7f3d74781f0ac559c05131c34164736f6c63430007050033",
  "linkReferences": {},
  "deployedLinkReferences": {}
}