{
  "_format": "hh-sol-artifact-1",
  "contractName": "JulzPay",
  "sourceName": "src/contracts/JulzPay.sol",
  "abi": [
    {
      "inputs": [
        {
          "internalType": "address payable",
          "name": "_owner",
          "type": "address"
        },
        {
          "internalType": "bool",
          "name": "_monthly",
          "type": "bool"
        },
        {
          "internalType": "bool",
          "name": "_covergas",
          "type": "bool"
        },
        {
          "internalType": "address",
          "name": "_treasury",
          "type": "address"
        },
        {
          "internalType": "address",
          "name": "_withdrawToken",
          "type": "address"
        },
        {
          "internalType": "address",
          "name": "_WETH_ADD",
          "type": "address"
        }
      ],
      "stateMutability": "payable",
      "type": "constructor"
    },
    {
      "anonymous": false,
      "inputs": [
        {
          "indexed": false,
          "internalType": "address",
          "name": "sender",
          "type": "address"
        },
        {
          "indexed": false,
          "internalType": "uint256",
          "name": "amountReceived",
          "type": "uint256"
        },
        {
          "indexed": false,
          "internalType": "uint256",
          "name": "amountDeposited",
          "type": "uint256"
        },
        {
          "indexed": false,
          "internalType": "address",
          "name": "token",
          "type": "address"
        }
      ],
      "name": "Paid",
      "type": "event"
    },
    {
      "anonymous": false,
      "inputs": [
        {
          "indexed": false,
          "internalType": "uint256",
          "name": "",
          "type": "uint256"
        }
      ],
      "name": "Withdraw",
      "type": "event"
    },
    {
      "inputs": [],
      "name": "covergas",
      "outputs": [
        {
          "internalType": "bool",
          "name": "",
          "type": "bool"
        }
      ],
      "stateMutability": "view",
      "type": "function"
    },
    {
      "inputs": [
        {
          "internalType": "uint256",
          "name": "_amount",
          "type": "uint256"
        },
        {
          "internalType": "address",
          "name": "_token",
          "type": "address"
        },
        {
          "internalType": "bytes",
          "name": "path",
          "type": "bytes"
        }
      ],
      "name": "deposit",
      "outputs": [],
      "stateMutability": "payable",
      "type": "function"
    },
    {
      "inputs": [],
      "name": "destruct",
      "outputs": [],
      "stateMutability": "nonpayable",
      "type": "function"
    },
    {
      "inputs": [],
      "name": "lastWithdrawDate",
      "outputs": [
        {
          "internalType": "uint256",
          "name": "",
          "type": "uint256"
        }
      ],
      "stateMutability": "view",
      "type": "function"
    },
    {
      "inputs": [],
      "name": "monthly",
      "outputs": [
        {
          "internalType": "bool",
          "name": "",
          "type": "bool"
        }
      ],
      "stateMutability": "view",
      "type": "function"
    },
    {
      "inputs": [
        {
          "internalType": "address",
          "name": "_token",
          "type": "address"
        },
        {
          "internalType": "bytes",
          "name": "path",
          "type": "bytes"
        },
        {
          "internalType": "uint256",
          "name": "amount",
          "type": "uint256"
        }
      ],
      "name": "swap",
      "outputs": [
        {
          "internalType": "uint256",
          "name": "result",
          "type": "uint256"
        }
      ],
      "stateMutability": "nonpayable",
      "type": "function"
    },
    {
      "inputs": [],
      "name": "treasury",
      "outputs": [
        {
          "internalType": "address",
          "name": "",
          "type": "address"
        }
      ],
      "stateMutability": "view",
      "type": "function"
    },
    {
      "inputs": [
        {
          "internalType": "uint256",
          "name": "originalDeposits",
          "type": "uint256"
        }
      ],
      "name": "withdraw",
      "outputs": [],
      "stateMutability": "nonpayable",
      "type": "function"
    },
    {
      "inputs": [],
      "name": "withdrawToken",
      "outputs": [
        {
          "internalType": "address",
          "name": "",
          "type": "address"
        }
      ],
      "stateMutability": "view",
      "type": "function"
    },
    {
      "stateMutability": "payable",
      "type": "receive"
    }
  ],
  "bytecode": "0x608060405273e592427a0aece92de3edee1f18e0157c05861564600560006101000a81548173ffffffffffffffffffffffffffffffffffffffff021916908373ffffffffffffffffffffffffffffffffffffffff160217905550737d2768de32b0b80b7a3454c06bdac94a69ddc7a9600660006101000a81548173ffffffffffffffffffffffffffffffffffffffff021916908373ffffffffffffffffffffffffffffffffffffffff16021790555073cc9a0b7c43dc2a5f023bb9b738e45b0ef6b06e04600760006101000a81548173ffffffffffffffffffffffffffffffffffffffff021916908373ffffffffffffffffffffffffffffffffffffffff16021790555073028171bca77440897b824ca71d1c56cac55b68a3600860006101000a81548173ffffffffffffffffffffffffffffffffffffffff021916908373ffffffffffffffffffffffffffffffffffffffff16021790555073a0b86991c6218b36c1d19d4a2e9eb0ce3606eb48600960006101000a81548173ffffffffffffffffffffffffffffffffffffffff021916908373ffffffffffffffffffffffffffffffffffffffff16021790555073dac17f958d2ee523a2206206994597c13d831ec7600a60006101000a81548173ffffffffffffffffffffffffffffffffffffffff021916908373ffffffffffffffffffffffffffffffffffffffff160217905550732260fac5e5542a773aa44fbcfedf7c193bc2c599600b60006101000a81548173ffffffffffffffffffffffffffffffffffffffff021916908373ffffffffffffffffffffffffffffffffffffffff16021790555073030ba81f1c18d280636f32af80b9aad02cf0854e600c60006101000a81548173ffffffffffffffffffffffffffffffffffffffff021916908373ffffffffffffffffffffffffffffffffffffffff160217905550604051620027b5380380620027b58339818101604052810190620002d191906200052f565b8480620002e9575084158015620002e85750600034115b5b6200032b576040517f08c379a0000000000000000000000000000000000000000000000000000000008152600401620003229062000607565b60405180910390fd5b85600160006101000a81548173ffffffffffffffffffffffffffffffffffffffff021916908373ffffffffffffffffffffffffffffffffffffffff16021790555084600260146101000a81548160ff02191690831515021790555083600260156101000a81548160ff02191690831515021790555081600260006101000a81548173ffffffffffffffffffffffffffffffffffffffff021916908373ffffffffffffffffffffffffffffffffffffffff1602179055504260038190555082600460006101000a81548173ffffffffffffffffffffffffffffffffffffffff021916908373ffffffffffffffffffffffffffffffffffffffff160217905550806000806101000a81548173ffffffffffffffffffffffffffffffffffffffff021916908373ffffffffffffffffffffffffffffffffffffffff1602179055506000341115620004de57600160009054906101000a900473ffffffffffffffffffffffffffffffffffffffff1673ffffffffffffffffffffffffffffffffffffffff166108fc479081150290604051600060405180830381858888f19350505050158015620004dc573d6000803e3d6000fd5b505b505050505050620006dc565b600081519050620004fb816200068e565b92915050565b6000815190506200051281620006a8565b92915050565b6000815190506200052981620006c2565b92915050565b60008060008060008060c087890312156200054957600080fd5b60006200055989828a0162000501565b96505060206200056c89828a0162000518565b95505060406200057f89828a0162000518565b94505060606200059289828a01620004ea565b9350506080620005a589828a01620004ea565b92505060a0620005b889828a01620004ea565b9150509295509295509295565b6000620005d460148362000629565b91507f4e6f742066756e64656420636f72726563746c790000000000000000000000006000830152602082019050919050565b600060208201905081810360008301526200062281620005c5565b9050919050565b600082825260208201905092915050565b600062000647826200066e565b9050919050565b60006200065b826200066e565b9050919050565b60008115159050919050565b600073ffffffffffffffffffffffffffffffffffffffff82169050919050565b62000699816200063a565b8114620006a557600080fd5b50565b620006b3816200064e565b8114620006bf57600080fd5b50565b620006cd8162000662565b8114620006d957600080fd5b50565b6120c980620006ec6000396000f3fe60806040526004361061008a5760003560e01c8063ac7d322e11610059578063ac7d322e1461012c578063b7d0428914610157578063ca628c7814610194578063faa9bce9146101bf578063fcd7e3c8146101db57610091565b80632b68b9c6146100965780632e1a7d4d146100ad5780634093a52d146100d657806361d027b31461010157610091565b3661009157005b600080fd5b3480156100a257600080fd5b506100ab610206565b005b3480156100b957600080fd5b506100d460048036038101906100cf91906119bf565b6102d1565b005b3480156100e257600080fd5b506100eb610e38565b6040516100f89190611eb2565b60405180910390f35b34801561010d57600080fd5b50610116610e3e565b6040516101239190611c50565b60405180910390f35b34801561013857600080fd5b50610141610e64565b60405161014e9190611e15565b60405180910390f35b34801561016357600080fd5b5061017e6004803603810190610179919061192f565b610e77565b60405161018b9190611eb2565b60405180910390f35b3480156101a057600080fd5b506101a961103c565b6040516101b69190611c50565b60405180910390f35b6101d960048036038101906101d49190611a11565b611062565b005b3480156101e757600080fd5b506101f06115d9565b6040516101fd9190611e15565b60405180910390f35b600160009054906101000a900473ffffffffffffffffffffffffffffffffffffffff1673ffffffffffffffffffffffffffffffffffffffff163373ffffffffffffffffffffffffffffffffffffffff1614610296576040517f08c379a000000000000000000000000000000000000000000000000000000000815260040161028d90611e30565b60405180910390fd5b600160009054906101000a900473ffffffffffffffffffffffffffffffffffffffff1673ffffffffffffffffffffffffffffffffffffffff16ff5b4262278d00600354011115806102fa575060001515600260149054906101000a900460ff161515145b610339576040517f08c379a000000000000000000000000000000000000000000000000000000000815260040161033090611e50565b60405180910390fd5b60001515600460149054906101000a900460ff1615151461038f576040517f08c379a000000000000000000000000000000000000000000000000000000000815260040161038690611e70565b60405180910390fd5b6001600460146101000a81548160ff02191690831515021790555060008060009054906101000a900473ffffffffffffffffffffffffffffffffffffffff1673ffffffffffffffffffffffffffffffffffffffff16600260009054906101000a900473ffffffffffffffffffffffffffffffffffffffff1673ffffffffffffffffffffffffffffffffffffffff16141561089d57600082600c60009054906101000a900473ffffffffffffffffffffffffffffffffffffffff1673ffffffffffffffffffffffffffffffffffffffff166370a08231306040518263ffffffff1660e01b81526004016104819190611c6b565b60206040518083038186803b15801561049957600080fd5b505afa1580156104ad573d6000803e3d6000fd5b505050506040513d601f19601f820116820180604052508101906104d191906119e8565b03905060006007600a83816104e257fe5b040284019050600c60009054906101000a900473ffffffffffffffffffffffffffffffffffffffff1673ffffffffffffffffffffffffffffffffffffffff1663095ea7b3600760009054906101000a900473ffffffffffffffffffffffffffffffffffffffff16600c60009054906101000a900473ffffffffffffffffffffffffffffffffffffffff1673ffffffffffffffffffffffffffffffffffffffff166370a08231306040518263ffffffff1660e01b81526004016105a49190611c6b565b60206040518083038186803b1580156105bc57600080fd5b505afa1580156105d0573d6000803e3d6000fd5b505050506040513d601f19601f820116820180604052508101906105f491906119e8565b6040518363ffffffff1660e01b8152600401610611929190611d39565b602060405180830381600087803b15801561062b57600080fd5b505af115801561063f573d6000803e3d6000fd5b505050506040513d601f19601f820116820180604052508101906106639190611996565b50600760009054906101000a900473ffffffffffffffffffffffffffffffffffffffff1673ffffffffffffffffffffffffffffffffffffffff166380500d20600660009054906101000a900473ffffffffffffffffffffffffffffffffffffffff16600c60009054906101000a900473ffffffffffffffffffffffffffffffffffffffff1673ffffffffffffffffffffffffffffffffffffffff166370a08231306040518263ffffffff1660e01b81526004016107209190611c6b565b60206040518083038186803b15801561073857600080fd5b505afa15801561074c573d6000803e3d6000fd5b505050506040513d601f19601f8201168201806040525081019061077091906119e8565b306040518463ffffffff1660e01b815260040161078f93929190611d99565b600060405180830381600087803b1580156107a957600080fd5b505af11580156107bd573d6000803e3d6000fd5b50505050600460009054906101000a900473ffffffffffffffffffffffffffffffffffffffff1673ffffffffffffffffffffffffffffffffffffffff166108fc829081150290604051600060405180830381858888f19350505050158015610829573d6000803e3d6000fd5b50600160009054906101000a900473ffffffffffffffffffffffffffffffffffffffff1673ffffffffffffffffffffffffffffffffffffffff166108fc479081150290604051600060405180830381858888f19350505050158015610892573d6000803e3d6000fd5b508092505050610ddb565b60006108a76115ec565b90506000838273ffffffffffffffffffffffffffffffffffffffff166370a08231306040518263ffffffff1660e01b81526004016108e59190611c6b565b60206040518083038186803b1580156108fd57600080fd5b505afa158015610911573d6000803e3d6000fd5b505050506040513d601f19601f8201168201806040525081019061093591906119e8565b03905060006007600a838161094657fe5b0402850190508093508273ffffffffffffffffffffffffffffffffffffffff166370a08231306040518263ffffffff1660e01b81526004016109889190611c6b565b60206040518083038186803b1580156109a057600080fd5b505afa1580156109b4573d6000803e3d6000fd5b505050506040513d601f19601f820116820180604052508101906109d891906119e8565b811115610b6257600660009054906101000a900473ffffffffffffffffffffffffffffffffffffffff1673ffffffffffffffffffffffffffffffffffffffff166369328dec600260009054906101000a900473ffffffffffffffffffffffffffffffffffffffff168573ffffffffffffffffffffffffffffffffffffffff166370a08231306040518263ffffffff1660e01b8152600401610a799190611c6b565b60206040518083038186803b158015610a9157600080fd5b505afa158015610aa5573d6000803e3d6000fd5b505050506040513d601f19601f82011682018060405250810190610ac991906119e8565b600460009054906101000a900473ffffffffffffffffffffffffffffffffffffffff166040518463ffffffff1660e01b8152600401610b0a93929190611d62565b602060405180830381600087803b158015610b2457600080fd5b505af1158015610b38573d6000803e3d6000fd5b505050506040513d601f19601f82011682018060405250810190610b5c91906119e8565b50610dd7565b600660009054906101000a900473ffffffffffffffffffffffffffffffffffffffff1673ffffffffffffffffffffffffffffffffffffffff166369328dec600260009054906101000a900473ffffffffffffffffffffffffffffffffffffffff1683600460009054906101000a900473ffffffffffffffffffffffffffffffffffffffff166040518463ffffffff1660e01b8152600401610c0593929190611d62565b602060405180830381600087803b158015610c1f57600080fd5b505af1158015610c33573d6000803e3d6000fd5b505050506040513d601f19601f82011682018060405250810190610c5791906119e8565b50600660009054906101000a900473ffffffffffffffffffffffffffffffffffffffff1673ffffffffffffffffffffffffffffffffffffffff166369328dec600260009054906101000a900473ffffffffffffffffffffffffffffffffffffffff168573ffffffffffffffffffffffffffffffffffffffff166370a08231306040518263ffffffff1660e01b8152600401610cf29190611c6b565b60206040518083038186803b158015610d0a57600080fd5b505afa158015610d1e573d6000803e3d6000fd5b505050506040513d601f19601f82011682018060405250810190610d4291906119e8565b600160009054906101000a900473ffffffffffffffffffffffffffffffffffffffff166040518463ffffffff1660e01b8152600401610d8393929190611d99565b602060405180830381600087803b158015610d9d57600080fd5b505af1158015610db1573d6000803e3d6000fd5b505050506040513d601f19601f82011682018060405250810190610dd591906119e8565b505b5050505b426003819055506000600460146101000a81548160ff0219169083151502179055507f5b6b431d4476a211bb7d41c20d1aab9ae2321deee0d20be3d9fc9b1093fa6e3d81604051610e2c9190611eb2565b60405180910390a15050565b60035481565b600460009054906101000a900473ffffffffffffffffffffffffffffffffffffffff1681565b600260159054906101000a900460ff1681565b6000808490508073ffffffffffffffffffffffffffffffffffffffff1663095ea7b3600560009054906101000a900473ffffffffffffffffffffffffffffffffffffffff16856040518363ffffffff1660e01b8152600401610eda929190611d39565b602060405180830381600087803b158015610ef457600080fd5b505af1158015610f08573d6000803e3d6000fd5b505050506040513d601f19601f82011682018060405250810190610f2c9190611996565b50610f35611842565b6040518060a001604052808681526020013073ffffffffffffffffffffffffffffffffffffffff168152602001428152602001858152602001600081525090506000471415610f8357600093505b600560009054906101000a900473ffffffffffffffffffffffffffffffffffffffff1673ffffffffffffffffffffffffffffffffffffffff1663c04b8d5985836040518363ffffffff1660e01b8152600401610fdf9190611e90565b6020604051808303818588803b158015610ff857600080fd5b505af115801561100c573d6000803e3d6000fd5b50505050506040513d601f19601f8201168201806040525081019061103191906119e8565b925050509392505050565b600260009054906101000a900473ffffffffffffffffffffffffffffffffffffffff1681565b60008273ffffffffffffffffffffffffffffffffffffffff1660008054906101000a900473ffffffffffffffffffffffffffffffffffffffff1673ffffffffffffffffffffffffffffffffffffffff161461114e5760008390508073ffffffffffffffffffffffffffffffffffffffff166323b872dd3330886040518463ffffffff1660e01b81526004016110f993929190611c86565b602060405180830381600087803b15801561111357600080fd5b505af1158015611127573d6000803e3d6000fd5b505050506040513d601f19601f8201168201806040525081019061114b9190611996565b50505b8273ffffffffffffffffffffffffffffffffffffffff16600260009054906101000a900473ffffffffffffffffffffffffffffffffffffffff1673ffffffffffffffffffffffffffffffffffffffff16146111b5576111ae838386610e77565b90506111b9565b8390505b60008054906101000a900473ffffffffffffffffffffffffffffffffffffffff1673ffffffffffffffffffffffffffffffffffffffff16600260009054906101000a900473ffffffffffffffffffffffffffffffffffffffff1673ffffffffffffffffffffffffffffffffffffffff1614801561123557508381145b156112f757349350600760009054906101000a900473ffffffffffffffffffffffffffffffffffffffff1673ffffffffffffffffffffffffffffffffffffffff1663474cf53d47600660009054906101000a900473ffffffffffffffffffffffffffffffffffffffff163060006040518563ffffffff1660e01b81526004016112c093929190611d02565b6000604051808303818588803b1580156112d957600080fd5b505af11580156112ed573d6000803e3d6000fd5b5050505050611596565b6000600260009054906101000a900473ffffffffffffffffffffffffffffffffffffffff1690508073ffffffffffffffffffffffffffffffffffffffff1663095ea7b3600660009054906101000a900473ffffffffffffffffffffffffffffffffffffffff168373ffffffffffffffffffffffffffffffffffffffff166370a08231306040518263ffffffff1660e01b81526004016113969190611c6b565b60206040518083038186803b1580156113ae57600080fd5b505afa1580156113c2573d6000803e3d6000fd5b505050506040513d601f19601f820116820180604052508101906113e691906119e8565b6040518363ffffffff1660e01b8152600401611403929190611d39565b602060405180830381600087803b15801561141d57600080fd5b505af1158015611431573d6000803e3d6000fd5b505050506040513d601f19601f820116820180604052508101906114559190611996565b50600660009054906101000a900473ffffffffffffffffffffffffffffffffffffffff1673ffffffffffffffffffffffffffffffffffffffff1663e8eda9df600260009054906101000a900473ffffffffffffffffffffffffffffffffffffffff168373ffffffffffffffffffffffffffffffffffffffff166370a08231306040518263ffffffff1660e01b81526004016114f09190611c6b565b60206040518083038186803b15801561150857600080fd5b505afa15801561151c573d6000803e3d6000fd5b505050506040513d601f19601f8201168201806040525081019061154091906119e8565b3060006040518563ffffffff1660e01b81526004016115629493929190611dd0565b600060405180830381600087803b15801561157c57600080fd5b505af1158015611590573d6000803e3d6000fd5b50505050505b7fb4e90aede11d33584a87d3caf846b0dd4819cd78ff1a28d7c7ab93d01c9d0384338583866040516115cb9493929190611cbd565b60405180910390a150505050565b600260149054906101000a900460ff1681565b6000736b175474e89094c44da98b954eedeac495271d0f73ffffffffffffffffffffffffffffffffffffffff16600260009054906101000a900473ffffffffffffffffffffffffffffffffffffffff1673ffffffffffffffffffffffffffffffffffffffff16141561168257600860009054906101000a900473ffffffffffffffffffffffffffffffffffffffff16905061183f565b73dac17f958d2ee523a2206206994597c13d831ec773ffffffffffffffffffffffffffffffffffffffff16600260009054906101000a900473ffffffffffffffffffffffffffffffffffffffff1673ffffffffffffffffffffffffffffffffffffffff16141561171657600a60009054906101000a900473ffffffffffffffffffffffffffffffffffffffff16905061183f565b73a0b86991c6218b36c1d19d4a2e9eb0ce3606eb4873ffffffffffffffffffffffffffffffffffffffff16600260009054906101000a900473ffffffffffffffffffffffffffffffffffffffff1673ffffffffffffffffffffffffffffffffffffffff1614156117aa57600960009054906101000a900473ffffffffffffffffffffffffffffffffffffffff16905061183f565b732260fac5e5542a773aa44fbcfedf7c193bc2c59973ffffffffffffffffffffffffffffffffffffffff16600260009054906101000a900473ffffffffffffffffffffffffffffffffffffffff1673ffffffffffffffffffffffffffffffffffffffff16141561183e57600b60009054906101000a900473ffffffffffffffffffffffffffffffffffffffff16905061183f565b5b90565b6040518060a0016040528060608152602001600073ffffffffffffffffffffffffffffffffffffffff1681526020016000815260200160008152602001600081525090565b6000813590506118968161204e565b92915050565b6000815190506118ab81612065565b92915050565b600082601f8301126118c257600080fd5b81356118d56118d082611efe565b611ecd565b915080825260208301602083018583830111156118f157600080fd5b6118fc838284611ff9565b50505092915050565b6000813590506119148161207c565b92915050565b6000815190506119298161207c565b92915050565b60008060006060848603121561194457600080fd5b600061195286828701611887565b935050602084013567ffffffffffffffff81111561196f57600080fd5b61197b868287016118b1565b925050604061198c86828701611905565b9150509250925092565b6000602082840312156119a857600080fd5b60006119b68482850161189c565b91505092915050565b6000602082840312156119d157600080fd5b60006119df84828501611905565b91505092915050565b6000602082840312156119fa57600080fd5b6000611a088482850161191a565b91505092915050565b600080600060608486031215611a2657600080fd5b6000611a3486828701611905565b9350506020611a4586828701611887565b925050604084013567ffffffffffffffff811115611a6257600080fd5b611a6e868287016118b1565b9150509250925092565b611a8181611fb1565b82525050565b611a9081611f5b565b82525050565b611a9f81611f5b565b82525050565b611aae81611f6d565b82525050565b6000611abf82611f2e565b611ac98185611f39565b9350611ad9818560208601612008565b611ae28161203d565b840191505092915050565b611af681611fc3565b82525050565b6000611b09600d83611f4a565b91507f4e6f7420746865206f776e6572000000000000000000000000000000000000006000830152602082019050919050565b6000611b49601583611f4a565b91507f4e6f7420726561647920746f20776974686472617700000000000000000000006000830152602082019050919050565b6000611b89601283611f4a565b91507f416c72656164792070726f63657373696e6700000000000000000000000000006000830152602082019050919050565b600060a0830160008301518482036000860152611bd98282611ab4565b9150506020830151611bee6020860182611a87565b506040830151611c016040860182611c32565b506060830151611c146060860182611c32565b506080830151611c276080860182611c32565b508091505092915050565b611c3b81611fa7565b82525050565b611c4a81611fa7565b82525050565b6000602082019050611c656000830184611a96565b92915050565b6000602082019050611c806000830184611a78565b92915050565b6000606082019050611c9b6000830186611a78565b611ca86020830185611a78565b611cb56040830184611c41565b949350505050565b6000608082019050611cd26000830187611a78565b611cdf6020830186611c41565b611cec6040830185611c41565b611cf96060830184611a96565b95945050505050565b6000606082019050611d176000830186611a96565b611d246020830185611a78565b611d316040830184611aed565b949350505050565b6000604082019050611d4e6000830185611a96565b611d5b6020830184611c41565b9392505050565b6000606082019050611d776000830186611a96565b611d846020830185611c41565b611d916040830184611a96565b949350505050565b6000606082019050611dae6000830186611a96565b611dbb6020830185611c41565b611dc86040830184611a78565b949350505050565b6000608082019050611de56000830187611a96565b611df26020830186611c41565b611dff6040830185611a78565b611e0c6060830184611aed565b95945050505050565b6000602082019050611e2a6000830184611aa5565b92915050565b60006020820190508181036000830152611e4981611afc565b9050919050565b60006020820190508181036000830152611e6981611b3c565b9050919050565b60006020820190508181036000830152611e8981611b7c565b9050919050565b60006020820190508181036000830152611eaa8184611bbc565b905092915050565b6000602082019050611ec76000830184611c41565b92915050565b6000604051905081810181811067ffffffffffffffff82111715611ef457611ef361203b565b5b8060405250919050565b600067ffffffffffffffff821115611f1957611f1861203b565b5b601f19601f8301169050602081019050919050565b600081519050919050565b600082825260208201905092915050565b600082825260208201905092915050565b6000611f6682611f87565b9050919050565b60008115159050919050565b600061ffff82169050919050565b600073ffffffffffffffffffffffffffffffffffffffff82169050919050565b6000819050919050565b6000611fbc82611fd5565b9050919050565b6000611fce82611f79565b9050919050565b6000611fe082611fe7565b9050919050565b6000611ff282611f87565b9050919050565b82818337600083830152505050565b60005b8381101561202657808201518184015260208101905061200b565b83811115612035576000848401525b50505050565bfe5b6000601f19601f8301169050919050565b61205781611f5b565b811461206257600080fd5b50565b61206e81611f6d565b811461207957600080fd5b50565b61208581611fa7565b811461209057600080fd5b5056fea26469706673582212207439b53004b8885ce4baacbd8b82512cfea1a19fd5ec11a31879ef16b44fb9b764736f6c63430007050033",
  "linkReferences": {},
  "deployedLinkReferences": {}
}