{
  "_format": "hh-sol-artifact-1",
  "contractName": "JulzPay",
  "sourceName": "src/contracts/JulzPay.sol",
  "abi": [
    {
      "inputs": [
        {
          "internalType": "address payable",
          "name": "_owner",
          "type": "address"
        },
        {
          "internalType": "bool",
          "name": "_monthly",
          "type": "bool"
        },
        {
          "internalType": "bool",
          "name": "_covergas",
          "type": "bool"
        },
        {
          "internalType": "address",
          "name": "_treasury",
          "type": "address"
        },
        {
          "internalType": "address",
          "name": "_withdrawToken",
          "type": "address"
        },
        {
          "internalType": "address",
          "name": "_WETH_ADD",
          "type": "address"
        }
      ],
      "stateMutability": "payable",
      "type": "constructor"
    },
    {
      "anonymous": false,
      "inputs": [
        {
          "indexed": false,
          "internalType": "address",
          "name": "sender",
          "type": "address"
        },
        {
          "indexed": false,
          "internalType": "uint256",
          "name": "amountReceived",
          "type": "uint256"
        },
        {
          "indexed": false,
          "internalType": "uint256",
          "name": "amountDeposited",
          "type": "uint256"
        },
        {
          "indexed": false,
          "internalType": "address",
          "name": "token",
          "type": "address"
        }
      ],
      "name": "Paid",
      "type": "event"
    },
    {
      "anonymous": false,
      "inputs": [
        {
          "indexed": false,
          "internalType": "uint256",
          "name": "",
          "type": "uint256"
        }
      ],
      "name": "Withdraw",
      "type": "event"
    },
    {
      "inputs": [],
      "name": "covergas",
      "outputs": [
        {
          "internalType": "bool",
          "name": "",
          "type": "bool"
        }
      ],
      "stateMutability": "view",
      "type": "function"
    },
    {
      "inputs": [
        {
          "internalType": "uint256",
          "name": "_amount",
          "type": "uint256"
        },
        {
          "internalType": "address",
          "name": "_token",
          "type": "address"
        },
        {
          "internalType": "bytes",
          "name": "path",
          "type": "bytes"
        }
      ],
      "name": "deposit",
      "outputs": [],
      "stateMutability": "payable",
      "type": "function"
    },
    {
      "inputs": [],
      "name": "destruct",
      "outputs": [],
      "stateMutability": "nonpayable",
      "type": "function"
    },
    {
      "inputs": [],
      "name": "lastWithdrawDate",
      "outputs": [
        {
          "internalType": "uint256",
          "name": "",
          "type": "uint256"
        }
      ],
      "stateMutability": "view",
      "type": "function"
    },
    {
      "inputs": [],
      "name": "monthly",
      "outputs": [
        {
          "internalType": "bool",
          "name": "",
          "type": "bool"
        }
      ],
      "stateMutability": "view",
      "type": "function"
    },
    {
      "inputs": [
        {
          "internalType": "address",
          "name": "_token",
          "type": "address"
        },
        {
          "internalType": "bytes",
          "name": "path",
          "type": "bytes"
        },
        {
          "internalType": "uint256",
          "name": "amount",
          "type": "uint256"
        }
      ],
      "name": "swap",
      "outputs": [
        {
          "internalType": "uint256",
          "name": "result",
          "type": "uint256"
        }
      ],
      "stateMutability": "nonpayable",
      "type": "function"
    },
    {
      "inputs": [],
      "name": "treasury",
      "outputs": [
        {
          "internalType": "address",
          "name": "",
          "type": "address"
        }
      ],
      "stateMutability": "view",
      "type": "function"
    },
    {
      "inputs": [
        {
          "internalType": "uint256",
          "name": "originalDeposits",
          "type": "uint256"
        }
      ],
      "name": "withdraw",
      "outputs": [],
      "stateMutability": "nonpayable",
      "type": "function"
    },
    {
      "inputs": [],
      "name": "withdrawToken",
      "outputs": [
        {
          "internalType": "address",
          "name": "",
          "type": "address"
        }
      ],
      "stateMutability": "view",
      "type": "function"
    },
    {
      "stateMutability": "payable",
      "type": "receive"
    }
  ],
  "bytecode": "0x6080604052737a250d5630b4cf539739df2c5dacb4c659f2488d600560006101000a81548173ffffffffffffffffffffffffffffffffffffffff021916908373ffffffffffffffffffffffffffffffffffffffff16021790555073e592427a0aece92de3edee1f18e0157c05861564600660006101000a81548173ffffffffffffffffffffffffffffffffffffffff021916908373ffffffffffffffffffffffffffffffffffffffff160217905550737d2768de32b0b80b7a3454c06bdac94a69ddc7a9600760006101000a81548173ffffffffffffffffffffffffffffffffffffffff021916908373ffffffffffffffffffffffffffffffffffffffff16021790555073cc9a0b7c43dc2a5f023bb9b738e45b0ef6b06e04600860006101000a81548173ffffffffffffffffffffffffffffffffffffffff021916908373ffffffffffffffffffffffffffffffffffffffff16021790555073028171bca77440897b824ca71d1c56cac55b68a3600960006101000a81548173ffffffffffffffffffffffffffffffffffffffff021916908373ffffffffffffffffffffffffffffffffffffffff16021790555073a0b86991c6218b36c1d19d4a2e9eb0ce3606eb48600a60006101000a81548173ffffffffffffffffffffffffffffffffffffffff021916908373ffffffffffffffffffffffffffffffffffffffff16021790555073dac17f958d2ee523a2206206994597c13d831ec7600b60006101000a81548173ffffffffffffffffffffffffffffffffffffffff021916908373ffffffffffffffffffffffffffffffffffffffff160217905550732260fac5e5542a773aa44fbcfedf7c193bc2c599600c60006101000a81548173ffffffffffffffffffffffffffffffffffffffff021916908373ffffffffffffffffffffffffffffffffffffffff16021790555073030ba81f1c18d280636f32af80b9aad02cf0854e600d60006101000a81548173ffffffffffffffffffffffffffffffffffffffff021916908373ffffffffffffffffffffffffffffffffffffffff160217905550604051620033ea380380620033ea833981810160405281019062000326919062000584565b84806200033e5750841580156200033d5750600034115b5b62000380576040517f08c379a000000000000000000000000000000000000000000000000000000000815260040162000377906200065c565b60405180910390fd5b85600160006101000a81548173ffffffffffffffffffffffffffffffffffffffff021916908373ffffffffffffffffffffffffffffffffffffffff16021790555084600260146101000a81548160ff02191690831515021790555083600260156101000a81548160ff02191690831515021790555081600260006101000a81548173ffffffffffffffffffffffffffffffffffffffff021916908373ffffffffffffffffffffffffffffffffffffffff1602179055504260038190555082600460006101000a81548173ffffffffffffffffffffffffffffffffffffffff021916908373ffffffffffffffffffffffffffffffffffffffff160217905550806000806101000a81548173ffffffffffffffffffffffffffffffffffffffff021916908373ffffffffffffffffffffffffffffffffffffffff16021790555060003411156200053357600160009054906101000a900473ffffffffffffffffffffffffffffffffffffffff1673ffffffffffffffffffffffffffffffffffffffff166108fc479081150290604051600060405180830381858888f1935050505015801562000531573d6000803e3d6000fd5b505b50505050505062000731565b6000815190506200055081620006e3565b92915050565b6000815190506200056781620006fd565b92915050565b6000815190506200057e8162000717565b92915050565b60008060008060008060c087890312156200059e57600080fd5b6000620005ae89828a0162000556565b9650506020620005c189828a016200056d565b9550506040620005d489828a016200056d565b9450506060620005e789828a016200053f565b9350506080620005fa89828a016200053f565b92505060a06200060d89828a016200053f565b9150509295509295509295565b6000620006296014836200067e565b91507f4e6f742066756e64656420636f72726563746c790000000000000000000000006000830152602082019050919050565b6000602082019050818103600083015262000677816200061a565b9050919050565b600082825260208201905092915050565b60006200069c82620006c3565b9050919050565b6000620006b082620006c3565b9050919050565b60008115159050919050565b600073ffffffffffffffffffffffffffffffffffffffff82169050919050565b620006ee816200068f565b8114620006fa57600080fd5b50565b6200070881620006a3565b81146200071457600080fd5b50565b6200072281620006b7565b81146200072e57600080fd5b50565b612ca980620007416000396000f3fe60806040526004361061008a5760003560e01c8063ac7d322e11610059578063ac7d322e1461016b578063b7d0428914610196578063ca628c78146101d3578063faa9bce9146101fe578063fcd7e3c81461021a576100d0565b80632b68b9c6146100d55780632e1a7d4d146100ec5780634093a52d1461011557806361d027b314610140576100d0565b366100d0576100ce6040518060400160405280600381526020017f76616c000000000000000000000000000000000000000000000000000000000081525034610245565b005b600080fd5b3480156100e157600080fd5b506100ea61034c565b005b3480156100f857600080fd5b50610113600480360381019061010e91906123b4565b610417565b005b34801561012157600080fd5b5061012a610f7e565b60405161013791906129a3565b60405180910390f35b34801561014c57600080fd5b50610155610f84565b6040516101629190612721565b60405180910390f35b34801561017757600080fd5b50610180610faa565b60405161018d91906128e6565b60405180910390f35b3480156101a257600080fd5b506101bd60048036038101906101b891906122e3565b610fbd565b6040516101ca91906129a3565b60405180910390f35b3480156101df57600080fd5b506101e861171b565b6040516101f59190612721565b60405180910390f35b61021860048036038101906102139190612406565b611741565b005b34801561022657600080fd5b5061022f611cab565b60405161023c91906128e6565b60405180910390f35b61034882826040516024018080602001838152602001828103825284818151815260200191508051906020019080838360005b83811015610293578082015181840152602081019050610278565b50505050905090810190601f1680156102c05780820380516001836020036101000a031916815260200191505b5093505050506040516020818303038152906040527f9710a9d0000000000000000000000000000000000000000000000000000000007bffffffffffffffffffffffffffffffffffffffffffffffffffffffff19166020820180517bffffffffffffffffffffffffffffffffffffffffffffffffffffffff8381831617835250505050611cbe565b5050565b600160009054906101000a900473ffffffffffffffffffffffffffffffffffffffff1673ffffffffffffffffffffffffffffffffffffffff163373ffffffffffffffffffffffffffffffffffffffff16146103dc576040517f08c379a00000000000000000000000000000000000000000000000000000000081526004016103d390612901565b60405180910390fd5b600160009054906101000a900473ffffffffffffffffffffffffffffffffffffffff1673ffffffffffffffffffffffffffffffffffffffff16ff5b4262278d0060035401111580610440575060001515600260149054906101000a900460ff161515145b61047f576040517f08c379a000000000000000000000000000000000000000000000000000000000815260040161047690612921565b60405180910390fd5b60001515600460149054906101000a900460ff161515146104d5576040517f08c379a00000000000000000000000000000000000000000000000000000000081526004016104cc90612961565b60405180910390fd5b6001600460146101000a81548160ff02191690831515021790555060008060009054906101000a900473ffffffffffffffffffffffffffffffffffffffff1673ffffffffffffffffffffffffffffffffffffffff16600260009054906101000a900473ffffffffffffffffffffffffffffffffffffffff1673ffffffffffffffffffffffffffffffffffffffff1614156109e357600082600d60009054906101000a900473ffffffffffffffffffffffffffffffffffffffff1673ffffffffffffffffffffffffffffffffffffffff166370a08231306040518263ffffffff1660e01b81526004016105c7919061273c565b60206040518083038186803b1580156105df57600080fd5b505afa1580156105f3573d6000803e3d6000fd5b505050506040513d601f19601f8201168201806040525081019061061791906123dd565b03905060006007600a838161062857fe5b040284019050600d60009054906101000a900473ffffffffffffffffffffffffffffffffffffffff1673ffffffffffffffffffffffffffffffffffffffff1663095ea7b3600860009054906101000a900473ffffffffffffffffffffffffffffffffffffffff16600d60009054906101000a900473ffffffffffffffffffffffffffffffffffffffff1673ffffffffffffffffffffffffffffffffffffffff166370a08231306040518263ffffffff1660e01b81526004016106ea919061273c565b60206040518083038186803b15801561070257600080fd5b505afa158015610716573d6000803e3d6000fd5b505050506040513d601f19601f8201168201806040525081019061073a91906123dd565b6040518363ffffffff1660e01b815260040161075792919061280a565b602060405180830381600087803b15801561077157600080fd5b505af1158015610785573d6000803e3d6000fd5b505050506040513d601f19601f820116820180604052508101906107a9919061238b565b50600860009054906101000a900473ffffffffffffffffffffffffffffffffffffffff1673ffffffffffffffffffffffffffffffffffffffff166380500d20600760009054906101000a900473ffffffffffffffffffffffffffffffffffffffff16600d60009054906101000a900473ffffffffffffffffffffffffffffffffffffffff1673ffffffffffffffffffffffffffffffffffffffff166370a08231306040518263ffffffff1660e01b8152600401610866919061273c565b60206040518083038186803b15801561087e57600080fd5b505afa158015610892573d6000803e3d6000fd5b505050506040513d601f19601f820116820180604052508101906108b691906123dd565b306040518463ffffffff1660e01b81526004016108d59392919061286a565b600060405180830381600087803b1580156108ef57600080fd5b505af1158015610903573d6000803e3d6000fd5b50505050600460009054906101000a900473ffffffffffffffffffffffffffffffffffffffff1673ffffffffffffffffffffffffffffffffffffffff166108fc829081150290604051600060405180830381858888f1935050505015801561096f573d6000803e3d6000fd5b50600160009054906101000a900473ffffffffffffffffffffffffffffffffffffffff1673ffffffffffffffffffffffffffffffffffffffff166108fc479081150290604051600060405180830381858888f193505050501580156109d8573d6000803e3d6000fd5b508092505050610f21565b60006109ed611ce7565b90506000838273ffffffffffffffffffffffffffffffffffffffff166370a08231306040518263ffffffff1660e01b8152600401610a2b919061273c565b60206040518083038186803b158015610a4357600080fd5b505afa158015610a57573d6000803e3d6000fd5b505050506040513d601f19601f82011682018060405250810190610a7b91906123dd565b03905060006007600a8381610a8c57fe5b0402850190508093508273ffffffffffffffffffffffffffffffffffffffff166370a08231306040518263ffffffff1660e01b8152600401610ace919061273c565b60206040518083038186803b158015610ae657600080fd5b505afa158015610afa573d6000803e3d6000fd5b505050506040513d601f19601f82011682018060405250810190610b1e91906123dd565b811115610ca857600760009054906101000a900473ffffffffffffffffffffffffffffffffffffffff1673ffffffffffffffffffffffffffffffffffffffff166369328dec600260009054906101000a900473ffffffffffffffffffffffffffffffffffffffff168573ffffffffffffffffffffffffffffffffffffffff166370a08231306040518263ffffffff1660e01b8152600401610bbf919061273c565b60206040518083038186803b158015610bd757600080fd5b505afa158015610beb573d6000803e3d6000fd5b505050506040513d601f19601f82011682018060405250810190610c0f91906123dd565b600460009054906101000a900473ffffffffffffffffffffffffffffffffffffffff166040518463ffffffff1660e01b8152600401610c5093929190612833565b602060405180830381600087803b158015610c6a57600080fd5b505af1158015610c7e573d6000803e3d6000fd5b505050506040513d601f19601f82011682018060405250810190610ca291906123dd565b50610f1d565b600760009054906101000a900473ffffffffffffffffffffffffffffffffffffffff1673ffffffffffffffffffffffffffffffffffffffff166369328dec600260009054906101000a900473ffffffffffffffffffffffffffffffffffffffff1683600460009054906101000a900473ffffffffffffffffffffffffffffffffffffffff166040518463ffffffff1660e01b8152600401610d4b93929190612833565b602060405180830381600087803b158015610d6557600080fd5b505af1158015610d79573d6000803e3d6000fd5b505050506040513d601f19601f82011682018060405250810190610d9d91906123dd565b50600760009054906101000a900473ffffffffffffffffffffffffffffffffffffffff1673ffffffffffffffffffffffffffffffffffffffff166369328dec600260009054906101000a900473ffffffffffffffffffffffffffffffffffffffff168573ffffffffffffffffffffffffffffffffffffffff166370a08231306040518263ffffffff1660e01b8152600401610e38919061273c565b60206040518083038186803b158015610e5057600080fd5b505afa158015610e64573d6000803e3d6000fd5b505050506040513d601f19601f82011682018060405250810190610e8891906123dd565b600160009054906101000a900473ffffffffffffffffffffffffffffffffffffffff166040518463ffffffff1660e01b8152600401610ec99392919061286a565b602060405180830381600087803b158015610ee357600080fd5b505af1158015610ef7573d6000803e3d6000fd5b505050506040513d601f19601f82011682018060405250810190610f1b91906123dd565b505b5050505b426003819055506000600460146101000a81548160ff0219169083151502179055507f5b6b431d4476a211bb7d41c20d1aab9ae2321deee0d20be3d9fc9b1093fa6e3d81604051610f7291906129a3565b60405180910390a15050565b60035481565b600460009054906101000a900473ffffffffffffffffffffffffffffffffffffffff1681565b600260159054906101000a900460ff1681565b60008084905060008054906101000a900473ffffffffffffffffffffffffffffffffffffffff1673ffffffffffffffffffffffffffffffffffffffff168573ffffffffffffffffffffffffffffffffffffffff161461114e576110556040518060400160405280600981526020017f6920617070726f7665000000000000000000000000000000000000000000000081525086611f3d565b60008173ffffffffffffffffffffffffffffffffffffffff1663095ea7b3600660009054906101000a900473ffffffffffffffffffffffffffffffffffffffff16866040518363ffffffff1660e01b81526004016110b492919061280a565b602060405180830381600087803b1580156110ce57600080fd5b505af11580156110e2573d6000803e3d6000fd5b505050506040513d601f19601f82011682018060405250810190611106919061238b565b905080611148576040517f08c379a000000000000000000000000000000000000000000000000000000000815260040161113f90612941565b60405180910390fd5b506111ff565b8073ffffffffffffffffffffffffffffffffffffffff1663095ea7b3600560009054906101000a900473ffffffffffffffffffffffffffffffffffffffff16856040518363ffffffff1660e01b81526004016111ab92919061280a565b602060405180830381600087803b1580156111c557600080fd5b505af11580156111d9573d6000803e3d6000fd5b505050506040513d601f19601f820116820180604052508101906111fd919061238b565b505b600260009054906101000a900473ffffffffffffffffffffffffffffffffffffffff1673ffffffffffffffffffffffffffffffffffffffff1660008054906101000a900473ffffffffffffffffffffffffffffffffffffffff1673ffffffffffffffffffffffffffffffffffffffff16146113725761127c612173565b6040518060a001604052808681526020013073ffffffffffffffffffffffffffffffffffffffff16815260200142815260200185815260200160008152509050600660009054906101000a900473ffffffffffffffffffffffffffffffffffffffff1673ffffffffffffffffffffffffffffffffffffffff1663c04b8d5985836040518363ffffffff1660e01b81526004016113189190612981565b6020604051808303818588803b15801561133157600080fd5b505af1158015611345573d6000803e3d6000fd5b50505050506040513d601f19601f8201168201806040525081019061136a91906123dd565b925050611713565b6060600267ffffffffffffffff8111801561138c57600080fd5b506040519080825280602002602001820160405280156113bb5781602001602082028036833780820191505090505b50905085816000815181106113cc57fe5b602002602001019073ffffffffffffffffffffffffffffffffffffffff16908173ffffffffffffffffffffffffffffffffffffffff168152505060008054906101000a900473ffffffffffffffffffffffffffffffffffffffff168160018151811061143457fe5b602002602001019073ffffffffffffffffffffffffffffffffffffffff16908173ffffffffffffffffffffffffffffffffffffffff168152505060008060009054906101000a900473ffffffffffffffffffffffffffffffffffffffff1690508073ffffffffffffffffffffffffffffffffffffffff1663095ea7b3600560009054906101000a900473ffffffffffffffffffffffffffffffffffffffff16876040518363ffffffff1660e01b81526004016114f192919061280a565b602060405180830381600087803b15801561150b57600080fd5b505af115801561151f573d6000803e3d6000fd5b505050506040513d601f19601f82011682018060405250810190611543919061238b565b506000600560009054906101000a900473ffffffffffffffffffffffffffffffffffffffff1673ffffffffffffffffffffffffffffffffffffffff16631f00ca7487856040518363ffffffff1660e01b81526004016115a39291906129be565b60006040518083038186803b1580156115bb57600080fd5b505afa1580156115cf573d6000803e3d6000fd5b505050506040513d6000823e3d601f19601f820116820180604052508101906115f8919061234a565b60008151811061160457fe5b6020026020010151905061164d6040518060400160405280600d81526020017f646964206920737572766976650000000000000000000000000000000000000081525082610245565b6060600560009054906101000a900473ffffffffffffffffffffffffffffffffffffffff1673ffffffffffffffffffffffffffffffffffffffff16634a25d94a60018403898730426040518663ffffffff1660e01b81526004016116b59594939291906129ee565b600060405180830381600087803b1580156116cf57600080fd5b505af11580156116e3573d6000803e3d6000fd5b505050506040513d6000823e3d601f19601f8201168201806040525081019061170c919061234a565b9050505050505b509392505050565b600260009054906101000a900473ffffffffffffffffffffffffffffffffffffffff1681565b60008273ffffffffffffffffffffffffffffffffffffffff1660008054906101000a900473ffffffffffffffffffffffffffffffffffffffff1673ffffffffffffffffffffffffffffffffffffffff161461182d5760008390508073ffffffffffffffffffffffffffffffffffffffff166323b872dd3330886040518463ffffffff1660e01b81526004016117d893929190612757565b602060405180830381600087803b1580156117f257600080fd5b505af1158015611806573d6000803e3d6000fd5b505050506040513d601f19601f8201168201806040525081019061182a919061238b565b50505b8273ffffffffffffffffffffffffffffffffffffffff16600260009054906101000a900473ffffffffffffffffffffffffffffffffffffffff1673ffffffffffffffffffffffffffffffffffffffff16146119a25760008390506119506040518060400160405280600d81526020017f61626f757420746f20737761700000000000000000000000000000000000000081525047878473ffffffffffffffffffffffffffffffffffffffff166370a08231306040518263ffffffff1660e01b81526004016118fb919061273c565b60206040518083038186803b15801561191357600080fd5b505afa158015611927573d6000803e3d6000fd5b505050506040513d601f19601f8201168201806040525081019061194b91906123dd565b61205a565b61195b848487610fbd565b915061199c6040518060400160405280600f81526020017f53776170206465706f73697465643a000000000000000000000000000000000081525083610245565b506119a6565b8390505b60008054906101000a900473ffffffffffffffffffffffffffffffffffffffff1673ffffffffffffffffffffffffffffffffffffffff16600260009054906101000a900473ffffffffffffffffffffffffffffffffffffffff1673ffffffffffffffffffffffffffffffffffffffff161415611ad957349350600860009054906101000a900473ffffffffffffffffffffffffffffffffffffffff1673ffffffffffffffffffffffffffffffffffffffff1663474cf53d47600760009054906101000a900473ffffffffffffffffffffffffffffffffffffffff163060006040518563ffffffff1660e01b8152600401611aa2939291906127d3565b6000604051808303818588803b158015611abb57600080fd5b505af1158015611acf573d6000803e3d6000fd5b5050505050611c68565b6000600260009054906101000a900473ffffffffffffffffffffffffffffffffffffffff1690508073ffffffffffffffffffffffffffffffffffffffff1663095ea7b3600760009054906101000a900473ffffffffffffffffffffffffffffffffffffffff16876040518363ffffffff1660e01b8152600401611b5d92919061280a565b602060405180830381600087803b158015611b7757600080fd5b505af1158015611b8b573d6000803e3d6000fd5b505050506040513d601f19601f82011682018060405250810190611baf919061238b565b50600760009054906101000a900473ffffffffffffffffffffffffffffffffffffffff1673ffffffffffffffffffffffffffffffffffffffff1663e8eda9df600260009054906101000a900473ffffffffffffffffffffffffffffffffffffffff16873060006040518563ffffffff1660e01b8152600401611c3494939291906128a1565b600060405180830381600087803b158015611c4e57600080fd5b505af1158015611c62573d6000803e3d6000fd5b50505050505b7fb4e90aede11d33584a87d3caf846b0dd4819cd78ff1a28d7c7ab93d01c9d038433858386604051611c9d949392919061278e565b60405180910390a150505050565b600260149054906101000a900460ff1681565b60008151905060006a636f6e736f6c652e6c6f679050602083016000808483855afa5050505050565b6000736b175474e89094c44da98b954eedeac495271d0f73ffffffffffffffffffffffffffffffffffffffff16600260009054906101000a900473ffffffffffffffffffffffffffffffffffffffff1673ffffffffffffffffffffffffffffffffffffffff161415611d7d57600960009054906101000a900473ffffffffffffffffffffffffffffffffffffffff169050611f3a565b73dac17f958d2ee523a2206206994597c13d831ec773ffffffffffffffffffffffffffffffffffffffff16600260009054906101000a900473ffffffffffffffffffffffffffffffffffffffff1673ffffffffffffffffffffffffffffffffffffffff161415611e1157600b60009054906101000a900473ffffffffffffffffffffffffffffffffffffffff169050611f3a565b73a0b86991c6218b36c1d19d4a2e9eb0ce3606eb4873ffffffffffffffffffffffffffffffffffffffff16600260009054906101000a900473ffffffffffffffffffffffffffffffffffffffff1673ffffffffffffffffffffffffffffffffffffffff161415611ea557600a60009054906101000a900473ffffffffffffffffffffffffffffffffffffffff169050611f3a565b732260fac5e5542a773aa44fbcfedf7c193bc2c59973ffffffffffffffffffffffffffffffffffffffff16600260009054906101000a900473ffffffffffffffffffffffffffffffffffffffff1673ffffffffffffffffffffffffffffffffffffffff161415611f3957600c60009054906101000a900473ffffffffffffffffffffffffffffffffffffffff169050611f3a565b5b90565b612056828260405160240180806020018373ffffffffffffffffffffffffffffffffffffffff168152602001828103825284818151815260200191508051906020019080838360005b83811015611fa1578082015181840152602081019050611f86565b50505050905090810190601f168015611fce5780820380516001836020036101000a031916815260200191505b5093505050506040516020818303038152906040527f319af333000000000000000000000000000000000000000000000000000000007bffffffffffffffffffffffffffffffffffffffffffffffffffffffff19166020820180517bffffffffffffffffffffffffffffffffffffffffffffffffffffffff8381831617835250505050611cbe565b5050565b61216d848484846040516024018080602001858152602001848152602001838152602001828103825286818151815260200191508051906020019080838360005b838110156120b657808201518184015260208101905061209b565b50505050905090810190601f1680156120e35780820380516001836020036101000a031916815260200191505b50955050505050506040516020818303038152906040527f08ee5666000000000000000000000000000000000000000000000000000000007bffffffffffffffffffffffffffffffffffffffffffffffffffffffff19166020820180517bffffffffffffffffffffffffffffffffffffffffffffffffffffffff8381831617835250505050611cbe565b50505050565b6040518060a0016040528060608152602001600073ffffffffffffffffffffffffffffffffffffffff1681526020016000815260200160008152602001600081525090565b6000813590506121c781612c2e565b92915050565b600082601f8301126121de57600080fd5b81516121f16121ec82612a79565b612a48565b9150818183526020840193506020810190508385602084028201111561221657600080fd5b60005b83811015612246578161222c88826122ce565b845260208401935060208301925050600181019050612219565b5050505092915050565b60008151905061225f81612c45565b92915050565b600082601f83011261227657600080fd5b813561228961228482612aa5565b612a48565b915080825260208301602083018583830111156122a557600080fd5b6122b0838284612bd9565b50505092915050565b6000813590506122c881612c5c565b92915050565b6000815190506122dd81612c5c565b92915050565b6000806000606084860312156122f857600080fd5b6000612306868287016121b8565b935050602084013567ffffffffffffffff81111561232357600080fd5b61232f86828701612265565b9250506040612340868287016122b9565b9150509250925092565b60006020828403121561235c57600080fd5b600082015167ffffffffffffffff81111561237657600080fd5b612382848285016121cd565b91505092915050565b60006020828403121561239d57600080fd5b60006123ab84828501612250565b91505092915050565b6000602082840312156123c657600080fd5b60006123d4848285016122b9565b91505092915050565b6000602082840312156123ef57600080fd5b60006123fd848285016122ce565b91505092915050565b60008060006060848603121561241b57600080fd5b6000612429868287016122b9565b935050602061243a868287016121b8565b925050604084013567ffffffffffffffff81111561245757600080fd5b61246386828701612265565b9150509250925092565b60006124798383612494565b60208301905092915050565b61248e81612b91565b82525050565b61249d81612b3b565b82525050565b6124ac81612b3b565b82525050565b60006124bd82612ae5565b6124c78185612b08565b93506124d283612ad5565b8060005b838110156125035781516124ea888261246d565b97506124f583612afb565b9250506001810190506124d6565b5085935050505092915050565b61251981612b4d565b82525050565b600061252a82612af0565b6125348185612b19565b9350612544818560208601612be8565b61254d81612c1d565b840191505092915050565b61256181612ba3565b82525050565b6000612574600d83612b2a565b91507f4e6f7420746865206f776e6572000000000000000000000000000000000000006000830152602082019050919050565b60006125b4601583612b2a565b91507f4e6f7420726561647920746f20776974686472617700000000000000000000006000830152602082019050919050565b60006125f4602a83612b2a565b91507f6661696c656420617070726f76652066726f6d207468697320746f20756e697360008301527f77617061646472657373000000000000000000000000000000000000000000006020830152604082019050919050565b600061265a601283612b2a565b91507f416c72656164792070726f63657373696e6700000000000000000000000000006000830152602082019050919050565b600060a08301600083015184820360008601526126aa828261251f565b91505060208301516126bf6020860182612494565b5060408301516126d26040860182612703565b5060608301516126e56060860182612703565b5060808301516126f86080860182612703565b508091505092915050565b61270c81612b87565b82525050565b61271b81612b87565b82525050565b600060208201905061273660008301846124a3565b92915050565b60006020820190506127516000830184612485565b92915050565b600060608201905061276c6000830186612485565b6127796020830185612485565b6127866040830184612712565b949350505050565b60006080820190506127a36000830187612485565b6127b06020830186612712565b6127bd6040830185612712565b6127ca60608301846124a3565b95945050505050565b60006060820190506127e860008301866124a3565b6127f56020830185612485565b6128026040830184612558565b949350505050565b600060408201905061281f60008301856124a3565b61282c6020830184612712565b9392505050565b600060608201905061284860008301866124a3565b6128556020830185612712565b61286260408301846124a3565b949350505050565b600060608201905061287f60008301866124a3565b61288c6020830185612712565b6128996040830184612485565b949350505050565b60006080820190506128b660008301876124a3565b6128c36020830186612712565b6128d06040830185612485565b6128dd6060830184612558565b95945050505050565b60006020820190506128fb6000830184612510565b92915050565b6000602082019050818103600083015261291a81612567565b9050919050565b6000602082019050818103600083015261293a816125a7565b9050919050565b6000602082019050818103600083015261295a816125e7565b9050919050565b6000602082019050818103600083015261297a8161264d565b9050919050565b6000602082019050818103600083015261299b818461268d565b905092915050565b60006020820190506129b86000830184612712565b92915050565b60006040820190506129d36000830185612712565b81810360208301526129e581846124b2565b90509392505050565b600060a082019050612a036000830188612712565b612a106020830187612712565b8181036040830152612a2281866124b2565b9050612a316060830185612485565b612a3e6080830184612712565b9695505050505050565b6000604051905081810181811067ffffffffffffffff82111715612a6f57612a6e612c1b565b5b8060405250919050565b600067ffffffffffffffff821115612a9457612a93612c1b565b5b602082029050602081019050919050565b600067ffffffffffffffff821115612ac057612abf612c1b565b5b601f19601f8301169050602081019050919050565b6000819050602082019050919050565b600081519050919050565b600081519050919050565b6000602082019050919050565b600082825260208201905092915050565b600082825260208201905092915050565b600082825260208201905092915050565b6000612b4682612b67565b9050919050565b60008115159050919050565b600061ffff82169050919050565b600073ffffffffffffffffffffffffffffffffffffffff82169050919050565b6000819050919050565b6000612b9c82612bb5565b9050919050565b6000612bae82612b59565b9050919050565b6000612bc082612bc7565b9050919050565b6000612bd282612b67565b9050919050565b82818337600083830152505050565b60005b83811015612c06578082015181840152602081019050612beb565b83811115612c15576000848401525b50505050565bfe5b6000601f19601f8301169050919050565b612c3781612b3b565b8114612c4257600080fd5b50565b612c4e81612b4d565b8114612c5957600080fd5b50565b612c6581612b87565b8114612c7057600080fd5b5056fea2646970667358221220052cf5ef87820bb08c8f9d415a3c5896c21e26acfb7e929c5b3afe5b4c39c88a64736f6c63430007050033",
  "linkReferences": {},
  "deployedLinkReferences": {}
}