{
  "_format": "hh-sol-artifact-1",
  "contractName": "JulzPay",
  "sourceName": "src/contracts/JulzPay.sol",
  "abi": [
    {
      "inputs": [
        {
          "internalType": "address payable",
          "name": "_owner",
          "type": "address"
        },
        {
          "internalType": "bool",
          "name": "_monthly",
          "type": "bool"
        },
        {
          "internalType": "bool",
          "name": "_covergas",
          "type": "bool"
        },
        {
          "internalType": "address",
          "name": "_treasury",
          "type": "address"
        },
        {
          "internalType": "address",
          "name": "_withdrawToken",
          "type": "address"
        },
        {
          "internalType": "address",
          "name": "_WETH_ADD",
          "type": "address"
        }
      ],
      "stateMutability": "payable",
      "type": "constructor"
    },
    {
      "anonymous": false,
      "inputs": [
        {
          "indexed": false,
          "internalType": "address",
          "name": "sender",
          "type": "address"
        },
        {
          "indexed": false,
          "internalType": "uint256",
          "name": "amountReceived",
          "type": "uint256"
        },
        {
          "indexed": false,
          "internalType": "uint256",
          "name": "amountDeposited",
          "type": "uint256"
        },
        {
          "indexed": false,
          "internalType": "address",
          "name": "token",
          "type": "address"
        }
      ],
      "name": "Paid",
      "type": "event"
    },
    {
      "inputs": [],
      "name": "covergas",
      "outputs": [
        {
          "internalType": "bool",
          "name": "",
          "type": "bool"
        }
      ],
      "stateMutability": "view",
      "type": "function"
    },
    {
      "inputs": [
        {
          "internalType": "uint256",
          "name": "_amount",
          "type": "uint256"
        },
        {
          "internalType": "address",
          "name": "_token",
          "type": "address"
        }
      ],
      "name": "deposit",
      "outputs": [],
      "stateMutability": "nonpayable",
      "type": "function"
    },
    {
      "inputs": [],
      "name": "destruct",
      "outputs": [],
      "stateMutability": "nonpayable",
      "type": "function"
    },
    {
      "inputs": [],
      "name": "lastWithdrawDate",
      "outputs": [
        {
          "internalType": "uint256",
          "name": "",
          "type": "uint256"
        }
      ],
      "stateMutability": "view",
      "type": "function"
    },
    {
      "inputs": [],
      "name": "monthly",
      "outputs": [
        {
          "internalType": "bool",
          "name": "",
          "type": "bool"
        }
      ],
      "stateMutability": "view",
      "type": "function"
    },
    {
      "inputs": [],
      "name": "treasury",
      "outputs": [
        {
          "internalType": "address",
          "name": "",
          "type": "address"
        }
      ],
      "stateMutability": "view",
      "type": "function"
    },
    {
      "inputs": [],
      "name": "withdraw",
      "outputs": [],
      "stateMutability": "nonpayable",
      "type": "function"
    },
    {
      "inputs": [],
      "name": "withdrawToken",
      "outputs": [
        {
          "internalType": "address",
          "name": "",
          "type": "address"
        }
      ],
      "stateMutability": "view",
      "type": "function"
    },
    {
      "stateMutability": "payable",
      "type": "receive"
    }
  ],
  "bytecode": "0x608060405273e592427a0aece92de3edee1f18e0157c05861564600560006101000a81548173ffffffffffffffffffffffffffffffffffffffff021916908373ffffffffffffffffffffffffffffffffffffffff1602179055506040516200122b3803806200122b83398181016040528101906200007e91906200020d565b85600160006101000a81548173ffffffffffffffffffffffffffffffffffffffff021916908373ffffffffffffffffffffffffffffffffffffffff16021790555084600260146101000a81548160ff02191690831515021790555083600260156101000a81548160ff02191690831515021790555081600260006101000a81548173ffffffffffffffffffffffffffffffffffffffff021916908373ffffffffffffffffffffffffffffffffffffffff1602179055504260038190555082600460006101000a81548173ffffffffffffffffffffffffffffffffffffffff021916908373ffffffffffffffffffffffffffffffffffffffff160217905550806000806101000a81548173ffffffffffffffffffffffffffffffffffffffff021916908373ffffffffffffffffffffffffffffffffffffffff16021790555050505050505062000345565b600081519050620001d981620002f7565b92915050565b600081519050620001f08162000311565b92915050565b60008151905062000207816200032b565b92915050565b60008060008060008060c087890312156200022757600080fd5b60006200023789828a01620001df565b96505060206200024a89828a01620001f6565b95505060406200025d89828a01620001f6565b94505060606200027089828a01620001c8565b93505060806200028389828a01620001c8565b92505060a06200029689828a01620001c8565b9150509295509295509295565b6000620002b082620002d7565b9050919050565b6000620002c482620002d7565b9050919050565b60008115159050919050565b600073ffffffffffffffffffffffffffffffffffffffff82169050919050565b6200030281620002a3565b81146200030e57600080fd5b50565b6200031c81620002b7565b81146200032857600080fd5b50565b6200033681620002cb565b81146200034257600080fd5b50565b610ed680620003556000396000f3fe60806040526004361061007f5760003560e01c80636e553f651161004e5780636e553f6514610219578063ac7d322e14610242578063ca628c781461026d578063fcd7e3c81461029857610190565b80632b68b9c6146101955780633ccfd60b146101ac5780634093a52d146101c357806361d027b3146101ee57610190565b366101905760008060009054906101000a900473ffffffffffffffffffffffffffffffffffffffff1690506000600260009054906101000a900473ffffffffffffffffffffffffffffffffffffffff1673ffffffffffffffffffffffffffffffffffffffff1660008054906101000a900473ffffffffffffffffffffffffffffffffffffffff1673ffffffffffffffffffffffffffffffffffffffff161461014f5761014c8260008054906101000a900473ffffffffffffffffffffffffffffffffffffffff16346102c3565b90505b7fb4e90aede11d33584a87d3caf846b0dd4819cd78ff1a28d7c7ab93d01c9d0384333483306040516101849493929190610c07565b60405180910390a15050005b600080fd5b3480156101a157600080fd5b506101aa6104c0565b005b3480156101b857600080fd5b506101c161058b565b005b3480156101cf57600080fd5b506101d861069d565b6040516101e59190610cf2565b60405180910390f35b3480156101fa57600080fd5b506102036106a3565b6040516102109190610b70565b60405180910390f35b34801561022557600080fd5b50610240600480360381019061023b9190610940565b6106c9565b005b34801561024e57600080fd5b50610257610809565b6040516102649190610c75565b60405180910390f35b34801561027957600080fd5b5061028261081c565b60405161028f9190610b70565b60405180910390f35b3480156102a457600080fd5b506102ad610842565b6040516102ba9190610c75565b60405180910390f35b60008373ffffffffffffffffffffffffffffffffffffffff1663095ea7b3600560009054906101000a900473ffffffffffffffffffffffffffffffffffffffff16846040518363ffffffff1660e01b8152600401610322929190610c4c565b602060405180830381600087803b15801561033c57600080fd5b505af1158015610350573d6000803e3d6000fd5b505050506040513d601f19601f8201168201806040525081019061037491906108ee565b506060836003600260009054906101000a900473ffffffffffffffffffffffffffffffffffffffff166040516020016103af93929190610b33565b60405160208183030381529060405290506103c8610855565b6040518060a001604052808381526020013073ffffffffffffffffffffffffffffffffffffffff16815260200142815260200185815260200160008152509050600560009054906101000a900473ffffffffffffffffffffffffffffffffffffffff1673ffffffffffffffffffffffffffffffffffffffff1663c04b8d59826040518263ffffffff1660e01b81526004016104639190610cd0565b602060405180830381600087803b15801561047d57600080fd5b505af1158015610491573d6000803e3d6000fd5b505050506040513d601f19601f820116820180604052508101906104b59190610917565b925050509392505050565b600160009054906101000a900473ffffffffffffffffffffffffffffffffffffffff1673ffffffffffffffffffffffffffffffffffffffff163373ffffffffffffffffffffffffffffffffffffffff1614610550576040517f08c379a000000000000000000000000000000000000000000000000000000000815260040161054790610c90565b60405180910390fd5b600160009054906101000a900473ffffffffffffffffffffffffffffffffffffffff1673ffffffffffffffffffffffffffffffffffffffff16ff5b4262278d006003540111156105d5576040517f08c379a00000000000000000000000000000000000000000000000000000000081526004016105cc90610cb0565b60405180910390fd5b60001515600460149054906101000a900460ff161515146105f557600080fd5b6001600460146101000a81548160ff021916908315150217905550600460009054906101000a900473ffffffffffffffffffffffffffffffffffffffff1673ffffffffffffffffffffffffffffffffffffffff166108fc479081150290604051600060405180830381858888f19350505050158015610678573d6000803e3d6000fd5b50426003819055506000600460146101000a81548160ff021916908315150217905550565b60035481565b600460009054906101000a900473ffffffffffffffffffffffffffffffffffffffff1681565b60008190508073ffffffffffffffffffffffffffffffffffffffff166323b872dd3330866040518463ffffffff1660e01b815260040161070b93929190610b8b565b602060405180830381600087803b15801561072557600080fd5b505af1158015610739573d6000803e3d6000fd5b505050506040513d601f19601f8201168201806040525081019061075d91906108ee565b506000839050600260009054906101000a900473ffffffffffffffffffffffffffffffffffffffff1673ffffffffffffffffffffffffffffffffffffffff168373ffffffffffffffffffffffffffffffffffffffff16146107c6576107c38284866102c3565b90505b7fb4e90aede11d33584a87d3caf846b0dd4819cd78ff1a28d7c7ab93d01c9d0384338583866040516107fb9493929190610bc2565b60405180910390a150505050565b600260159054906101000a900460ff1681565b600260009054906101000a900473ffffffffffffffffffffffffffffffffffffffff1681565b600260149054906101000a900460ff1681565b6040518060a0016040528060608152602001600073ffffffffffffffffffffffffffffffffffffffff1681526020016000815260200160008152602001600081525090565b6000813590506108a981610e5b565b92915050565b6000815190506108be81610e72565b92915050565b6000813590506108d381610e89565b92915050565b6000815190506108e881610e89565b92915050565b60006020828403121561090057600080fd5b600061090e848285016108af565b91505092915050565b60006020828403121561092957600080fd5b6000610937848285016108d9565b91505092915050565b6000806040838503121561095357600080fd5b6000610961858286016108c4565b92505060206109728582860161089a565b9150509250929050565b61098581610d91565b82525050565b61099481610d3a565b82525050565b6109a381610d3a565b82525050565b6109ba6109b582610d3a565b610dfa565b82525050565b6109c981610d4c565b82525050565b60006109da82610d0d565b6109e48185610d18565b93506109f4818560208601610dc7565b6109fd81610e30565b840191505092915050565b6000610a15600d83610d29565b91507f4e6f7420746865206f776e6572000000000000000000000000000000000000006000830152602082019050919050565b6000610a55601583610d29565b91507f4e6f7420726561647920746f20776974686472617700000000000000000000006000830152602082019050919050565b600060a0830160008301518482036000860152610aa582826109cf565b9150506020830151610aba602086018261098b565b506040830151610acd6040860182610b15565b506060830151610ae06060860182610b15565b506080830151610af36080860182610b15565b508091505092915050565b610b0f610b0a82610d78565b610e1e565b82525050565b610b1e81610d87565b82525050565b610b2d81610d87565b82525050565b6000610b3f82866109a9565b601482019150610b4f8285610afe565b600382019150610b5f82846109a9565b601482019150819050949350505050565b6000602082019050610b85600083018461099a565b92915050565b6000606082019050610ba0600083018661097c565b610bad602083018561097c565b610bba6040830184610b24565b949350505050565b6000608082019050610bd7600083018761097c565b610be46020830186610b24565b610bf16040830185610b24565b610bfe606083018461099a565b95945050505050565b6000608082019050610c1c600083018761097c565b610c296020830186610b24565b610c366040830185610b24565b610c43606083018461097c565b95945050505050565b6000604082019050610c61600083018561099a565b610c6e6020830184610b24565b9392505050565b6000602082019050610c8a60008301846109c0565b92915050565b60006020820190508181036000830152610ca981610a08565b9050919050565b60006020820190508181036000830152610cc981610a48565b9050919050565b60006020820190508181036000830152610cea8184610a88565b905092915050565b6000602082019050610d076000830184610b24565b92915050565b600081519050919050565b600082825260208201905092915050565b600082825260208201905092915050565b6000610d4582610d58565b9050919050565b60008115159050919050565b600073ffffffffffffffffffffffffffffffffffffffff82169050919050565b600062ffffff82169050919050565b6000819050919050565b6000610d9c82610da3565b9050919050565b6000610dae82610db5565b9050919050565b6000610dc082610d58565b9050919050565b60005b83811015610de5578082015181840152602081019050610dca565b83811115610df4576000848401525b50505050565b6000610e0582610e0c565b9050919050565b6000610e1782610e4e565b9050919050565b6000610e2982610e41565b9050919050565b6000601f19601f8301169050919050565b60008160e81b9050919050565b60008160601b9050919050565b610e6481610d3a565b8114610e6f57600080fd5b50565b610e7b81610d4c565b8114610e8657600080fd5b50565b610e9281610d87565b8114610e9d57600080fd5b5056fea26469706673582212208c2a7997b249f749ba2ea03320300241f3be0f19fe251fdb75e5f8208c5db92464736f6c63430007050033",
  "linkReferences": {},
  "deployedLinkReferences": {}
}